{
	"data": {
		"bytecode": {
			"linkReferences": {},
			"object": "608060405261025860075561012c6008556602aa1efb94e00060095566038d7ea4c68000600a55600c6200003590600a620010e1565b600b556000600e819055600f55601180546001600160a01b031990811673bd0233d4cb7abe917f79f0e80dc7676f4cb818e117909155601280548216737ce4b5d0504edf27ec43610f8679e84bdf81a0b817905560138054821673cf6526a5165a8f406c9652a3b1e10669a60f5905179055601480548216736e36b3891d2ae499ad3763767dea0119c363f015179055601580549091167356c4c71e7c04e2f0d482bcc187392d4d96595694179055348015620000f157600080fd5b506040518060400160405280600d81526020016c21b93cb83a37a6b7b739ba32b960991b8152506040518060400160405280600481526020016321a6a7a760e11b81525081600390816200014691906200119f565b5060046200015582826200119f565b5050601080546001600160a01b0319163390811790915542600555600b546200018e92506200018890629896806200126b565b62000ded565b6010546001600160a01b0316600090815260208190526040902054606490620001b990601e6200126b565b620001c5919062001285565b600c556010546001600160a01b0316600090815260208190526040902054606490620001f390603c6200126b565b620001ff919062001285565b600d55601054601354600b5462000233926001600160a01b039081169216906200022d90620493e06200126b565b62000e2f565b601054601454600b546200025e926001600160a01b039081169216906200022d9062061a806200126b565b601054601554600b5462000289926001600160a01b039081169216906200022d9062030d406200126b565b6040805161012081018252600560e082019081526437bbb732b960d91b61010083015281526010546001600160a01b03166020820152600b549091820190620002d690620186a06200126b565b8152600c546020820152600d54604082015260006060820152608001600390526010546001600160a01b03166000908152601760205260409020815181906200032090826200119f565b5060208201516001820180546001600160a01b0319166001600160a01b039092169190911790556040820151600282015560608201516003808301919091556080830151600483015560a083015160058301805460ff198116921515928317825560c086015193919261ffff1990911661ff00199091161790610100908490811115620003b157620003b1620012a8565b0217905550506010546040516437bbb732b960d91b81526001600160a01b039091169150601690600501908152604080516020928190038301812080546001600160a01b0319166001600160a01b039590951694909417909355818301919091526003908201526231323360e81b606082015260800160405160208183030381529060405280519060200120601860405162000458906437bbb732b960d91b815260050190565b90815260408051602092819003830181209390935561012083018152600760e0840190815266383ab1283937bb60c91b61010085015283526012546001600160a01b03168284018190526000848301819052606085018190526080850181905260a08501819052600160c08601529081526017909252902081518190620004e090826200119f565b5060208201516001820180546001600160a01b0319166001600160a01b039092169190911790556040820151600282015560608201516003808301919091556080830151600483015560a083015160058301805460ff198116921515928317825560c086015193919261ffff1990911661ff00199091161790610100908490811115620005715762000571620012a8565b02179055505060125460405166383ab1283937bb60c91b81526001600160a01b039091169150601690600701908152604080516020928190038301812080546001600160a01b0319166001600160a01b039590951694909417909355818301919091526003908201526231323360e81b60608201526080016040516020818303038152906040528051906020012060186040516200061c9066383ab1283937bb60c91b815260070190565b90815260408051602092819003830181209390935561012083018152600860e0840190815267383934bb283937bb60c11b61010085015283526011546001600160a01b031682840181905260008483018190526060850181905260808501819052600160a0860152600260c08601529081526017909252902081518190620006a590826200119f565b5060208201516001820180546001600160a01b0319166001600160a01b039092169190911790556040820151600282015560608201516003808301919091556080830151600483015560a083015160058301805460ff198116921515928317825560c086015193919261ffff1990911661ff00199091161790610100908490811115620007365762000736620012a8565b02179055505060115460405167383934bb283937bb60c11b81526001600160a01b039091169150601690600801908152604080516020928190038301812080546001600160a01b0319166001600160a01b039590951694909417909355818301919091526003908201526231323360e81b6060820152608001604051602081830303815290604052805190602001206018604051620007e39067383934bb283937bb60c11b815260080190565b90815260408051602092819003830181209390935561012083018152600460e0840190815263696e763160e01b61010085015283526013546001600160a01b03169183018290528201906200084d906001600160a01b031660009081526020819052604090205490565b81526020016000815260200160008152602001600015158152602001600060038111156200087f576200087f620012a8565b90526013546001600160a01b0316600090815260176020526040902081518190620008ab90826200119f565b5060208201516001820180546001600160a01b0319166001600160a01b039092169190911790556040820151600282015560608201516003808301919091556080830151600483015560a083015160058301805460ff198116921515928317825560c086015193919261ffff1990911661ff001990911617906101009084908111156200093c576200093c620012a8565b02179055505060135460405163696e763160e01b81526001600160a01b039091169150601690600401908152604080516020928190038301812080546001600160a01b0319166001600160a01b039590951694909417909355818301919091526003908201526231323360e81b6060820152608001604051602081830303815290604052805190602001206018604051620009e19063696e763160e01b815260040190565b90815260408051602092819003830181209390935561012083018152600460e084019081526334b73b1960e11b61010085015283526014546001600160a01b031691830182905282019062000a4b906001600160a01b031660009081526020819052604090205490565b815260200160008152602001600081526020016000151581526020016000600381111562000a7d5762000a7d620012a8565b90526014546001600160a01b031660009081526017602052604090208151819062000aa990826200119f565b5060208201516001820180546001600160a01b0319166001600160a01b039092169190911790556040820151600282015560608201516003808301919091556080830151600483015560a083015160058301805460ff198116921515928317825560c086015193919261ffff1990911661ff0019909116179061010090849081111562000b3a5762000b3a620012a8565b0217905550506014546040516334b73b1960e11b81526001600160a01b039091169150601690600401908152604080516020928190038301812080546001600160a01b0319166001600160a01b039590951694909417909355818301919091526003908201526231323360e81b606082015260800160405160208183030381529060405280519060200120601860405162000bdf906334b73b1960e11b815260040190565b90815260408051602092819003830181209390935561012083018152600260e0840190815261313360f11b61010085015283526015546001600160a01b031691830182905282019062000c47906001600160a01b031660009081526020819052604090205490565b815260200160008152602001600081526020016000151581526020016000600381111562000c795762000c79620012a8565b90526015546001600160a01b031660009081526017602052604090208151819062000ca590826200119f565b5060208201516001820180546001600160a01b0319166001600160a01b039092169190911790556040820151600282015560608201516003808301919091556080830151600483015560a083015160058301805460ff198116921515928317825560c086015193919261ffff1990911661ff0019909116179061010090849081111562000d365762000d36620012a8565b02179055505060155460405161313360f11b81526001600160a01b039091169150601690600201908152604080516020928190038301812080546001600160a01b0319166001600160a01b039590951694909417909355818301919091526003908201526231323360e81b606082015260800160405160208183030381529060405280519060200120601860405162000dd79061313360f11b815260020190565b90815260405190819003602001902055620012d4565b6001600160a01b03821662000e1d5760405163ec442f0560e01b8152600060048201526024015b60405180910390fd5b62000e2b6000838362000e99565b5050565b6001600160a01b03831662000e5b57604051634b637e8f60e11b81526000600482015260240162000e14565b6001600160a01b03821662000e875760405163ec442f0560e01b81526000600482015260240162000e14565b62000e9483838362000e99565b505050565b6001600160a01b03831662000ec857806002600082825462000ebc9190620012be565b9091555062000f3c9050565b6001600160a01b0383166000908152602081905260409020548181101562000f1d5760405163391434e360e21b81526001600160a01b0385166004820152602481018290526044810183905260640162000e14565b6001600160a01b03841660009081526020819052604090209082900390555b6001600160a01b03821662000f5a5760028054829003905562000f79565b6001600160a01b03821660009081526020819052604090208054820190555b816001600160a01b0316836001600160a01b03167fddf252ad1be2c89b69c2b068fc378daa952ba7f163c4a11628f55a4df523b3ef8360405162000fbf91815260200190565b60405180910390a3505050565b634e487b7160e01b600052601160045260246000fd5b600181815b808511156200102357816000190482111562001007576200100762000fcc565b808516156200101557918102915b93841c939080029062000fe7565b509250929050565b6000826200103c57506001620010db565b816200104b57506000620010db565b81600181146200106457600281146200106f576200108f565b6001915050620010db565b60ff84111562001083576200108362000fcc565b50506001821b620010db565b5060208310610133831016604e8410600b8410161715620010b4575081810a620010db565b620010c0838362000fe2565b8060001904821115620010d757620010d762000fcc565b0290505b92915050565b6000620010f260ff8416836200102b565b9392505050565b634e487b7160e01b600052604160045260246000fd5b600181811c908216806200112457607f821691505b6020821081036200114557634e487b7160e01b600052602260045260246000fd5b50919050565b601f82111562000e94576000816000526020600020601f850160051c81016020861015620011765750805b601f850160051c820191505b81811015620011975782815560010162001182565b505050505050565b81516001600160401b03811115620011bb57620011bb620010f9565b620011d381620011cc84546200110f565b846200114b565b602080601f8311600181146200120b5760008415620011f25750858301515b600019600386901b1c1916600185901b17855562001197565b600085815260208120601f198616915b828110156200123c578886015182559484019460019091019084016200121b565b50858210156200125b5787850151600019600388901b60f8161c191681555b5050505050600190811b01905550565b8082028115828204841417620010db57620010db62000fcc565b600082620012a357634e487b7160e01b600052601260045260246000fd5b500490565b634e487b7160e01b600052602160045260246000fd5b80820180821115620010db57620010db62000fcc565b6134ea80620012e46000396000f3fe6080604052600436106101ee5760003560e01c806395d89b411161010d578063d01f63f5116100a0578063e33dc59b1161006f578063e33dc59b146105b7578063e4d69fbd146105d7578063eef0a913146105ec578063eef616e314610601578063ffc9896b1461062157600080fd5b8063d01f63f51461051a578063d05217431461053c578063dd62ed3e1461055c578063e0af444c146105a257600080fd5b8063a469a332116100dc578063a469a332146104a4578063a9059cbb146104c4578063ca44a81e146104e4578063ce8ae9f3146104fa57600080fd5b806395d89b41146104455780639afaf7941461045a5780639d7e8d5f1461046f578063a37337b31461048f57600080fd5b80632e1faf751161018557806365a1456d1161015457806365a1456d146103b95780636c834e9e146103d957806370a08231146103f957806378e979251461042f57600080fd5b80632e1faf7514610348578063313ce567146103685780634b94f50e14610384578063532970b11461039957600080fd5b806318160ddd116101c157806318160ddd146102c757806323b872dd146102e65780632c162dbc146103065780632d296bf11461033357600080fd5b806306fdde03146101f3578063095ea7b31461021e57806311c43b191461024e57806312065fe014610270575b600080fd5b3480156101ff57600080fd5b50610208610641565b6040516102159190612e3f565b60405180910390f35b34801561022a57600080fd5b5061023e610239366004612e70565b6106d3565b6040519015158152602001610215565b34801561025a57600080fd5b506102636106ed565b6040516102159190612e9a565b34801561027c57600080fd5b506102a733600081815260176020526040902060028101546003820154600490920154923192909293565b604080519485526020850193909352918301526060820152608001610215565b3480156102d357600080fd5b506002545b604051908152602001610215565b3480156102f257600080fd5b5061023e610301366004612f0a565b61077c565b34801561031257600080fd5b50610326610321366004612fe9565b6107a0565b6040516102159190613063565b6103466103413660046130f1565b6109a4565b005b34801561035457600080fd5b5061034661036336600461310a565b610dce565b34801561037457600080fd5b50604051600c8152602001610215565b34801561039057600080fd5b506102d8611110565b3480156103a557600080fd5b506103466103b436600461313d565b611156565b3480156103c557600080fd5b506102d86103d4366004613172565b6113e0565b3480156103e557600080fd5b506103466103f43660046130f1565b611453565b34801561040557600080fd5b506102d8610414366004613172565b6001600160a01b031660009081526020819052604090205490565b34801561043b57600080fd5b506102d860055481565b34801561045157600080fd5b50610208611692565b34801561046657600080fd5b506103466116a1565b34801561047b57600080fd5b5061034661048a3660046130f1565b6117ac565b34801561049b57600080fd5b506102d86117fe565b3480156104b057600080fd5b506103466104bf366004612fe9565b611820565b3480156104d057600080fd5b5061023e6104df366004612e70565b611af9565b3480156104f057600080fd5b506102d8600e5481565b34801561050657600080fd5b50610346610515366004612e70565b611b07565b34801561052657600080fd5b5061052f611bed565b604051610215919061318d565b34801561054857600080fd5b506103466105573660046130f1565b611d59565b34801561056857600080fd5b506102d861057736600461321b565b6001600160a01b03918216600090815260016020908152604080832093909416825291909152205490565b3480156105ae57600080fd5b5061052f612266565b3480156105c357600080fd5b506103466105d236600461310a565b6123c7565b3480156105e357600080fd5b50610346612647565b3480156105f857600080fd5b50610346612661565b34801561060d57600080fd5b506102d861061c366004613172565b612968565b34801561062d57600080fd5b5061032661063c366004613172565b6129d6565b6060600380546106509061324e565b80601f016020809104026020016040519081016040528092919081815260200182805461067c9061324e565b80156106c95780601f1061069e576101008083540402835291602001916106c9565b820191906000526020600020905b8154815290600101906020018083116106ac57829003601f168201915b5050505050905090565b6000336106e1818585612a5c565b60019150505b92915050565b6060601b805480602002602001604051908101604052809291908181526020016000905b82821015610773576000848152602090819020604080516080810182526004860290920180546001600160a01b039081168452600180830154909116848601526002820154928401929092526003015460608301529083529092019101610711565b50505050905090565b60003361078a858285612a69565b610795858585612ae7565b506001949350505050565b6107a8612d45565b816040516020016107b99190612e3f565b604051602081830303815290604052805190602001206018846040516107df9190613282565b908152602001604051809103902054146108535760405162461bcd60e51b815260206004820152602a60248201527fd09dd0b5d0b2d0b5d180d0bdd0be20d0b2d0b2d0b5d0b4d0b5d0bdd18b20d0b4604482015269d0b0d0bdd0bdd18bd0b560b01b60648201526084015b60405180910390fd5b601760006016856040516108679190613282565b9081526040805160209281900383019020546001600160a01b03168352908201929092528101600020815160e081019092528054829082906108a89061324e565b80601f01602080910402602001604051908101604052809291908181526020018280546108d49061324e565b80156109215780601f106108f657610100808354040283529160200191610921565b820191906000526020600020905b81548152906001019060200180831161090457829003601f168201915b505050918352505060018201546001600160a01b0316602082015260028201546040820152600380830154606083015260048301546080830152600583015460ff808216151560a085015260c09093019261010090910416908111156109895761098961304d565b600381111561099a5761099a61304d565b9052509392505050565b60006109ae611110565b9050600a548103610b4a57611388600b54836109ca91906132b4565b1115610a325760405162461bcd60e51b815260206004820152603160248201527fd09cd0b0d0bad181d0b8d0bcd0b0d0bbd18cd0bdd0bed0b520d0bad0bed0bb2d6044820152706859685f1016901a971818181021a6a7a760791b606482015260840161084a565b80600b5483610a4191906132b4565b610a4b91906132d6565b341015610a9a5760405162461bcd60e51b815260206004820152601c60248201527fd09dd0b5d0b4d0bed181d182d0b0d182d0bed187d0bdd0be2045544800000000604482015260640161084a565b6010546040516001600160a01b03909116903480156108fc02916000818181858888f19350505050158015610ad3573d6000803e3d6000fd5b50601254610aeb906001600160a01b03163384612ae7565b3360009081526017602052604081206004018054849290610b0d9084906132ed565b90915550506012546001600160a01b031660009081526017602052604081206004018054849290610b3f908490613300565b90915550610dca9050565b6009548103610d36573360009081526017602052604090206005015460ff16610bad5760405162461bcd60e51b8152602060048201526015602482015274119c9959481cd85b19481b9bdd081cdd185c9d1959605a1b604482015260640161084a565b620186a0600b5483610bbf91906132b4565b1115610c295760405162461bcd60e51b815260206004820152603360248201527fd09cd0b0d0bad181d0b8d0bcd0b0d0bbd18cd0bdd0bed0b520d0bad0bed0bb2d6044820152726859685f101690189818171818181021a6a7a760691b606482015260840161084a565b80600b5483610c3891906132b4565b610c4291906132d6565b341015610c915760405162461bcd60e51b815260206004820152601c60248201527fd09dd0b5d0b4d0bed181d182d0b0d182d0bed187d0bdd0be2045544800000000604482015260640161084a565b6010546040516001600160a01b03909116903480156108fc02916000818181858888f19350505050158015610cca573d6000803e3d6000fd5b50601154610ce2906001600160a01b03163384612ae7565b3360009081526017602052604081206003018054849290610d049084906132ed565b90915550506011546001600160a01b031660009081526017602052604081206003018054849290610b3f908490613300565b60405162461bcd60e51b815260206004820152605c60248201527fd092d0be20d0b2d180d0b5d0bcd18f20d0bfd0bed0b4d0b3d0bed182d0bed0b260448201527fd0b8d182d0b5d0bbd18cd0bdd0bed0b920d184d0b0d0b7d18b20d0bdd0b5d0bb60648201527fd18cd0b7d18f20d0bfd0bed0bad183d0bfd0b0d182d18c20434d4f4e00000000608482015260a40161084a565b5050565b6010546001600160a01b03163303610e8e5781600f541015610e8e5760405162461bcd60e51b815260206004820152606760248201527fd092d18b20d0bdd0b520d0bcd0bed0b6d0b5d182d0b520d0b8d181d0bfd0bed060448201527fbbd18cd0b7d0bed0b2d0b0d182d18c20d182d0bed0bad0b5d0bdd18b20d0b4d060648201527fbbd18f20d0b4d0b0d0bbd18cd0bdd0b5d0b9d188d0b5d0b920d0bfd180d0bed0608482015266169a161a16da1760cb1b60a482015260c40161084a565b80600103610f6b5733600090815260176020526040902060020154821115610f035760405162461bcd60e51b815260206004820152602260248201527fd09dd0b5d0b4d0bed181d182d0b0d182d0bed187d0bdd0be207365656420434d60448201526127a760f11b606482015260840161084a565b610f0e338484612ae7565b3360009081526017602052604081206002018054849290610f30908490613300565b90915550506001600160a01b03831660009081526017602052604081206002018054849290610f609084906132ed565b909155506110dd9050565b806002036110405733600090815260176020526040902060030154821115610fe35760405162461bcd60e51b815260206004820152602560248201527fd09dd0b5d0b4d0bed181d182d0b0d182d0bed187d0bdd0be20707269766174656044820152641021a6a7a760d91b606482015260840161084a565b610fee338484612ae7565b3360009081526017602052604081206003018054849290611010908490613300565b90915550506001600160a01b03831660009081526017602052604081206003018054849290610f609084906132ed565b806003036110dd573360009081526017602052604090206004015482111561107a5760405162461bcd60e51b815260040161084a90613313565b611085338484612ae7565b33600090815260176020526040812060040180548492906110a7908490613300565b90915550506001600160a01b038316600090815260176020526040812060040180548492906110d79084906132ed565b90915550505b6010546001600160a01b039081169084160361110b5781600f600082825461110591906132ed565b90915550505b505050565b600754600854600091829161112591906132ed565b61112d6117fe565b111561113b575050600a5490565b6008546111466117fe565b111561115157506009545b919050565b60028033600090815260176020526040902060050154610100900460ff1660038111156111855761118561304d565b146111a25760405162461bcd60e51b815260040161084a90613357565b811561139c576001601984815481106111bd576111bd61338e565b906000526020600020906002020160010160146101000a81548160ff021916908315150217905550601a6040518060600160405280601986815481106112055761120561338e565b906000526020600020906002020160000180546112219061324e565b80601f016020809104026020016040519081016040528092919081815260200182805461124d9061324e565b801561129a5780601f1061126f5761010080835404028352916020019161129a565b820191906000526020600020905b81548152906001019060200180831161127d57829003601f168201915b50505050508152602001601986815481106112b7576112b761338e565b600091825260208083206002928302016001908101546001600160a01b031685529381018490528554938401865594825293902082519293919091020190819061130190826133f4565b506020820151600191820180546040909401511515600160a01b026001600160a81b03199094166001600160a01b03909216919091179290921790915560198054601791600091879081106113585761135861338e565b60009182526020808320600292909202909101600101546001600160a01b031683528201929092526040019020600501805460ff1916911515919091179055505050565b601983815481106113af576113af61338e565b600091825260208220600290910201906113c98282612d9d565b5060010180546001600160a81b0319169055505050565b600060028033600090815260176020526040902060050154610100900460ff1660038111156114115761141161304d565b1461142e5760405162461bcd60e51b815260040161084a90613357565b6001600160a01b03831660009081526017602052604090206003015491505b50919050565b60038033600090815260176020526040902060050154610100900460ff1660038111156114825761148261304d565b1461149f5760405162461bcd60e51b815260040161084a90613357565b8160020361154957601154600c546114c49133916001600160a01b0390911690612ae7565b600c5433600090815260176020526040812060030180549091906114e9908490613300565b9091555050600c546011546001600160a01b03166000908152601760205260408120600301805490919061151e9084906132ed565b90915550506001600e55600b5461153890620186a06132d6565b600f6000828254610b3f91906132ed565b81600303610dca57601254600d5461156e9133916001600160a01b0390911690612ae7565b600d543360009081526017602052604081206004018054909190611593908490613300565b9091555050600d546012546001600160a01b0316600090815260176020526040812060040180549091906115c89084906132ed565b90915550506002600e556011546001600160a01b03166000818152601760205260409020600301546115fc91903390612ae7565b6011546001600160a01b0316600090815260176020526040808220600390810154338452918320018054919290916116359084906132ed565b90915550506011546001600160a01b0316600090815260176020526040812060030154600f80549192909161166b9084906132ed565b90915550506011546001600160a01b03166000908152601760205260408120600301555050565b6060600480546106509061324e565b60038033600090815260176020526040902060050154610100900460ff1660038111156116d0576116d061304d565b146116ed5760405162461bcd60e51b815260040161084a90613357565b6012546001600160a01b031660008181526017602052604090206004015461171791903390612ae7565b6012546001600160a01b0316600090815260176020526040808220600490810154338452918320018054919290916117509084906132ed565b90915550506012546001600160a01b0316600090815260176020526040812060040154600f8054919290916117869084906132ed565b90915550506012546001600160a01b031660009081526017602052604081206004015550565b60018033600090815260176020526040902060050154610100900460ff1660038111156117db576117db61304d565b146117f85760405162461bcd60e51b815260040161084a90613357565b50600a55565b60006005546006544261181191906132ed565b61181b9190613300565b905090565b60006001600160a01b031660168360405161183b9190613282565b908152604051908190036020019020546001600160a01b0316146118e15760405162461bcd60e51b815260206004820152605160248201527fd09fd0bed0bbd18cd0b7d0bed0b2d0b0d182d0b5d0bbd18c20d18120d182d0b060448201527fd0bad0b8d0bc20d0bbd0bed0b3d0b8d0bdd0bed0bc20d183d0b6d0b520d181d160648201527041e8c4e85ae8c0e8c1685968c1e85ae8c160791b608482015260a40161084a565b336000908152601760205260409020600101546001600160a01b03161561198a5760405162461bcd60e51b815260206004820152605160248201527fd09fd0bed0bbd18cd0b7d0bed0b2d0b0d182d0b5d0bbd18c20d18120d182d0b060448201527fd0bad0b8d0bc20d0b0d0b4d180d0b5d181d0bed0bc20d183d0b6d0b520d181d160648201527041e8c4e85ae8c0e8c1685968c1e85ae8c160791b608482015260a40161084a565b6040805160e0810182528381523360208201526000918101829052606081018290526080810182905260a081018290529060c0820152336000908152601760205260409020815181906119dd90826133f4565b5060208201516001820180546001600160a01b0319166001600160a01b039092169190911790556040820151600282015560608201516003808301919091556080830151600483015560a083015160058301805460ff198116921515928317825560c086015193919261ffff1990911661ff00199091161790610100908490811115611a6b57611a6b61304d565b021790555090505033601683604051611a849190613282565b9081526040516020918190038201812080546001600160a01b0319166001600160a01b039490941693909317909255611abf91839101612e3f565b60405160208183030381529060405280519060200120601883604051611ae59190613282565b908152604051908190036020019020555050565b6000336106e1818585612ae7565b60018033600090815260176020526040902060050154610100900460ff166003811115611b3657611b3661304d565b14611b535760405162461bcd60e51b815260040161084a90613357565b6012546001600160a01b0316600090815260176020526040902060040154821115611b905760405162461bcd60e51b815260040161084a90613313565b611b9a8383611af9565b503360009081526017602052604081206004018054849290611bbd908490613300565b90915550506001600160a01b038316600090815260176020526040812060040180548492906111059084906132ed565b606060028033600090815260176020526040902060050154610100900460ff166003811115611c1e57611c1e61304d565b14611c3b5760405162461bcd60e51b815260040161084a90613357565b601a805480602002602001604051908101604052809291908181526020016000905b82821015611d4e5783829060005260206000209060020201604051806060016040529081600082018054611c909061324e565b80601f0160208091040260200160405190810160405280929190818152602001828054611cbc9061324e565b8015611d095780601f10611cde57610100808354040283529160200191611d09565b820191906000526020600020905b815481529060010190602001808311611cec57829003601f168201915b50505091835250506001918201546001600160a01b038116602080840191909152600160a01b90910460ff161515604090920191909152918352929092019101611c5d565b5050505091505b5090565b336001600160a01b0316601b8281548110611d7657611d7661338e565b60009182526020909120600160049092020101546001600160a01b031614611dea5760405162461bcd60e51b815260206004820152602160248201527fd0add182d0be20d0bdd0b520d0b2d0b0d188d0b820d182d0bed0bad0b5d0bdd16044820152608b60f81b606482015260840161084a565b611e80601b8281548110611e0057611e0061338e565b6000918252602090912060049091020154601b80546001600160a01b039092169184908110611e3157611e3161338e565b906000526020600020906004020160010160009054906101000a90046001600160a01b0316601b8481548110611e6957611e6961338e565b90600052602060002090600402016002015461077c565b50601b8181548110611e9457611e9461338e565b906000526020600020906004020160030154600103611fb257601b8181548110611ec057611ec061338e565b90600052602060002090600402016002015460176000601b8481548110611ee957611ee961338e565b600091825260208083206004909202909101546001600160a01b0316835282019290925260400181206002018054909190611f25908490613300565b9091555050601b805482908110611f3e57611f3e61338e565b90600052602060002090600402016002015460176000601b8481548110611f6757611f6761338e565b60009182526020808320600160049093020191909101546001600160a01b0316835282019290925260400181206002018054909190611fa79084906132ed565b9091555061221b9050565b601b8181548110611fc557611fc561338e565b9060005260206000209060040201600301546002036120d857601b8181548110611ff157611ff161338e565b90600052602060002090600402016002015460176000601b848154811061201a5761201a61338e565b600091825260208083206004909202909101546001600160a01b0316835282019290925260400181206003018054909190612056908490613300565b9091555050601b80548290811061206f5761206f61338e565b90600052602060002090600402016002015460176000601b84815481106120985761209861338e565b60009182526020808320600160049093020191909101546001600160a01b0316835282019290925260400181206003018054909190611fa79084906132ed565b601b81815481106120eb576120eb61338e565b90600052602060002090600402016003015460030361221b57601b81815481106121175761211761338e565b90600052602060002090600402016002015460176000601b84815481106121405761214061338e565b60009182526020808320600492830201546001600160a01b0316845283019390935260409091018120909101805490919061217c908490613300565b9091555050601b8054829081106121955761219561338e565b90600052602060002090600402016002015460176000601b84815481106121be576121be61338e565b906000526020600020906004020160010160009054906101000a90046001600160a01b03166001600160a01b03166001600160a01b03168152602001908152602001600020600401600082825461221591906132ed565b90915550505b601b818154811061222e5761222e61338e565b60009182526020822060049091020180546001600160a01b031990811682556001820180549091169055600281018290556003015550565b606060028033600090815260176020526040902060050154610100900460ff1660038111156122975761229761304d565b146122b45760405162461bcd60e51b815260040161084a90613357565b6019805480602002602001604051908101604052809291908181526020016000905b82821015611d4e57838290600052602060002090600202016040518060600160405290816000820180546123099061324e565b80601f01602080910402602001604051908101604052809291908181526020018280546123359061324e565b80156123825780601f1061235757610100808354040283529160200191612382565b820191906000526020600020905b81548152906001019060200180831161236557829003601f168201915b50505091835250506001918201546001600160a01b038116602080840191909152600160a01b90910460ff1615156040909201919091529183529290920191016122d6565b8060010361254457336000908152601760205260409020600201548211156124465760405162461bcd60e51b815260206004820152602c60248201527fd0a320d0b2d0b0d18120d0bdd0b5d0b4d0bed181d182d0b0d182d0bed187d0bd60448201526b685f1039b2b2b21021a6a7a760a11b606482015260840161084a565b604080516080810182523381526001600160a01b038581166020830190815292820185815260608301858152601b8054600181018255600091909152935160049094027f3ad8aa4f87544323a9d1e5dd902f40c356527a7955687113db5f9a85ad579dc1810180549585166001600160a01b031996871617905594517f3ad8aa4f87544323a9d1e5dd902f40c356527a7955687113db5f9a85ad579dc28601805491909416941693909317909155517f3ad8aa4f87544323a9d1e5dd902f40c356527a7955687113db5f9a85ad579dc3830155517f3ad8aa4f87544323a9d1e5dd902f40c356527a7955687113db5f9a85ad579dc490910155505050565b806002036125c657336000908152601760205260409020600301548211156124465760405162461bcd60e51b815260206004820152602f60248201527fd0a320d0b2d0b0d18120d0bdd0b5d0b4d0bed181d182d0b0d182d0bed187d0bd60448201526e685f10383934bb30ba329021a6a7a760891b606482015260840161084a565b8060030361110b57336000908152601760205260409020600401548211156124465760405162461bcd60e51b815260206004820152602e60248201527fd0a320d0b2d0b0d18120d0bdd0b5d0b4d0bed181d182d0b0d182d0bed187d0bd60448201526d685f10383ab13634b19021a6a7a760911b606482015260840161084a565b603c6006600082825461265a91906132ed565b9091555050565b60085461266c6117fe565b106127195760405162461bcd60e51b815260206004820152606b60248201527fd097d0b0d18fd0b2d0bad18320d0bcd0bed0b6d0bdd0be20d0bfd0bed0b4d0b060448201527fd182d18c20d182d0bed0bbd18cd0bad0be20d0b2d0be20d0b2d180d0b5d0bcd160648201527f8f20d0bfd0bed0b4d0b3d0bed182d0bed0b2d0b8d182d0b5d0bbd18cd0bdd0be60848201526ad0b920d184d0b0d0b7d18b60a81b60a482015260c40161084a565b3360009081526017602052604090206005015460ff16156127865760405162461bcd60e51b815260206004820152602160248201527fd092d18b20d183d0b6d0b520d0b220d0b2d0b0d0b9d182d0bbd0b8d181d182d0604482015260b560f81b606482015260840161084a565b60005b60195481101561284857336001600160a01b0316601982815481106127b0576127b061338e565b60009182526020909120600160029092020101546001600160a01b0316036128405760405162461bcd60e51b815260206004820152603960248201527fd092d18b20d183d0b6d0b520d0bfd0bed0b4d0b0d0bbd0b820d0b7d0b0d18fd060448201527fb2d0bad18320d0b220d0b2d0b0d0b9d182d0bbd0b8d181d18200000000000000606482015260840161084a565b600101612789565b506040805160608101825233600090815260176020529190912080546019929182916128739061324e565b80601f016020809104026020016040519081016040528092919081815260200182805461289f9061324e565b80156128ec5780601f106128c1576101008083540402835291602001916128ec565b820191906000526020600020905b8154815290600101906020018083116128cf57829003601f168201915b5050509183525050336020808301919091526000604090920182905283546001810185559382529020815191926002020190819061292a90826133f4565b506020820151600190910180546040909301511515600160a01b026001600160a81b03199093166001600160a01b0390921691909117919091179055565b600060018033600090815260176020526040902060050154610100900460ff1660038111156129995761299961304d565b146129b65760405162461bcd60e51b815260040161084a90613357565b50506001600160a01b031660009081526017602052604090206004015490565b6129de612d45565b60038033600090815260176020526040902060050154610100900460ff166003811115612a0d57612a0d61304d565b14612a2a5760405162461bcd60e51b815260040161084a90613357565b6001600160a01b03831660009081526017602052604090819020815160e081019092528054829082906108a89061324e565b61110b8383836001612b46565b6001600160a01b038381166000908152600160209081526040808320938616835292905220546000198114612ae15781811015612ad257604051637dc7a0d960e11b81526001600160a01b0384166004820152602481018290526044810183905260640161084a565b612ae184848484036000612b46565b50505050565b6001600160a01b038316612b1157604051634b637e8f60e11b81526000600482015260240161084a565b6001600160a01b038216612b3b5760405163ec442f0560e01b81526000600482015260240161084a565b61110b838383612c1b565b6001600160a01b038416612b705760405163e602df0560e01b81526000600482015260240161084a565b6001600160a01b038316612b9a57604051634a1406b160e11b81526000600482015260240161084a565b6001600160a01b0380851660009081526001602090815260408083209387168352929052208290558015612ae157826001600160a01b0316846001600160a01b03167f8c5be1e5ebec7d5bd14f71427d1e84f3dd0314c0f7b2291e5b200ac8c7c3b92584604051612c0d91815260200190565b60405180910390a350505050565b6001600160a01b038316612c46578060026000828254612c3b91906132ed565b90915550612cb89050565b6001600160a01b03831660009081526020819052604090205481811015612c995760405163391434e360e21b81526001600160a01b0385166004820152602481018290526044810183905260640161084a565b6001600160a01b03841660009081526020819052604090209082900390555b6001600160a01b038216612cd457600280548290039055612cf3565b6001600160a01b03821660009081526020819052604090208054820190555b816001600160a01b0316836001600160a01b03167fddf252ad1be2c89b69c2b068fc378daa952ba7f163c4a11628f55a4df523b3ef83604051612d3891815260200190565b60405180910390a3505050565b6040518060e001604052806060815260200160006001600160a01b0316815260200160008152602001600081526020016000815260200160001515815260200160006003811115612d9857612d9861304d565b905290565b508054612da99061324e565b6000825580601f10612db9575050565b601f016020900490600052602060002090810190612dd79190612dda565b50565b5b80821115611d555760008155600101612ddb565b60005b83811015612e0a578181015183820152602001612df2565b50506000910152565b60008151808452612e2b816020860160208601612def565b601f01601f19169290920160200192915050565b602081526000612e526020830184612e13565b9392505050565b80356001600160a01b038116811461115157600080fd5b60008060408385031215612e8357600080fd5b612e8c83612e59565b946020939093013593505050565b602080825282518282018190526000919060409081850190868401855b82811015612efd57815180516001600160a01b03908116865287820151168786015285810151868601526060908101519085015260809093019290850190600101612eb7565b5091979650505050505050565b600080600060608486031215612f1f57600080fd5b612f2884612e59565b9250612f3660208501612e59565b9150604084013590509250925092565b634e487b7160e01b600052604160045260246000fd5b600082601f830112612f6d57600080fd5b813567ffffffffffffffff80821115612f8857612f88612f46565b604051601f8301601f19908116603f01168101908282118183101715612fb057612fb0612f46565b81604052838152866020858801011115612fc957600080fd5b836020870160208301376000602085830101528094505050505092915050565b60008060408385031215612ffc57600080fd5b823567ffffffffffffffff8082111561301457600080fd5b61302086838701612f5c565b9350602085013591508082111561303657600080fd5b5061304385828601612f5c565b9150509250929050565b634e487b7160e01b600052602160045260246000fd5b602081526000825160e06020840152613080610100840182612e13565b905060018060a01b0360208501511660408401526040840151606084015260608401516080840152608084015160a084015260a0840151151560c084015260c0840151600481106130e157634e487b7160e01b600052602160045260246000fd5b60e0939093019290925250919050565b60006020828403121561310357600080fd5b5035919050565b60008060006060848603121561311f57600080fd5b61312884612e59565b95602085013595506040909401359392505050565b6000806040838503121561315057600080fd5b823591506020830135801515811461316757600080fd5b809150509250929050565b60006020828403121561318457600080fd5b612e5282612e59565b600060208083018184528085518083526040925060408601915060408160051b87010184880160005b8381101561320d57603f198984030185528151606081518186526131dc82870182612e13565b838b01516001600160a01b0316878c01529289015115159589019590955250948701949250908601906001016131b6565b509098975050505050505050565b6000806040838503121561322e57600080fd5b61323783612e59565b915061324560208401612e59565b90509250929050565b600181811c9082168061326257607f821691505b60208210810361144d57634e487b7160e01b600052602260045260246000fd5b60008251613294818460208701612def565b9190910192915050565b634e487b7160e01b600052601160045260246000fd5b6000826132d157634e487b7160e01b600052601260045260246000fd5b500490565b80820281158282048414176106e7576106e761329e565b808201808211156106e7576106e761329e565b818103818111156106e7576106e761329e565b60208082526024908201527fd09dd0b5d0b4d0bed181d182d0b0d182d0bed187d0bdd0be207075626c69632060408201526321a6a7a760e11b606082015260800190565b6020808252601f908201527fd0a320d0b2d0b0d18120d0bdd0b5d18220d0b4d0bed181d182d183d0bfd0b000604082015260600190565b634e487b7160e01b600052603260045260246000fd5b601f82111561110b576000816000526020600020601f850160051c810160208610156133cd5750805b601f850160051c820191505b818110156133ec578281556001016133d9565b505050505050565b815167ffffffffffffffff81111561340e5761340e612f46565b6134228161341c845461324e565b846133a4565b602080601f831160018114613457576000841561343f5750858301515b600019600386901b1c1916600185901b1785556133ec565b600085815260208120601f198616915b8281101561348657888601518255948401946001909101908401613467565b50858210156134a45787850151600019600388901b60f8161c191681555b5050505050600190811b0190555056fea2646970667358221220319d3d936de395a959d0b3f66d982c76df32de253e90a923300ae3642cba334d64736f6c63430008160033",
			"opcodes": "PUSH1 0x80 PUSH1 0x40 MSTORE PUSH2 0x258 PUSH1 0x7 SSTORE PUSH2 0x12C PUSH1 0x8 SSTORE PUSH7 0x2AA1EFB94E000 PUSH1 0x9 SSTORE PUSH7 0x38D7EA4C68000 PUSH1 0xA SSTORE PUSH1 0xC PUSH3 0x35 SWAP1 PUSH1 0xA PUSH3 0x10E1 JUMP JUMPDEST PUSH1 0xB SSTORE PUSH1 0x0 PUSH1 0xE DUP2 SWAP1 SSTORE PUSH1 0xF SSTORE PUSH1 0x11 DUP1 SLOAD PUSH1 0x1 PUSH1 0x1 PUSH1 0xA0 SHL SUB NOT SWAP1 DUP2 AND PUSH20 0xBD0233D4CB7ABE917F79F0E80DC7676F4CB818E1 OR SWAP1 SWAP2 SSTORE PUSH1 0x12 DUP1 SLOAD DUP3 AND PUSH20 0x7CE4B5D0504EDF27EC43610F8679E84BDF81A0B8 OR SWAP1 SSTORE PUSH1 0x13 DUP1 SLOAD DUP3 AND PUSH20 0xCF6526A5165A8F406C9652A3B1E10669A60F5905 OR SWAP1 SSTORE PUSH1 0x14 DUP1 SLOAD DUP3 AND PUSH20 0x6E36B3891D2AE499AD3763767DEA0119C363F015 OR SWAP1 SSTORE PUSH1 0x15 DUP1 SLOAD SWAP1 SWAP2 AND PUSH20 0x56C4C71E7C04E2F0D482BCC187392D4D96595694 OR SWAP1 SSTORE CALLVALUE DUP1 ISZERO PUSH3 0xF1 JUMPI PUSH1 0x0 DUP1 REVERT JUMPDEST POP PUSH1 0x40 MLOAD DUP1 PUSH1 0x40 ADD PUSH1 0x40 MSTORE DUP1 PUSH1 0xD DUP2 MSTORE PUSH1 0x20 ADD PUSH13 0x21B93CB83A37A6B7B739BA32B9 PUSH1 0x99 SHL DUP2 MSTORE POP PUSH1 0x40 MLOAD DUP1 PUSH1 0x40 ADD PUSH1 0x40 MSTORE DUP1 PUSH1 0x4 DUP2 MSTORE PUSH1 0x20 ADD PUSH4 0x21A6A7A7 PUSH1 0xE1 SHL DUP2 MSTORE POP DUP2 PUSH1 0x3 SWAP1 DUP2 PUSH3 0x146 SWAP2 SWAP1 PUSH3 0x119F JUMP JUMPDEST POP PUSH1 0x4 PUSH3 0x155 DUP3 DUP3 PUSH3 0x119F JUMP JUMPDEST POP POP PUSH1 0x10 DUP1 SLOAD PUSH1 0x1 PUSH1 0x1 PUSH1 0xA0 SHL SUB NOT AND CALLER SWAP1 DUP2 OR SWAP1 SWAP2 SSTORE TIMESTAMP PUSH1 0x5 SSTORE PUSH1 0xB SLOAD PUSH3 0x18E SWAP3 POP PUSH3 0x188 SWAP1 PUSH3 0x989680 PUSH3 0x126B JUMP JUMPDEST PUSH3 0xDED JUMP JUMPDEST PUSH1 0x10 SLOAD PUSH1 0x1 PUSH1 0x1 PUSH1 0xA0 SHL SUB AND PUSH1 0x0 SWAP1 DUP2 MSTORE PUSH1 0x20 DUP2 SWAP1 MSTORE PUSH1 0x40 SWAP1 KECCAK256 SLOAD PUSH1 0x64 SWAP1 PUSH3 0x1B9 SWAP1 PUSH1 0x1E PUSH3 0x126B JUMP JUMPDEST PUSH3 0x1C5 SWAP2 SWAP1 PUSH3 0x1285 JUMP JUMPDEST PUSH1 0xC SSTORE PUSH1 0x10 SLOAD PUSH1 0x1 PUSH1 0x1 PUSH1 0xA0 SHL SUB AND PUSH1 0x0 SWAP1 DUP2 MSTORE PUSH1 0x20 DUP2 SWAP1 MSTORE PUSH1 0x40 SWAP1 KECCAK256 SLOAD PUSH1 0x64 SWAP1 PUSH3 0x1F3 SWAP1 PUSH1 0x3C PUSH3 0x126B JUMP JUMPDEST PUSH3 0x1FF SWAP2 SWAP1 PUSH3 0x1285 JUMP JUMPDEST PUSH1 0xD SSTORE PUSH1 0x10 SLOAD PUSH1 0x13 SLOAD PUSH1 0xB SLOAD PUSH3 0x233 SWAP3 PUSH1 0x1 PUSH1 0x1 PUSH1 0xA0 SHL SUB SWAP1 DUP2 AND SWAP3 AND SWAP1 PUSH3 0x22D SWAP1 PUSH3 0x493E0 PUSH3 0x126B JUMP JUMPDEST PUSH3 0xE2F JUMP JUMPDEST PUSH1 0x10 SLOAD PUSH1 0x14 SLOAD PUSH1 0xB SLOAD PUSH3 0x25E SWAP3 PUSH1 0x1 PUSH1 0x1 PUSH1 0xA0 SHL SUB SWAP1 DUP2 AND SWAP3 AND SWAP1 PUSH3 0x22D SWAP1 PUSH3 0x61A80 PUSH3 0x126B JUMP JUMPDEST PUSH1 0x10 SLOAD PUSH1 0x15 SLOAD PUSH1 0xB SLOAD PUSH3 0x289 SWAP3 PUSH1 0x1 PUSH1 0x1 PUSH1 0xA0 SHL SUB SWAP1 DUP2 AND SWAP3 AND SWAP1 PUSH3 0x22D SWAP1 PUSH3 0x30D40 PUSH3 0x126B JUMP JUMPDEST PUSH1 0x40 DUP1 MLOAD PUSH2 0x120 DUP2 ADD DUP3 MSTORE PUSH1 0x5 PUSH1 0xE0 DUP3 ADD SWAP1 DUP2 MSTORE PUSH5 0x37BBB732B9 PUSH1 0xD9 SHL PUSH2 0x100 DUP4 ADD MSTORE DUP2 MSTORE PUSH1 0x10 SLOAD PUSH1 0x1 PUSH1 0x1 PUSH1 0xA0 SHL SUB AND PUSH1 0x20 DUP3 ADD MSTORE PUSH1 0xB SLOAD SWAP1 SWAP2 DUP3 ADD SWAP1 PUSH3 0x2D6 SWAP1 PUSH3 0x186A0 PUSH3 0x126B JUMP JUMPDEST DUP2 MSTORE PUSH1 0xC SLOAD PUSH1 0x20 DUP3 ADD MSTORE PUSH1 0xD SLOAD PUSH1 0x40 DUP3 ADD MSTORE PUSH1 0x0 PUSH1 0x60 DUP3 ADD MSTORE PUSH1 0x80 ADD PUSH1 0x3 SWAP1 MSTORE PUSH1 0x10 SLOAD PUSH1 0x1 PUSH1 0x1 PUSH1 0xA0 SHL SUB AND PUSH1 0x0 SWAP1 DUP2 MSTORE PUSH1 0x17 PUSH1 0x20 MSTORE PUSH1 0x40 SWAP1 KECCAK256 DUP2 MLOAD DUP2 SWAP1 PUSH3 0x320 SWAP1 DUP3 PUSH3 0x119F JUMP JUMPDEST POP PUSH1 0x20 DUP3 ADD MLOAD PUSH1 0x1 DUP3 ADD DUP1 SLOAD PUSH1 0x1 PUSH1 0x1 PUSH1 0xA0 SHL SUB NOT AND PUSH1 0x1 PUSH1 0x1 PUSH1 0xA0 SHL SUB SWAP1 SWAP3 AND SWAP2 SWAP1 SWAP2 OR SWAP1 SSTORE PUSH1 0x40 DUP3 ADD MLOAD PUSH1 0x2 DUP3 ADD SSTORE PUSH1 0x60 DUP3 ADD MLOAD PUSH1 0x3 DUP1 DUP4 ADD SWAP2 SWAP1 SWAP2 SSTORE PUSH1 0x80 DUP4 ADD MLOAD PUSH1 0x4 DUP4 ADD SSTORE PUSH1 0xA0 DUP4 ADD MLOAD PUSH1 0x5 DUP4 ADD DUP1 SLOAD PUSH1 0xFF NOT DUP2 AND SWAP3 ISZERO ISZERO SWAP3 DUP4 OR DUP3 SSTORE PUSH1 0xC0 DUP7 ADD MLOAD SWAP4 SWAP2 SWAP3 PUSH2 0xFFFF NOT SWAP1 SWAP2 AND PUSH2 0xFF00 NOT SWAP1 SWAP2 AND OR SWAP1 PUSH2 0x100 SWAP1 DUP5 SWAP1 DUP2 GT ISZERO PUSH3 0x3B1 JUMPI PUSH3 0x3B1 PUSH3 0x12A8 JUMP JUMPDEST MUL OR SWAP1 SSTORE POP POP PUSH1 0x10 SLOAD PUSH1 0x40 MLOAD PUSH5 0x37BBB732B9 PUSH1 0xD9 SHL DUP2 MSTORE PUSH1 0x1 PUSH1 0x1 PUSH1 0xA0 SHL SUB SWAP1 SWAP2 AND SWAP2 POP PUSH1 0x16 SWAP1 PUSH1 0x5 ADD SWAP1 DUP2 MSTORE PUSH1 0x40 DUP1 MLOAD PUSH1 0x20 SWAP3 DUP2 SWAP1 SUB DUP4 ADD DUP2 KECCAK256 DUP1 SLOAD PUSH1 0x1 PUSH1 0x1 PUSH1 0xA0 SHL SUB NOT AND PUSH1 0x1 PUSH1 0x1 PUSH1 0xA0 SHL SUB SWAP6 SWAP1 SWAP6 AND SWAP5 SWAP1 SWAP5 OR SWAP1 SWAP4 SSTORE DUP2 DUP4 ADD SWAP2 SWAP1 SWAP2 MSTORE PUSH1 0x3 SWAP1 DUP3 ADD MSTORE PUSH3 0x313233 PUSH1 0xE8 SHL PUSH1 0x60 DUP3 ADD MSTORE PUSH1 0x80 ADD PUSH1 0x40 MLOAD PUSH1 0x20 DUP2 DUP4 SUB SUB DUP2 MSTORE SWAP1 PUSH1 0x40 MSTORE DUP1 MLOAD SWAP1 PUSH1 0x20 ADD KECCAK256 PUSH1 0x18 PUSH1 0x40 MLOAD PUSH3 0x458 SWAP1 PUSH5 0x37BBB732B9 PUSH1 0xD9 SHL DUP2 MSTORE PUSH1 0x5 ADD SWAP1 JUMP JUMPDEST SWAP1 DUP2 MSTORE PUSH1 0x40 DUP1 MLOAD PUSH1 0x20 SWAP3 DUP2 SWAP1 SUB DUP4 ADD DUP2 KECCAK256 SWAP4 SWAP1 SWAP4 SSTORE PUSH2 0x120 DUP4 ADD DUP2 MSTORE PUSH1 0x7 PUSH1 0xE0 DUP5 ADD SWAP1 DUP2 MSTORE PUSH7 0x383AB1283937BB PUSH1 0xC9 SHL PUSH2 0x100 DUP6 ADD MSTORE DUP4 MSTORE PUSH1 0x12 SLOAD PUSH1 0x1 PUSH1 0x1 PUSH1 0xA0 SHL SUB AND DUP3 DUP5 ADD DUP2 SWAP1 MSTORE PUSH1 0x0 DUP5 DUP4 ADD DUP2 SWAP1 MSTORE PUSH1 0x60 DUP6 ADD DUP2 SWAP1 MSTORE PUSH1 0x80 DUP6 ADD DUP2 SWAP1 MSTORE PUSH1 0xA0 DUP6 ADD DUP2 SWAP1 MSTORE PUSH1 0x1 PUSH1 0xC0 DUP7 ADD MSTORE SWAP1 DUP2 MSTORE PUSH1 0x17 SWAP1 SWAP3 MSTORE SWAP1 KECCAK256 DUP2 MLOAD DUP2 SWAP1 PUSH3 0x4E0 SWAP1 DUP3 PUSH3 0x119F JUMP JUMPDEST POP PUSH1 0x20 DUP3 ADD MLOAD PUSH1 0x1 DUP3 ADD DUP1 SLOAD PUSH1 0x1 PUSH1 0x1 PUSH1 0xA0 SHL SUB NOT AND PUSH1 0x1 PUSH1 0x1 PUSH1 0xA0 SHL SUB SWAP1 SWAP3 AND SWAP2 SWAP1 SWAP2 OR SWAP1 SSTORE PUSH1 0x40 DUP3 ADD MLOAD PUSH1 0x2 DUP3 ADD SSTORE PUSH1 0x60 DUP3 ADD MLOAD PUSH1 0x3 DUP1 DUP4 ADD SWAP2 SWAP1 SWAP2 SSTORE PUSH1 0x80 DUP4 ADD MLOAD PUSH1 0x4 DUP4 ADD SSTORE PUSH1 0xA0 DUP4 ADD MLOAD PUSH1 0x5 DUP4 ADD DUP1 SLOAD PUSH1 0xFF NOT DUP2 AND SWAP3 ISZERO ISZERO SWAP3 DUP4 OR DUP3 SSTORE PUSH1 0xC0 DUP7 ADD MLOAD SWAP4 SWAP2 SWAP3 PUSH2 0xFFFF NOT SWAP1 SWAP2 AND PUSH2 0xFF00 NOT SWAP1 SWAP2 AND OR SWAP1 PUSH2 0x100 SWAP1 DUP5 SWAP1 DUP2 GT ISZERO PUSH3 0x571 JUMPI PUSH3 0x571 PUSH3 0x12A8 JUMP JUMPDEST MUL OR SWAP1 SSTORE POP POP PUSH1 0x12 SLOAD PUSH1 0x40 MLOAD PUSH7 0x383AB1283937BB PUSH1 0xC9 SHL DUP2 MSTORE PUSH1 0x1 PUSH1 0x1 PUSH1 0xA0 SHL SUB SWAP1 SWAP2 AND SWAP2 POP PUSH1 0x16 SWAP1 PUSH1 0x7 ADD SWAP1 DUP2 MSTORE PUSH1 0x40 DUP1 MLOAD PUSH1 0x20 SWAP3 DUP2 SWAP1 SUB DUP4 ADD DUP2 KECCAK256 DUP1 SLOAD PUSH1 0x1 PUSH1 0x1 PUSH1 0xA0 SHL SUB NOT AND PUSH1 0x1 PUSH1 0x1 PUSH1 0xA0 SHL SUB SWAP6 SWAP1 SWAP6 AND SWAP5 SWAP1 SWAP5 OR SWAP1 SWAP4 SSTORE DUP2 DUP4 ADD SWAP2 SWAP1 SWAP2 MSTORE PUSH1 0x3 SWAP1 DUP3 ADD MSTORE PUSH3 0x313233 PUSH1 0xE8 SHL PUSH1 0x60 DUP3 ADD MSTORE PUSH1 0x80 ADD PUSH1 0x40 MLOAD PUSH1 0x20 DUP2 DUP4 SUB SUB DUP2 MSTORE SWAP1 PUSH1 0x40 MSTORE DUP1 MLOAD SWAP1 PUSH1 0x20 ADD KECCAK256 PUSH1 0x18 PUSH1 0x40 MLOAD PUSH3 0x61C SWAP1 PUSH7 0x383AB1283937BB PUSH1 0xC9 SHL DUP2 MSTORE PUSH1 0x7 ADD SWAP1 JUMP JUMPDEST SWAP1 DUP2 MSTORE PUSH1 0x40 DUP1 MLOAD PUSH1 0x20 SWAP3 DUP2 SWAP1 SUB DUP4 ADD DUP2 KECCAK256 SWAP4 SWAP1 SWAP4 SSTORE PUSH2 0x120 DUP4 ADD DUP2 MSTORE PUSH1 0x8 PUSH1 0xE0 DUP5 ADD SWAP1 DUP2 MSTORE PUSH8 0x383934BB283937BB PUSH1 0xC1 SHL PUSH2 0x100 DUP6 ADD MSTORE DUP4 MSTORE PUSH1 0x11 SLOAD PUSH1 0x1 PUSH1 0x1 PUSH1 0xA0 SHL SUB AND DUP3 DUP5 ADD DUP2 SWAP1 MSTORE PUSH1 0x0 DUP5 DUP4 ADD DUP2 SWAP1 MSTORE PUSH1 0x60 DUP6 ADD DUP2 SWAP1 MSTORE PUSH1 0x80 DUP6 ADD DUP2 SWAP1 MSTORE PUSH1 0x1 PUSH1 0xA0 DUP7 ADD MSTORE PUSH1 0x2 PUSH1 0xC0 DUP7 ADD MSTORE SWAP1 DUP2 MSTORE PUSH1 0x17 SWAP1 SWAP3 MSTORE SWAP1 KECCAK256 DUP2 MLOAD DUP2 SWAP1 PUSH3 0x6A5 SWAP1 DUP3 PUSH3 0x119F JUMP JUMPDEST POP PUSH1 0x20 DUP3 ADD MLOAD PUSH1 0x1 DUP3 ADD DUP1 SLOAD PUSH1 0x1 PUSH1 0x1 PUSH1 0xA0 SHL SUB NOT AND PUSH1 0x1 PUSH1 0x1 PUSH1 0xA0 SHL SUB SWAP1 SWAP3 AND SWAP2 SWAP1 SWAP2 OR SWAP1 SSTORE PUSH1 0x40 DUP3 ADD MLOAD PUSH1 0x2 DUP3 ADD SSTORE PUSH1 0x60 DUP3 ADD MLOAD PUSH1 0x3 DUP1 DUP4 ADD SWAP2 SWAP1 SWAP2 SSTORE PUSH1 0x80 DUP4 ADD MLOAD PUSH1 0x4 DUP4 ADD SSTORE PUSH1 0xA0 DUP4 ADD MLOAD PUSH1 0x5 DUP4 ADD DUP1 SLOAD PUSH1 0xFF NOT DUP2 AND SWAP3 ISZERO ISZERO SWAP3 DUP4 OR DUP3 SSTORE PUSH1 0xC0 DUP7 ADD MLOAD SWAP4 SWAP2 SWAP3 PUSH2 0xFFFF NOT SWAP1 SWAP2 AND PUSH2 0xFF00 NOT SWAP1 SWAP2 AND OR SWAP1 PUSH2 0x100 SWAP1 DUP5 SWAP1 DUP2 GT ISZERO PUSH3 0x736 JUMPI PUSH3 0x736 PUSH3 0x12A8 JUMP JUMPDEST MUL OR SWAP1 SSTORE POP POP PUSH1 0x11 SLOAD PUSH1 0x40 MLOAD PUSH8 0x383934BB283937BB PUSH1 0xC1 SHL DUP2 MSTORE PUSH1 0x1 PUSH1 0x1 PUSH1 0xA0 SHL SUB SWAP1 SWAP2 AND SWAP2 POP PUSH1 0x16 SWAP1 PUSH1 0x8 ADD SWAP1 DUP2 MSTORE PUSH1 0x40 DUP1 MLOAD PUSH1 0x20 SWAP3 DUP2 SWAP1 SUB DUP4 ADD DUP2 KECCAK256 DUP1 SLOAD PUSH1 0x1 PUSH1 0x1 PUSH1 0xA0 SHL SUB NOT AND PUSH1 0x1 PUSH1 0x1 PUSH1 0xA0 SHL SUB SWAP6 SWAP1 SWAP6 AND SWAP5 SWAP1 SWAP5 OR SWAP1 SWAP4 SSTORE DUP2 DUP4 ADD SWAP2 SWAP1 SWAP2 MSTORE PUSH1 0x3 SWAP1 DUP3 ADD MSTORE PUSH3 0x313233 PUSH1 0xE8 SHL PUSH1 0x60 DUP3 ADD MSTORE PUSH1 0x80 ADD PUSH1 0x40 MLOAD PUSH1 0x20 DUP2 DUP4 SUB SUB DUP2 MSTORE SWAP1 PUSH1 0x40 MSTORE DUP1 MLOAD SWAP1 PUSH1 0x20 ADD KECCAK256 PUSH1 0x18 PUSH1 0x40 MLOAD PUSH3 0x7E3 SWAP1 PUSH8 0x383934BB283937BB PUSH1 0xC1 SHL DUP2 MSTORE PUSH1 0x8 ADD SWAP1 JUMP JUMPDEST SWAP1 DUP2 MSTORE PUSH1 0x40 DUP1 MLOAD PUSH1 0x20 SWAP3 DUP2 SWAP1 SUB DUP4 ADD DUP2 KECCAK256 SWAP4 SWAP1 SWAP4 SSTORE PUSH2 0x120 DUP4 ADD DUP2 MSTORE PUSH1 0x4 PUSH1 0xE0 DUP5 ADD SWAP1 DUP2 MSTORE PUSH4 0x696E7631 PUSH1 0xE0 SHL PUSH2 0x100 DUP6 ADD MSTORE DUP4 MSTORE PUSH1 0x13 SLOAD PUSH1 0x1 PUSH1 0x1 PUSH1 0xA0 SHL SUB AND SWAP2 DUP4 ADD DUP3 SWAP1 MSTORE DUP3 ADD SWAP1 PUSH3 0x84D SWAP1 PUSH1 0x1 PUSH1 0x1 PUSH1 0xA0 SHL SUB AND PUSH1 0x0 SWAP1 DUP2 MSTORE PUSH1 0x20 DUP2 SWAP1 MSTORE PUSH1 0x40 SWAP1 KECCAK256 SLOAD SWAP1 JUMP JUMPDEST DUP2 MSTORE PUSH1 0x20 ADD PUSH1 0x0 DUP2 MSTORE PUSH1 0x20 ADD PUSH1 0x0 DUP2 MSTORE PUSH1 0x20 ADD PUSH1 0x0 ISZERO ISZERO DUP2 MSTORE PUSH1 0x20 ADD PUSH1 0x0 PUSH1 0x3 DUP2 GT ISZERO PUSH3 0x87F JUMPI PUSH3 0x87F PUSH3 0x12A8 JUMP JUMPDEST SWAP1 MSTORE PUSH1 0x13 SLOAD PUSH1 0x1 PUSH1 0x1 PUSH1 0xA0 SHL SUB AND PUSH1 0x0 SWAP1 DUP2 MSTORE PUSH1 0x17 PUSH1 0x20 MSTORE PUSH1 0x40 SWAP1 KECCAK256 DUP2 MLOAD DUP2 SWAP1 PUSH3 0x8AB SWAP1 DUP3 PUSH3 0x119F JUMP JUMPDEST POP PUSH1 0x20 DUP3 ADD MLOAD PUSH1 0x1 DUP3 ADD DUP1 SLOAD PUSH1 0x1 PUSH1 0x1 PUSH1 0xA0 SHL SUB NOT AND PUSH1 0x1 PUSH1 0x1 PUSH1 0xA0 SHL SUB SWAP1 SWAP3 AND SWAP2 SWAP1 SWAP2 OR SWAP1 SSTORE PUSH1 0x40 DUP3 ADD MLOAD PUSH1 0x2 DUP3 ADD SSTORE PUSH1 0x60 DUP3 ADD MLOAD PUSH1 0x3 DUP1 DUP4 ADD SWAP2 SWAP1 SWAP2 SSTORE PUSH1 0x80 DUP4 ADD MLOAD PUSH1 0x4 DUP4 ADD SSTORE PUSH1 0xA0 DUP4 ADD MLOAD PUSH1 0x5 DUP4 ADD DUP1 SLOAD PUSH1 0xFF NOT DUP2 AND SWAP3 ISZERO ISZERO SWAP3 DUP4 OR DUP3 SSTORE PUSH1 0xC0 DUP7 ADD MLOAD SWAP4 SWAP2 SWAP3 PUSH2 0xFFFF NOT SWAP1 SWAP2 AND PUSH2 0xFF00 NOT SWAP1 SWAP2 AND OR SWAP1 PUSH2 0x100 SWAP1 DUP5 SWAP1 DUP2 GT ISZERO PUSH3 0x93C JUMPI PUSH3 0x93C PUSH3 0x12A8 JUMP JUMPDEST MUL OR SWAP1 SSTORE POP POP PUSH1 0x13 SLOAD PUSH1 0x40 MLOAD PUSH4 0x696E7631 PUSH1 0xE0 SHL DUP2 MSTORE PUSH1 0x1 PUSH1 0x1 PUSH1 0xA0 SHL SUB SWAP1 SWAP2 AND SWAP2 POP PUSH1 0x16 SWAP1 PUSH1 0x4 ADD SWAP1 DUP2 MSTORE PUSH1 0x40 DUP1 MLOAD PUSH1 0x20 SWAP3 DUP2 SWAP1 SUB DUP4 ADD DUP2 KECCAK256 DUP1 SLOAD PUSH1 0x1 PUSH1 0x1 PUSH1 0xA0 SHL SUB NOT AND PUSH1 0x1 PUSH1 0x1 PUSH1 0xA0 SHL SUB SWAP6 SWAP1 SWAP6 AND SWAP5 SWAP1 SWAP5 OR SWAP1 SWAP4 SSTORE DUP2 DUP4 ADD SWAP2 SWAP1 SWAP2 MSTORE PUSH1 0x3 SWAP1 DUP3 ADD MSTORE PUSH3 0x313233 PUSH1 0xE8 SHL PUSH1 0x60 DUP3 ADD MSTORE PUSH1 0x80 ADD PUSH1 0x40 MLOAD PUSH1 0x20 DUP2 DUP4 SUB SUB DUP2 MSTORE SWAP1 PUSH1 0x40 MSTORE DUP1 MLOAD SWAP1 PUSH1 0x20 ADD KECCAK256 PUSH1 0x18 PUSH1 0x40 MLOAD PUSH3 0x9E1 SWAP1 PUSH4 0x696E7631 PUSH1 0xE0 SHL DUP2 MSTORE PUSH1 0x4 ADD SWAP1 JUMP JUMPDEST SWAP1 DUP2 MSTORE PUSH1 0x40 DUP1 MLOAD PUSH1 0x20 SWAP3 DUP2 SWAP1 SUB DUP4 ADD DUP2 KECCAK256 SWAP4 SWAP1 SWAP4 SSTORE PUSH2 0x120 DUP4 ADD DUP2 MSTORE PUSH1 0x4 PUSH1 0xE0 DUP5 ADD SWAP1 DUP2 MSTORE PUSH4 0x34B73B19 PUSH1 0xE1 SHL PUSH2 0x100 DUP6 ADD MSTORE DUP4 MSTORE PUSH1 0x14 SLOAD PUSH1 0x1 PUSH1 0x1 PUSH1 0xA0 SHL SUB AND SWAP2 DUP4 ADD DUP3 SWAP1 MSTORE DUP3 ADD SWAP1 PUSH3 0xA4B SWAP1 PUSH1 0x1 PUSH1 0x1 PUSH1 0xA0 SHL SUB AND PUSH1 0x0 SWAP1 DUP2 MSTORE PUSH1 0x20 DUP2 SWAP1 MSTORE PUSH1 0x40 SWAP1 KECCAK256 SLOAD SWAP1 JUMP JUMPDEST DUP2 MSTORE PUSH1 0x20 ADD PUSH1 0x0 DUP2 MSTORE PUSH1 0x20 ADD PUSH1 0x0 DUP2 MSTORE PUSH1 0x20 ADD PUSH1 0x0 ISZERO ISZERO DUP2 MSTORE PUSH1 0x20 ADD PUSH1 0x0 PUSH1 0x3 DUP2 GT ISZERO PUSH3 0xA7D JUMPI PUSH3 0xA7D PUSH3 0x12A8 JUMP JUMPDEST SWAP1 MSTORE PUSH1 0x14 SLOAD PUSH1 0x1 PUSH1 0x1 PUSH1 0xA0 SHL SUB AND PUSH1 0x0 SWAP1 DUP2 MSTORE PUSH1 0x17 PUSH1 0x20 MSTORE PUSH1 0x40 SWAP1 KECCAK256 DUP2 MLOAD DUP2 SWAP1 PUSH3 0xAA9 SWAP1 DUP3 PUSH3 0x119F JUMP JUMPDEST POP PUSH1 0x20 DUP3 ADD MLOAD PUSH1 0x1 DUP3 ADD DUP1 SLOAD PUSH1 0x1 PUSH1 0x1 PUSH1 0xA0 SHL SUB NOT AND PUSH1 0x1 PUSH1 0x1 PUSH1 0xA0 SHL SUB SWAP1 SWAP3 AND SWAP2 SWAP1 SWAP2 OR SWAP1 SSTORE PUSH1 0x40 DUP3 ADD MLOAD PUSH1 0x2 DUP3 ADD SSTORE PUSH1 0x60 DUP3 ADD MLOAD PUSH1 0x3 DUP1 DUP4 ADD SWAP2 SWAP1 SWAP2 SSTORE PUSH1 0x80 DUP4 ADD MLOAD PUSH1 0x4 DUP4 ADD SSTORE PUSH1 0xA0 DUP4 ADD MLOAD PUSH1 0x5 DUP4 ADD DUP1 SLOAD PUSH1 0xFF NOT DUP2 AND SWAP3 ISZERO ISZERO SWAP3 DUP4 OR DUP3 SSTORE PUSH1 0xC0 DUP7 ADD MLOAD SWAP4 SWAP2 SWAP3 PUSH2 0xFFFF NOT SWAP1 SWAP2 AND PUSH2 0xFF00 NOT SWAP1 SWAP2 AND OR SWAP1 PUSH2 0x100 SWAP1 DUP5 SWAP1 DUP2 GT ISZERO PUSH3 0xB3A JUMPI PUSH3 0xB3A PUSH3 0x12A8 JUMP JUMPDEST MUL OR SWAP1 SSTORE POP POP PUSH1 0x14 SLOAD PUSH1 0x40 MLOAD PUSH4 0x34B73B19 PUSH1 0xE1 SHL DUP2 MSTORE PUSH1 0x1 PUSH1 0x1 PUSH1 0xA0 SHL SUB SWAP1 SWAP2 AND SWAP2 POP PUSH1 0x16 SWAP1 PUSH1 0x4 ADD SWAP1 DUP2 MSTORE PUSH1 0x40 DUP1 MLOAD PUSH1 0x20 SWAP3 DUP2 SWAP1 SUB DUP4 ADD DUP2 KECCAK256 DUP1 SLOAD PUSH1 0x1 PUSH1 0x1 PUSH1 0xA0 SHL SUB NOT AND PUSH1 0x1 PUSH1 0x1 PUSH1 0xA0 SHL SUB SWAP6 SWAP1 SWAP6 AND SWAP5 SWAP1 SWAP5 OR SWAP1 SWAP4 SSTORE DUP2 DUP4 ADD SWAP2 SWAP1 SWAP2 MSTORE PUSH1 0x3 SWAP1 DUP3 ADD MSTORE PUSH3 0x313233 PUSH1 0xE8 SHL PUSH1 0x60 DUP3 ADD MSTORE PUSH1 0x80 ADD PUSH1 0x40 MLOAD PUSH1 0x20 DUP2 DUP4 SUB SUB DUP2 MSTORE SWAP1 PUSH1 0x40 MSTORE DUP1 MLOAD SWAP1 PUSH1 0x20 ADD KECCAK256 PUSH1 0x18 PUSH1 0x40 MLOAD PUSH3 0xBDF SWAP1 PUSH4 0x34B73B19 PUSH1 0xE1 SHL DUP2 MSTORE PUSH1 0x4 ADD SWAP1 JUMP JUMPDEST SWAP1 DUP2 MSTORE PUSH1 0x40 DUP1 MLOAD PUSH1 0x20 SWAP3 DUP2 SWAP1 SUB DUP4 ADD DUP2 KECCAK256 SWAP4 SWAP1 SWAP4 SSTORE PUSH2 0x120 DUP4 ADD DUP2 MSTORE PUSH1 0x2 PUSH1 0xE0 DUP5 ADD SWAP1 DUP2 MSTORE PUSH2 0x3133 PUSH1 0xF1 SHL PUSH2 0x100 DUP6 ADD MSTORE DUP4 MSTORE PUSH1 0x15 SLOAD PUSH1 0x1 PUSH1 0x1 PUSH1 0xA0 SHL SUB AND SWAP2 DUP4 ADD DUP3 SWAP1 MSTORE DUP3 ADD SWAP1 PUSH3 0xC47 SWAP1 PUSH1 0x1 PUSH1 0x1 PUSH1 0xA0 SHL SUB AND PUSH1 0x0 SWAP1 DUP2 MSTORE PUSH1 0x20 DUP2 SWAP1 MSTORE PUSH1 0x40 SWAP1 KECCAK256 SLOAD SWAP1 JUMP JUMPDEST DUP2 MSTORE PUSH1 0x20 ADD PUSH1 0x0 DUP2 MSTORE PUSH1 0x20 ADD PUSH1 0x0 DUP2 MSTORE PUSH1 0x20 ADD PUSH1 0x0 ISZERO ISZERO DUP2 MSTORE PUSH1 0x20 ADD PUSH1 0x0 PUSH1 0x3 DUP2 GT ISZERO PUSH3 0xC79 JUMPI PUSH3 0xC79 PUSH3 0x12A8 JUMP JUMPDEST SWAP1 MSTORE PUSH1 0x15 SLOAD PUSH1 0x1 PUSH1 0x1 PUSH1 0xA0 SHL SUB AND PUSH1 0x0 SWAP1 DUP2 MSTORE PUSH1 0x17 PUSH1 0x20 MSTORE PUSH1 0x40 SWAP1 KECCAK256 DUP2 MLOAD DUP2 SWAP1 PUSH3 0xCA5 SWAP1 DUP3 PUSH3 0x119F JUMP JUMPDEST POP PUSH1 0x20 DUP3 ADD MLOAD PUSH1 0x1 DUP3 ADD DUP1 SLOAD PUSH1 0x1 PUSH1 0x1 PUSH1 0xA0 SHL SUB NOT AND PUSH1 0x1 PUSH1 0x1 PUSH1 0xA0 SHL SUB SWAP1 SWAP3 AND SWAP2 SWAP1 SWAP2 OR SWAP1 SSTORE PUSH1 0x40 DUP3 ADD MLOAD PUSH1 0x2 DUP3 ADD SSTORE PUSH1 0x60 DUP3 ADD MLOAD PUSH1 0x3 DUP1 DUP4 ADD SWAP2 SWAP1 SWAP2 SSTORE PUSH1 0x80 DUP4 ADD MLOAD PUSH1 0x4 DUP4 ADD SSTORE PUSH1 0xA0 DUP4 ADD MLOAD PUSH1 0x5 DUP4 ADD DUP1 SLOAD PUSH1 0xFF NOT DUP2 AND SWAP3 ISZERO ISZERO SWAP3 DUP4 OR DUP3 SSTORE PUSH1 0xC0 DUP7 ADD MLOAD SWAP4 SWAP2 SWAP3 PUSH2 0xFFFF NOT SWAP1 SWAP2 AND PUSH2 0xFF00 NOT SWAP1 SWAP2 AND OR SWAP1 PUSH2 0x100 SWAP1 DUP5 SWAP1 DUP2 GT ISZERO PUSH3 0xD36 JUMPI PUSH3 0xD36 PUSH3 0x12A8 JUMP JUMPDEST MUL OR SWAP1 SSTORE POP POP PUSH1 0x15 SLOAD PUSH1 0x40 MLOAD PUSH2 0x3133 PUSH1 0xF1 SHL DUP2 MSTORE PUSH1 0x1 PUSH1 0x1 PUSH1 0xA0 SHL SUB SWAP1 SWAP2 AND SWAP2 POP PUSH1 0x16 SWAP1 PUSH1 0x2 ADD SWAP1 DUP2 MSTORE PUSH1 0x40 DUP1 MLOAD PUSH1 0x20 SWAP3 DUP2 SWAP1 SUB DUP4 ADD DUP2 KECCAK256 DUP1 SLOAD PUSH1 0x1 PUSH1 0x1 PUSH1 0xA0 SHL SUB NOT AND PUSH1 0x1 PUSH1 0x1 PUSH1 0xA0 SHL SUB SWAP6 SWAP1 SWAP6 AND SWAP5 SWAP1 SWAP5 OR SWAP1 SWAP4 SSTORE DUP2 DUP4 ADD SWAP2 SWAP1 SWAP2 MSTORE PUSH1 0x3 SWAP1 DUP3 ADD MSTORE PUSH3 0x313233 PUSH1 0xE8 SHL PUSH1 0x60 DUP3 ADD MSTORE PUSH1 0x80 ADD PUSH1 0x40 MLOAD PUSH1 0x20 DUP2 DUP4 SUB SUB DUP2 MSTORE SWAP1 PUSH1 0x40 MSTORE DUP1 MLOAD SWAP1 PUSH1 0x20 ADD KECCAK256 PUSH1 0x18 PUSH1 0x40 MLOAD PUSH3 0xDD7 SWAP1 PUSH2 0x3133 PUSH1 0xF1 SHL DUP2 MSTORE PUSH1 0x2 ADD SWAP1 JUMP JUMPDEST SWAP1 DUP2 MSTORE PUSH1 0x40 MLOAD SWAP1 DUP2 SWAP1 SUB PUSH1 0x20 ADD SWAP1 KECCAK256 SSTORE PUSH3 0x12D4 JUMP JUMPDEST PUSH1 0x1 PUSH1 0x1 PUSH1 0xA0 SHL SUB DUP3 AND PUSH3 0xE1D JUMPI PUSH1 0x40 MLOAD PUSH4 0xEC442F05 PUSH1 0xE0 SHL DUP2 MSTORE PUSH1 0x0 PUSH1 0x4 DUP3 ADD MSTORE PUSH1 0x24 ADD JUMPDEST PUSH1 0x40 MLOAD DUP1 SWAP2 SUB SWAP1 REVERT JUMPDEST PUSH3 0xE2B PUSH1 0x0 DUP4 DUP4 PUSH3 0xE99 JUMP JUMPDEST POP POP JUMP JUMPDEST PUSH1 0x1 PUSH1 0x1 PUSH1 0xA0 SHL SUB DUP4 AND PUSH3 0xE5B JUMPI PUSH1 0x40 MLOAD PUSH4 0x4B637E8F PUSH1 0xE1 SHL DUP2 MSTORE PUSH1 0x0 PUSH1 0x4 DUP3 ADD MSTORE PUSH1 0x24 ADD PUSH3 0xE14 JUMP JUMPDEST PUSH1 0x1 PUSH1 0x1 PUSH1 0xA0 SHL SUB DUP3 AND PUSH3 0xE87 JUMPI PUSH1 0x40 MLOAD PUSH4 0xEC442F05 PUSH1 0xE0 SHL DUP2 MSTORE PUSH1 0x0 PUSH1 0x4 DUP3 ADD MSTORE PUSH1 0x24 ADD PUSH3 0xE14 JUMP JUMPDEST PUSH3 0xE94 DUP4 DUP4 DUP4 PUSH3 0xE99 JUMP JUMPDEST POP POP POP JUMP JUMPDEST PUSH1 0x1 PUSH1 0x1 PUSH1 0xA0 SHL SUB DUP4 AND PUSH3 0xEC8 JUMPI DUP1 PUSH1 0x2 PUSH1 0x0 DUP3 DUP3 SLOAD PUSH3 0xEBC SWAP2 SWAP1 PUSH3 0x12BE JUMP JUMPDEST SWAP1 SWAP2 SSTORE POP PUSH3 0xF3C SWAP1 POP JUMP JUMPDEST PUSH1 0x1 PUSH1 0x1 PUSH1 0xA0 SHL SUB DUP4 AND PUSH1 0x0 SWAP1 DUP2 MSTORE PUSH1 0x20 DUP2 SWAP1 MSTORE PUSH1 0x40 SWAP1 KECCAK256 SLOAD DUP2 DUP2 LT ISZERO PUSH3 0xF1D JUMPI PUSH1 0x40 MLOAD PUSH4 0x391434E3 PUSH1 0xE2 SHL DUP2 MSTORE PUSH1 0x1 PUSH1 0x1 PUSH1 0xA0 SHL SUB DUP6 AND PUSH1 0x4 DUP3 ADD MSTORE PUSH1 0x24 DUP2 ADD DUP3 SWAP1 MSTORE PUSH1 0x44 DUP2 ADD DUP4 SWAP1 MSTORE PUSH1 0x64 ADD PUSH3 0xE14 JUMP JUMPDEST PUSH1 0x1 PUSH1 0x1 PUSH1 0xA0 SHL SUB DUP5 AND PUSH1 0x0 SWAP1 DUP2 MSTORE PUSH1 0x20 DUP2 SWAP1 MSTORE PUSH1 0x40 SWAP1 KECCAK256 SWAP1 DUP3 SWAP1 SUB SWAP1 SSTORE JUMPDEST PUSH1 0x1 PUSH1 0x1 PUSH1 0xA0 SHL SUB DUP3 AND PUSH3 0xF5A JUMPI PUSH1 0x2 DUP1 SLOAD DUP3 SWAP1 SUB SWAP1 SSTORE PUSH3 0xF79 JUMP JUMPDEST PUSH1 0x1 PUSH1 0x1 PUSH1 0xA0 SHL SUB DUP3 AND PUSH1 0x0 SWAP1 DUP2 MSTORE PUSH1 0x20 DUP2 SWAP1 MSTORE PUSH1 0x40 SWAP1 KECCAK256 DUP1 SLOAD DUP3 ADD SWAP1 SSTORE JUMPDEST DUP2 PUSH1 0x1 PUSH1 0x1 PUSH1 0xA0 SHL SUB AND DUP4 PUSH1 0x1 PUSH1 0x1 PUSH1 0xA0 SHL SUB AND PUSH32 0xDDF252AD1BE2C89B69C2B068FC378DAA952BA7F163C4A11628F55A4DF523B3EF DUP4 PUSH1 0x40 MLOAD PUSH3 0xFBF SWAP2 DUP2 MSTORE PUSH1 0x20 ADD SWAP1 JUMP JUMPDEST PUSH1 0x40 MLOAD DUP1 SWAP2 SUB SWAP1 LOG3 POP POP POP JUMP JUMPDEST PUSH4 0x4E487B71 PUSH1 0xE0 SHL PUSH1 0x0 MSTORE PUSH1 0x11 PUSH1 0x4 MSTORE PUSH1 0x24 PUSH1 0x0 REVERT JUMPDEST PUSH1 0x1 DUP2 DUP2 JUMPDEST DUP1 DUP6 GT ISZERO PUSH3 0x1023 JUMPI DUP2 PUSH1 0x0 NOT DIV DUP3 GT ISZERO PUSH3 0x1007 JUMPI PUSH3 0x1007 PUSH3 0xFCC JUMP JUMPDEST DUP1 DUP6 AND ISZERO PUSH3 0x1015 JUMPI SWAP2 DUP2 MUL SWAP2 JUMPDEST SWAP4 DUP5 SHR SWAP4 SWAP1 DUP1 MUL SWAP1 PUSH3 0xFE7 JUMP JUMPDEST POP SWAP3 POP SWAP3 SWAP1 POP JUMP JUMPDEST PUSH1 0x0 DUP3 PUSH3 0x103C JUMPI POP PUSH1 0x1 PUSH3 0x10DB JUMP JUMPDEST DUP2 PUSH3 0x104B JUMPI POP PUSH1 0x0 PUSH3 0x10DB JUMP JUMPDEST DUP2 PUSH1 0x1 DUP2 EQ PUSH3 0x1064 JUMPI PUSH1 0x2 DUP2 EQ PUSH3 0x106F JUMPI PUSH3 0x108F JUMP JUMPDEST PUSH1 0x1 SWAP2 POP POP PUSH3 0x10DB JUMP JUMPDEST PUSH1 0xFF DUP5 GT ISZERO PUSH3 0x1083 JUMPI PUSH3 0x1083 PUSH3 0xFCC JUMP JUMPDEST POP POP PUSH1 0x1 DUP3 SHL PUSH3 0x10DB JUMP JUMPDEST POP PUSH1 0x20 DUP4 LT PUSH2 0x133 DUP4 LT AND PUSH1 0x4E DUP5 LT PUSH1 0xB DUP5 LT AND OR ISZERO PUSH3 0x10B4 JUMPI POP DUP2 DUP2 EXP PUSH3 0x10DB JUMP JUMPDEST PUSH3 0x10C0 DUP4 DUP4 PUSH3 0xFE2 JUMP JUMPDEST DUP1 PUSH1 0x0 NOT DIV DUP3 GT ISZERO PUSH3 0x10D7 JUMPI PUSH3 0x10D7 PUSH3 0xFCC JUMP JUMPDEST MUL SWAP1 POP JUMPDEST SWAP3 SWAP2 POP POP JUMP JUMPDEST PUSH1 0x0 PUSH3 0x10F2 PUSH1 0xFF DUP5 AND DUP4 PUSH3 0x102B JUMP JUMPDEST SWAP4 SWAP3 POP POP POP JUMP JUMPDEST PUSH4 0x4E487B71 PUSH1 0xE0 SHL PUSH1 0x0 MSTORE PUSH1 0x41 PUSH1 0x4 MSTORE PUSH1 0x24 PUSH1 0x0 REVERT JUMPDEST PUSH1 0x1 DUP2 DUP2 SHR SWAP1 DUP3 AND DUP1 PUSH3 0x1124 JUMPI PUSH1 0x7F DUP3 AND SWAP2 POP JUMPDEST PUSH1 0x20 DUP3 LT DUP2 SUB PUSH3 0x1145 JUMPI PUSH4 0x4E487B71 PUSH1 0xE0 SHL PUSH1 0x0 MSTORE PUSH1 0x22 PUSH1 0x4 MSTORE PUSH1 0x24 PUSH1 0x0 REVERT JUMPDEST POP SWAP2 SWAP1 POP JUMP JUMPDEST PUSH1 0x1F DUP3 GT ISZERO PUSH3 0xE94 JUMPI PUSH1 0x0 DUP2 PUSH1 0x0 MSTORE PUSH1 0x20 PUSH1 0x0 KECCAK256 PUSH1 0x1F DUP6 ADD PUSH1 0x5 SHR DUP2 ADD PUSH1 0x20 DUP7 LT ISZERO PUSH3 0x1176 JUMPI POP DUP1 JUMPDEST PUSH1 0x1F DUP6 ADD PUSH1 0x5 SHR DUP3 ADD SWAP2 POP JUMPDEST DUP2 DUP2 LT ISZERO PUSH3 0x1197 JUMPI DUP3 DUP2 SSTORE PUSH1 0x1 ADD PUSH3 0x1182 JUMP JUMPDEST POP POP POP POP POP POP JUMP JUMPDEST DUP2 MLOAD PUSH1 0x1 PUSH1 0x1 PUSH1 0x40 SHL SUB DUP2 GT ISZERO PUSH3 0x11BB JUMPI PUSH3 0x11BB PUSH3 0x10F9 JUMP JUMPDEST PUSH3 0x11D3 DUP2 PUSH3 0x11CC DUP5 SLOAD PUSH3 0x110F JUMP JUMPDEST DUP5 PUSH3 0x114B JUMP JUMPDEST PUSH1 0x20 DUP1 PUSH1 0x1F DUP4 GT PUSH1 0x1 DUP2 EQ PUSH3 0x120B JUMPI PUSH1 0x0 DUP5 ISZERO PUSH3 0x11F2 JUMPI POP DUP6 DUP4 ADD MLOAD JUMPDEST PUSH1 0x0 NOT PUSH1 0x3 DUP7 SWAP1 SHL SHR NOT AND PUSH1 0x1 DUP6 SWAP1 SHL OR DUP6 SSTORE PUSH3 0x1197 JUMP JUMPDEST PUSH1 0x0 DUP6 DUP2 MSTORE PUSH1 0x20 DUP2 KECCAK256 PUSH1 0x1F NOT DUP7 AND SWAP2 JUMPDEST DUP3 DUP2 LT ISZERO PUSH3 0x123C JUMPI DUP9 DUP7 ADD MLOAD DUP3 SSTORE SWAP5 DUP5 ADD SWAP5 PUSH1 0x1 SWAP1 SWAP2 ADD SWAP1 DUP5 ADD PUSH3 0x121B JUMP JUMPDEST POP DUP6 DUP3 LT ISZERO PUSH3 0x125B JUMPI DUP8 DUP6 ADD MLOAD PUSH1 0x0 NOT PUSH1 0x3 DUP9 SWAP1 SHL PUSH1 0xF8 AND SHR NOT AND DUP2 SSTORE JUMPDEST POP POP POP POP POP PUSH1 0x1 SWAP1 DUP2 SHL ADD SWAP1 SSTORE POP JUMP JUMPDEST DUP1 DUP3 MUL DUP2 ISZERO DUP3 DUP3 DIV DUP5 EQ OR PUSH3 0x10DB JUMPI PUSH3 0x10DB PUSH3 0xFCC JUMP JUMPDEST PUSH1 0x0 DUP3 PUSH3 0x12A3 JUMPI PUSH4 0x4E487B71 PUSH1 0xE0 SHL PUSH1 0x0 MSTORE PUSH1 0x12 PUSH1 0x4 MSTORE PUSH1 0x24 PUSH1 0x0 REVERT JUMPDEST POP DIV SWAP1 JUMP JUMPDEST PUSH4 0x4E487B71 PUSH1 0xE0 SHL PUSH1 0x0 MSTORE PUSH1 0x21 PUSH1 0x4 MSTORE PUSH1 0x24 PUSH1 0x0 REVERT JUMPDEST DUP1 DUP3 ADD DUP1 DUP3 GT ISZERO PUSH3 0x10DB JUMPI PUSH3 0x10DB PUSH3 0xFCC JUMP JUMPDEST PUSH2 0x34EA DUP1 PUSH3 0x12E4 PUSH1 0x0 CODECOPY PUSH1 0x0 RETURN INVALID PUSH1 0x80 PUSH1 0x40 MSTORE PUSH1 0x4 CALLDATASIZE LT PUSH2 0x1EE JUMPI PUSH1 0x0 CALLDATALOAD PUSH1 0xE0 SHR DUP1 PUSH4 0x95D89B41 GT PUSH2 0x10D JUMPI DUP1 PUSH4 0xD01F63F5 GT PUSH2 0xA0 JUMPI DUP1 PUSH4 0xE33DC59B GT PUSH2 0x6F JUMPI DUP1 PUSH4 0xE33DC59B EQ PUSH2 0x5B7 JUMPI DUP1 PUSH4 0xE4D69FBD EQ PUSH2 0x5D7 JUMPI DUP1 PUSH4 0xEEF0A913 EQ PUSH2 0x5EC JUMPI DUP1 PUSH4 0xEEF616E3 EQ PUSH2 0x601 JUMPI DUP1 PUSH4 0xFFC9896B EQ PUSH2 0x621 JUMPI PUSH1 0x0 DUP1 REVERT JUMPDEST DUP1 PUSH4 0xD01F63F5 EQ PUSH2 0x51A JUMPI DUP1 PUSH4 0xD0521743 EQ PUSH2 0x53C JUMPI DUP1 PUSH4 0xDD62ED3E EQ PUSH2 0x55C JUMPI DUP1 PUSH4 0xE0AF444C EQ PUSH2 0x5A2 JUMPI PUSH1 0x0 DUP1 REVERT JUMPDEST DUP1 PUSH4 0xA469A332 GT PUSH2 0xDC JUMPI DUP1 PUSH4 0xA469A332 EQ PUSH2 0x4A4 JUMPI DUP1 PUSH4 0xA9059CBB EQ PUSH2 0x4C4 JUMPI DUP1 PUSH4 0xCA44A81E EQ PUSH2 0x4E4 JUMPI DUP1 PUSH4 0xCE8AE9F3 EQ PUSH2 0x4FA JUMPI PUSH1 0x0 DUP1 REVERT JUMPDEST DUP1 PUSH4 0x95D89B41 EQ PUSH2 0x445 JUMPI DUP1 PUSH4 0x9AFAF794 EQ PUSH2 0x45A JUMPI DUP1 PUSH4 0x9D7E8D5F EQ PUSH2 0x46F JUMPI DUP1 PUSH4 0xA37337B3 EQ PUSH2 0x48F JUMPI PUSH1 0x0 DUP1 REVERT JUMPDEST DUP1 PUSH4 0x2E1FAF75 GT PUSH2 0x185 JUMPI DUP1 PUSH4 0x65A1456D GT PUSH2 0x154 JUMPI DUP1 PUSH4 0x65A1456D EQ PUSH2 0x3B9 JUMPI DUP1 PUSH4 0x6C834E9E EQ PUSH2 0x3D9 JUMPI DUP1 PUSH4 0x70A08231 EQ PUSH2 0x3F9 JUMPI DUP1 PUSH4 0x78E97925 EQ PUSH2 0x42F JUMPI PUSH1 0x0 DUP1 REVERT JUMPDEST DUP1 PUSH4 0x2E1FAF75 EQ PUSH2 0x348 JUMPI DUP1 PUSH4 0x313CE567 EQ PUSH2 0x368 JUMPI DUP1 PUSH4 0x4B94F50E EQ PUSH2 0x384 JUMPI DUP1 PUSH4 0x532970B1 EQ PUSH2 0x399 JUMPI PUSH1 0x0 DUP1 REVERT JUMPDEST DUP1 PUSH4 0x18160DDD GT PUSH2 0x1C1 JUMPI DUP1 PUSH4 0x18160DDD EQ PUSH2 0x2C7 JUMPI DUP1 PUSH4 0x23B872DD EQ PUSH2 0x2E6 JUMPI DUP1 PUSH4 0x2C162DBC EQ PUSH2 0x306 JUMPI DUP1 PUSH4 0x2D296BF1 EQ PUSH2 0x333 JUMPI PUSH1 0x0 DUP1 REVERT JUMPDEST DUP1 PUSH4 0x6FDDE03 EQ PUSH2 0x1F3 JUMPI DUP1 PUSH4 0x95EA7B3 EQ PUSH2 0x21E JUMPI DUP1 PUSH4 0x11C43B19 EQ PUSH2 0x24E JUMPI DUP1 PUSH4 0x12065FE0 EQ PUSH2 0x270 JUMPI JUMPDEST PUSH1 0x0 DUP1 REVERT JUMPDEST CALLVALUE DUP1 ISZERO PUSH2 0x1FF JUMPI PUSH1 0x0 DUP1 REVERT JUMPDEST POP PUSH2 0x208 PUSH2 0x641 JUMP JUMPDEST PUSH1 0x40 MLOAD PUSH2 0x215 SWAP2 SWAP1 PUSH2 0x2E3F JUMP JUMPDEST PUSH1 0x40 MLOAD DUP1 SWAP2 SUB SWAP1 RETURN JUMPDEST CALLVALUE DUP1 ISZERO PUSH2 0x22A JUMPI PUSH1 0x0 DUP1 REVERT JUMPDEST POP PUSH2 0x23E PUSH2 0x239 CALLDATASIZE PUSH1 0x4 PUSH2 0x2E70 JUMP JUMPDEST PUSH2 0x6D3 JUMP JUMPDEST PUSH1 0x40 MLOAD SWAP1 ISZERO ISZERO DUP2 MSTORE PUSH1 0x20 ADD PUSH2 0x215 JUMP JUMPDEST CALLVALUE DUP1 ISZERO PUSH2 0x25A JUMPI PUSH1 0x0 DUP1 REVERT JUMPDEST POP PUSH2 0x263 PUSH2 0x6ED JUMP JUMPDEST PUSH1 0x40 MLOAD PUSH2 0x215 SWAP2 SWAP1 PUSH2 0x2E9A JUMP JUMPDEST CALLVALUE DUP1 ISZERO PUSH2 0x27C JUMPI PUSH1 0x0 DUP1 REVERT JUMPDEST POP PUSH2 0x2A7 CALLER PUSH1 0x0 DUP2 DUP2 MSTORE PUSH1 0x17 PUSH1 0x20 MSTORE PUSH1 0x40 SWAP1 KECCAK256 PUSH1 0x2 DUP2 ADD SLOAD PUSH1 0x3 DUP3 ADD SLOAD PUSH1 0x4 SWAP1 SWAP3 ADD SLOAD SWAP3 BALANCE SWAP3 SWAP1 SWAP3 SWAP4 JUMP JUMPDEST PUSH1 0x40 DUP1 MLOAD SWAP5 DUP6 MSTORE PUSH1 0x20 DUP6 ADD SWAP4 SWAP1 SWAP4 MSTORE SWAP2 DUP4 ADD MSTORE PUSH1 0x60 DUP3 ADD MSTORE PUSH1 0x80 ADD PUSH2 0x215 JUMP JUMPDEST CALLVALUE DUP1 ISZERO PUSH2 0x2D3 JUMPI PUSH1 0x0 DUP1 REVERT JUMPDEST POP PUSH1 0x2 SLOAD JUMPDEST PUSH1 0x40 MLOAD SWAP1 DUP2 MSTORE PUSH1 0x20 ADD PUSH2 0x215 JUMP JUMPDEST CALLVALUE DUP1 ISZERO PUSH2 0x2F2 JUMPI PUSH1 0x0 DUP1 REVERT JUMPDEST POP PUSH2 0x23E PUSH2 0x301 CALLDATASIZE PUSH1 0x4 PUSH2 0x2F0A JUMP JUMPDEST PUSH2 0x77C JUMP JUMPDEST CALLVALUE DUP1 ISZERO PUSH2 0x312 JUMPI PUSH1 0x0 DUP1 REVERT JUMPDEST POP PUSH2 0x326 PUSH2 0x321 CALLDATASIZE PUSH1 0x4 PUSH2 0x2FE9 JUMP JUMPDEST PUSH2 0x7A0 JUMP JUMPDEST PUSH1 0x40 MLOAD PUSH2 0x215 SWAP2 SWAP1 PUSH2 0x3063 JUMP JUMPDEST PUSH2 0x346 PUSH2 0x341 CALLDATASIZE PUSH1 0x4 PUSH2 0x30F1 JUMP JUMPDEST PUSH2 0x9A4 JUMP JUMPDEST STOP JUMPDEST CALLVALUE DUP1 ISZERO PUSH2 0x354 JUMPI PUSH1 0x0 DUP1 REVERT JUMPDEST POP PUSH2 0x346 PUSH2 0x363 CALLDATASIZE PUSH1 0x4 PUSH2 0x310A JUMP JUMPDEST PUSH2 0xDCE JUMP JUMPDEST CALLVALUE DUP1 ISZERO PUSH2 0x374 JUMPI PUSH1 0x0 DUP1 REVERT JUMPDEST POP PUSH1 0x40 MLOAD PUSH1 0xC DUP2 MSTORE PUSH1 0x20 ADD PUSH2 0x215 JUMP JUMPDEST CALLVALUE DUP1 ISZERO PUSH2 0x390 JUMPI PUSH1 0x0 DUP1 REVERT JUMPDEST POP PUSH2 0x2D8 PUSH2 0x1110 JUMP JUMPDEST CALLVALUE DUP1 ISZERO PUSH2 0x3A5 JUMPI PUSH1 0x0 DUP1 REVERT JUMPDEST POP PUSH2 0x346 PUSH2 0x3B4 CALLDATASIZE PUSH1 0x4 PUSH2 0x313D JUMP JUMPDEST PUSH2 0x1156 JUMP JUMPDEST CALLVALUE DUP1 ISZERO PUSH2 0x3C5 JUMPI PUSH1 0x0 DUP1 REVERT JUMPDEST POP PUSH2 0x2D8 PUSH2 0x3D4 CALLDATASIZE PUSH1 0x4 PUSH2 0x3172 JUMP JUMPDEST PUSH2 0x13E0 JUMP JUMPDEST CALLVALUE DUP1 ISZERO PUSH2 0x3E5 JUMPI PUSH1 0x0 DUP1 REVERT JUMPDEST POP PUSH2 0x346 PUSH2 0x3F4 CALLDATASIZE PUSH1 0x4 PUSH2 0x30F1 JUMP JUMPDEST PUSH2 0x1453 JUMP JUMPDEST CALLVALUE DUP1 ISZERO PUSH2 0x405 JUMPI PUSH1 0x0 DUP1 REVERT JUMPDEST POP PUSH2 0x2D8 PUSH2 0x414 CALLDATASIZE PUSH1 0x4 PUSH2 0x3172 JUMP JUMPDEST PUSH1 0x1 PUSH1 0x1 PUSH1 0xA0 SHL SUB AND PUSH1 0x0 SWAP1 DUP2 MSTORE PUSH1 0x20 DUP2 SWAP1 MSTORE PUSH1 0x40 SWAP1 KECCAK256 SLOAD SWAP1 JUMP JUMPDEST CALLVALUE DUP1 ISZERO PUSH2 0x43B JUMPI PUSH1 0x0 DUP1 REVERT JUMPDEST POP PUSH2 0x2D8 PUSH1 0x5 SLOAD DUP2 JUMP JUMPDEST CALLVALUE DUP1 ISZERO PUSH2 0x451 JUMPI PUSH1 0x0 DUP1 REVERT JUMPDEST POP PUSH2 0x208 PUSH2 0x1692 JUMP JUMPDEST CALLVALUE DUP1 ISZERO PUSH2 0x466 JUMPI PUSH1 0x0 DUP1 REVERT JUMPDEST POP PUSH2 0x346 PUSH2 0x16A1 JUMP JUMPDEST CALLVALUE DUP1 ISZERO PUSH2 0x47B JUMPI PUSH1 0x0 DUP1 REVERT JUMPDEST POP PUSH2 0x346 PUSH2 0x48A CALLDATASIZE PUSH1 0x4 PUSH2 0x30F1 JUMP JUMPDEST PUSH2 0x17AC JUMP JUMPDEST CALLVALUE DUP1 ISZERO PUSH2 0x49B JUMPI PUSH1 0x0 DUP1 REVERT JUMPDEST POP PUSH2 0x2D8 PUSH2 0x17FE JUMP JUMPDEST CALLVALUE DUP1 ISZERO PUSH2 0x4B0 JUMPI PUSH1 0x0 DUP1 REVERT JUMPDEST POP PUSH2 0x346 PUSH2 0x4BF CALLDATASIZE PUSH1 0x4 PUSH2 0x2FE9 JUMP JUMPDEST PUSH2 0x1820 JUMP JUMPDEST CALLVALUE DUP1 ISZERO PUSH2 0x4D0 JUMPI PUSH1 0x0 DUP1 REVERT JUMPDEST POP PUSH2 0x23E PUSH2 0x4DF CALLDATASIZE PUSH1 0x4 PUSH2 0x2E70 JUMP JUMPDEST PUSH2 0x1AF9 JUMP JUMPDEST CALLVALUE DUP1 ISZERO PUSH2 0x4F0 JUMPI PUSH1 0x0 DUP1 REVERT JUMPDEST POP PUSH2 0x2D8 PUSH1 0xE SLOAD DUP2 JUMP JUMPDEST CALLVALUE DUP1 ISZERO PUSH2 0x506 JUMPI PUSH1 0x0 DUP1 REVERT JUMPDEST POP PUSH2 0x346 PUSH2 0x515 CALLDATASIZE PUSH1 0x4 PUSH2 0x2E70 JUMP JUMPDEST PUSH2 0x1B07 JUMP JUMPDEST CALLVALUE DUP1 ISZERO PUSH2 0x526 JUMPI PUSH1 0x0 DUP1 REVERT JUMPDEST POP PUSH2 0x52F PUSH2 0x1BED JUMP JUMPDEST PUSH1 0x40 MLOAD PUSH2 0x215 SWAP2 SWAP1 PUSH2 0x318D JUMP JUMPDEST CALLVALUE DUP1 ISZERO PUSH2 0x548 JUMPI PUSH1 0x0 DUP1 REVERT JUMPDEST POP PUSH2 0x346 PUSH2 0x557 CALLDATASIZE PUSH1 0x4 PUSH2 0x30F1 JUMP JUMPDEST PUSH2 0x1D59 JUMP JUMPDEST CALLVALUE DUP1 ISZERO PUSH2 0x568 JUMPI PUSH1 0x0 DUP1 REVERT JUMPDEST POP PUSH2 0x2D8 PUSH2 0x577 CALLDATASIZE PUSH1 0x4 PUSH2 0x321B JUMP JUMPDEST PUSH1 0x1 PUSH1 0x1 PUSH1 0xA0 SHL SUB SWAP2 DUP3 AND PUSH1 0x0 SWAP1 DUP2 MSTORE PUSH1 0x1 PUSH1 0x20 SWAP1 DUP2 MSTORE PUSH1 0x40 DUP1 DUP4 KECCAK256 SWAP4 SWAP1 SWAP5 AND DUP3 MSTORE SWAP2 SWAP1 SWAP2 MSTORE KECCAK256 SLOAD SWAP1 JUMP JUMPDEST CALLVALUE DUP1 ISZERO PUSH2 0x5AE JUMPI PUSH1 0x0 DUP1 REVERT JUMPDEST POP PUSH2 0x52F PUSH2 0x2266 JUMP JUMPDEST CALLVALUE DUP1 ISZERO PUSH2 0x5C3 JUMPI PUSH1 0x0 DUP1 REVERT JUMPDEST POP PUSH2 0x346 PUSH2 0x5D2 CALLDATASIZE PUSH1 0x4 PUSH2 0x310A JUMP JUMPDEST PUSH2 0x23C7 JUMP JUMPDEST CALLVALUE DUP1 ISZERO PUSH2 0x5E3 JUMPI PUSH1 0x0 DUP1 REVERT JUMPDEST POP PUSH2 0x346 PUSH2 0x2647 JUMP JUMPDEST CALLVALUE DUP1 ISZERO PUSH2 0x5F8 JUMPI PUSH1 0x0 DUP1 REVERT JUMPDEST POP PUSH2 0x346 PUSH2 0x2661 JUMP JUMPDEST CALLVALUE DUP1 ISZERO PUSH2 0x60D JUMPI PUSH1 0x0 DUP1 REVERT JUMPDEST POP PUSH2 0x2D8 PUSH2 0x61C CALLDATASIZE PUSH1 0x4 PUSH2 0x3172 JUMP JUMPDEST PUSH2 0x2968 JUMP JUMPDEST CALLVALUE DUP1 ISZERO PUSH2 0x62D JUMPI PUSH1 0x0 DUP1 REVERT JUMPDEST POP PUSH2 0x326 PUSH2 0x63C CALLDATASIZE PUSH1 0x4 PUSH2 0x3172 JUMP JUMPDEST PUSH2 0x29D6 JUMP JUMPDEST PUSH1 0x60 PUSH1 0x3 DUP1 SLOAD PUSH2 0x650 SWAP1 PUSH2 0x324E JUMP JUMPDEST DUP1 PUSH1 0x1F ADD PUSH1 0x20 DUP1 SWAP2 DIV MUL PUSH1 0x20 ADD PUSH1 0x40 MLOAD SWAP1 DUP2 ADD PUSH1 0x40 MSTORE DUP1 SWAP3 SWAP2 SWAP1 DUP2 DUP2 MSTORE PUSH1 0x20 ADD DUP3 DUP1 SLOAD PUSH2 0x67C SWAP1 PUSH2 0x324E JUMP JUMPDEST DUP1 ISZERO PUSH2 0x6C9 JUMPI DUP1 PUSH1 0x1F LT PUSH2 0x69E JUMPI PUSH2 0x100 DUP1 DUP4 SLOAD DIV MUL DUP4 MSTORE SWAP2 PUSH1 0x20 ADD SWAP2 PUSH2 0x6C9 JUMP JUMPDEST DUP3 ADD SWAP2 SWAP1 PUSH1 0x0 MSTORE PUSH1 0x20 PUSH1 0x0 KECCAK256 SWAP1 JUMPDEST DUP2 SLOAD DUP2 MSTORE SWAP1 PUSH1 0x1 ADD SWAP1 PUSH1 0x20 ADD DUP1 DUP4 GT PUSH2 0x6AC JUMPI DUP3 SWAP1 SUB PUSH1 0x1F AND DUP3 ADD SWAP2 JUMPDEST POP POP POP POP POP SWAP1 POP SWAP1 JUMP JUMPDEST PUSH1 0x0 CALLER PUSH2 0x6E1 DUP2 DUP6 DUP6 PUSH2 0x2A5C JUMP JUMPDEST PUSH1 0x1 SWAP2 POP POP JUMPDEST SWAP3 SWAP2 POP POP JUMP JUMPDEST PUSH1 0x60 PUSH1 0x1B DUP1 SLOAD DUP1 PUSH1 0x20 MUL PUSH1 0x20 ADD PUSH1 0x40 MLOAD SWAP1 DUP2 ADD PUSH1 0x40 MSTORE DUP1 SWAP3 SWAP2 SWAP1 DUP2 DUP2 MSTORE PUSH1 0x20 ADD PUSH1 0x0 SWAP1 JUMPDEST DUP3 DUP3 LT ISZERO PUSH2 0x773 JUMPI PUSH1 0x0 DUP5 DUP2 MSTORE PUSH1 0x20 SWAP1 DUP2 SWAP1 KECCAK256 PUSH1 0x40 DUP1 MLOAD PUSH1 0x80 DUP2 ADD DUP3 MSTORE PUSH1 0x4 DUP7 MUL SWAP1 SWAP3 ADD DUP1 SLOAD PUSH1 0x1 PUSH1 0x1 PUSH1 0xA0 SHL SUB SWAP1 DUP2 AND DUP5 MSTORE PUSH1 0x1 DUP1 DUP4 ADD SLOAD SWAP1 SWAP2 AND DUP5 DUP7 ADD MSTORE PUSH1 0x2 DUP3 ADD SLOAD SWAP3 DUP5 ADD SWAP3 SWAP1 SWAP3 MSTORE PUSH1 0x3 ADD SLOAD PUSH1 0x60 DUP4 ADD MSTORE SWAP1 DUP4 MSTORE SWAP1 SWAP3 ADD SWAP2 ADD PUSH2 0x711 JUMP JUMPDEST POP POP POP POP SWAP1 POP SWAP1 JUMP JUMPDEST PUSH1 0x0 CALLER PUSH2 0x78A DUP6 DUP3 DUP6 PUSH2 0x2A69 JUMP JUMPDEST PUSH2 0x795 DUP6 DUP6 DUP6 PUSH2 0x2AE7 JUMP JUMPDEST POP PUSH1 0x1 SWAP5 SWAP4 POP POP POP POP JUMP JUMPDEST PUSH2 0x7A8 PUSH2 0x2D45 JUMP JUMPDEST DUP2 PUSH1 0x40 MLOAD PUSH1 0x20 ADD PUSH2 0x7B9 SWAP2 SWAP1 PUSH2 0x2E3F JUMP JUMPDEST PUSH1 0x40 MLOAD PUSH1 0x20 DUP2 DUP4 SUB SUB DUP2 MSTORE SWAP1 PUSH1 0x40 MSTORE DUP1 MLOAD SWAP1 PUSH1 0x20 ADD KECCAK256 PUSH1 0x18 DUP5 PUSH1 0x40 MLOAD PUSH2 0x7DF SWAP2 SWAP1 PUSH2 0x3282 JUMP JUMPDEST SWAP1 DUP2 MSTORE PUSH1 0x20 ADD PUSH1 0x40 MLOAD DUP1 SWAP2 SUB SWAP1 KECCAK256 SLOAD EQ PUSH2 0x853 JUMPI PUSH1 0x40 MLOAD PUSH3 0x461BCD PUSH1 0xE5 SHL DUP2 MSTORE PUSH1 0x20 PUSH1 0x4 DUP3 ADD MSTORE PUSH1 0x2A PUSH1 0x24 DUP3 ADD MSTORE PUSH32 0xD09DD0B5D0B2D0B5D180D0BDD0BE20D0B2D0B2D0B5D0B4D0B5D0BDD18B20D0B4 PUSH1 0x44 DUP3 ADD MSTORE PUSH10 0xD0B0D0BDD0BDD18BD0B5 PUSH1 0xB0 SHL PUSH1 0x64 DUP3 ADD MSTORE PUSH1 0x84 ADD JUMPDEST PUSH1 0x40 MLOAD DUP1 SWAP2 SUB SWAP1 REVERT JUMPDEST PUSH1 0x17 PUSH1 0x0 PUSH1 0x16 DUP6 PUSH1 0x40 MLOAD PUSH2 0x867 SWAP2 SWAP1 PUSH2 0x3282 JUMP JUMPDEST SWAP1 DUP2 MSTORE PUSH1 0x40 DUP1 MLOAD PUSH1 0x20 SWAP3 DUP2 SWAP1 SUB DUP4 ADD SWAP1 KECCAK256 SLOAD PUSH1 0x1 PUSH1 0x1 PUSH1 0xA0 SHL SUB AND DUP4 MSTORE SWAP1 DUP3 ADD SWAP3 SWAP1 SWAP3 MSTORE DUP2 ADD PUSH1 0x0 KECCAK256 DUP2 MLOAD PUSH1 0xE0 DUP2 ADD SWAP1 SWAP3 MSTORE DUP1 SLOAD DUP3 SWAP1 DUP3 SWAP1 PUSH2 0x8A8 SWAP1 PUSH2 0x324E JUMP JUMPDEST DUP1 PUSH1 0x1F ADD PUSH1 0x20 DUP1 SWAP2 DIV MUL PUSH1 0x20 ADD PUSH1 0x40 MLOAD SWAP1 DUP2 ADD PUSH1 0x40 MSTORE DUP1 SWAP3 SWAP2 SWAP1 DUP2 DUP2 MSTORE PUSH1 0x20 ADD DUP3 DUP1 SLOAD PUSH2 0x8D4 SWAP1 PUSH2 0x324E JUMP JUMPDEST DUP1 ISZERO PUSH2 0x921 JUMPI DUP1 PUSH1 0x1F LT PUSH2 0x8F6 JUMPI PUSH2 0x100 DUP1 DUP4 SLOAD DIV MUL DUP4 MSTORE SWAP2 PUSH1 0x20 ADD SWAP2 PUSH2 0x921 JUMP JUMPDEST DUP3 ADD SWAP2 SWAP1 PUSH1 0x0 MSTORE PUSH1 0x20 PUSH1 0x0 KECCAK256 SWAP1 JUMPDEST DUP2 SLOAD DUP2 MSTORE SWAP1 PUSH1 0x1 ADD SWAP1 PUSH1 0x20 ADD DUP1 DUP4 GT PUSH2 0x904 JUMPI DUP3 SWAP1 SUB PUSH1 0x1F AND DUP3 ADD SWAP2 JUMPDEST POP POP POP SWAP2 DUP4 MSTORE POP POP PUSH1 0x1 DUP3 ADD SLOAD PUSH1 0x1 PUSH1 0x1 PUSH1 0xA0 SHL SUB AND PUSH1 0x20 DUP3 ADD MSTORE PUSH1 0x2 DUP3 ADD SLOAD PUSH1 0x40 DUP3 ADD MSTORE PUSH1 0x3 DUP1 DUP4 ADD SLOAD PUSH1 0x60 DUP4 ADD MSTORE PUSH1 0x4 DUP4 ADD SLOAD PUSH1 0x80 DUP4 ADD MSTORE PUSH1 0x5 DUP4 ADD SLOAD PUSH1 0xFF DUP1 DUP3 AND ISZERO ISZERO PUSH1 0xA0 DUP6 ADD MSTORE PUSH1 0xC0 SWAP1 SWAP4 ADD SWAP3 PUSH2 0x100 SWAP1 SWAP2 DIV AND SWAP1 DUP2 GT ISZERO PUSH2 0x989 JUMPI PUSH2 0x989 PUSH2 0x304D JUMP JUMPDEST PUSH1 0x3 DUP2 GT ISZERO PUSH2 0x99A JUMPI PUSH2 0x99A PUSH2 0x304D JUMP JUMPDEST SWAP1 MSTORE POP SWAP4 SWAP3 POP POP POP JUMP JUMPDEST PUSH1 0x0 PUSH2 0x9AE PUSH2 0x1110 JUMP JUMPDEST SWAP1 POP PUSH1 0xA SLOAD DUP2 SUB PUSH2 0xB4A JUMPI PUSH2 0x1388 PUSH1 0xB SLOAD DUP4 PUSH2 0x9CA SWAP2 SWAP1 PUSH2 0x32B4 JUMP JUMPDEST GT ISZERO PUSH2 0xA32 JUMPI PUSH1 0x40 MLOAD PUSH3 0x461BCD PUSH1 0xE5 SHL DUP2 MSTORE PUSH1 0x20 PUSH1 0x4 DUP3 ADD MSTORE PUSH1 0x31 PUSH1 0x24 DUP3 ADD MSTORE PUSH32 0xD09CD0B0D0BAD181D0B8D0BCD0B0D0BBD18CD0BDD0BED0B520D0BAD0BED0BB2D PUSH1 0x44 DUP3 ADD MSTORE PUSH17 0x6859685F1016901A971818181021A6A7A7 PUSH1 0x79 SHL PUSH1 0x64 DUP3 ADD MSTORE PUSH1 0x84 ADD PUSH2 0x84A JUMP JUMPDEST DUP1 PUSH1 0xB SLOAD DUP4 PUSH2 0xA41 SWAP2 SWAP1 PUSH2 0x32B4 JUMP JUMPDEST PUSH2 0xA4B SWAP2 SWAP1 PUSH2 0x32D6 JUMP JUMPDEST CALLVALUE LT ISZERO PUSH2 0xA9A JUMPI PUSH1 0x40 MLOAD PUSH3 0x461BCD PUSH1 0xE5 SHL DUP2 MSTORE PUSH1 0x20 PUSH1 0x4 DUP3 ADD MSTORE PUSH1 0x1C PUSH1 0x24 DUP3 ADD MSTORE PUSH32 0xD09DD0B5D0B4D0BED181D182D0B0D182D0BED187D0BDD0BE2045544800000000 PUSH1 0x44 DUP3 ADD MSTORE PUSH1 0x64 ADD PUSH2 0x84A JUMP JUMPDEST PUSH1 0x10 SLOAD PUSH1 0x40 MLOAD PUSH1 0x1 PUSH1 0x1 PUSH1 0xA0 SHL SUB SWAP1 SWAP2 AND SWAP1 CALLVALUE DUP1 ISZERO PUSH2 0x8FC MUL SWAP2 PUSH1 0x0 DUP2 DUP2 DUP2 DUP6 DUP9 DUP9 CALL SWAP4 POP POP POP POP ISZERO DUP1 ISZERO PUSH2 0xAD3 JUMPI RETURNDATASIZE PUSH1 0x0 DUP1 RETURNDATACOPY RETURNDATASIZE PUSH1 0x0 REVERT JUMPDEST POP PUSH1 0x12 SLOAD PUSH2 0xAEB SWAP1 PUSH1 0x1 PUSH1 0x1 PUSH1 0xA0 SHL SUB AND CALLER DUP5 PUSH2 0x2AE7 JUMP JUMPDEST CALLER PUSH1 0x0 SWAP1 DUP2 MSTORE PUSH1 0x17 PUSH1 0x20 MSTORE PUSH1 0x40 DUP2 KECCAK256 PUSH1 0x4 ADD DUP1 SLOAD DUP5 SWAP3 SWAP1 PUSH2 0xB0D SWAP1 DUP5 SWAP1 PUSH2 0x32ED JUMP JUMPDEST SWAP1 SWAP2 SSTORE POP POP PUSH1 0x12 SLOAD PUSH1 0x1 PUSH1 0x1 PUSH1 0xA0 SHL SUB AND PUSH1 0x0 SWAP1 DUP2 MSTORE PUSH1 0x17 PUSH1 0x20 MSTORE PUSH1 0x40 DUP2 KECCAK256 PUSH1 0x4 ADD DUP1 SLOAD DUP5 SWAP3 SWAP1 PUSH2 0xB3F SWAP1 DUP5 SWAP1 PUSH2 0x3300 JUMP JUMPDEST SWAP1 SWAP2 SSTORE POP PUSH2 0xDCA SWAP1 POP JUMP JUMPDEST PUSH1 0x9 SLOAD DUP2 SUB PUSH2 0xD36 JUMPI CALLER PUSH1 0x0 SWAP1 DUP2 MSTORE PUSH1 0x17 PUSH1 0x20 MSTORE PUSH1 0x40 SWAP1 KECCAK256 PUSH1 0x5 ADD SLOAD PUSH1 0xFF AND PUSH2 0xBAD JUMPI PUSH1 0x40 MLOAD PUSH3 0x461BCD PUSH1 0xE5 SHL DUP2 MSTORE PUSH1 0x20 PUSH1 0x4 DUP3 ADD MSTORE PUSH1 0x15 PUSH1 0x24 DUP3 ADD MSTORE PUSH21 0x119C9959481CD85B19481B9BDD081CDD185C9D1959 PUSH1 0x5A SHL PUSH1 0x44 DUP3 ADD MSTORE PUSH1 0x64 ADD PUSH2 0x84A JUMP JUMPDEST PUSH3 0x186A0 PUSH1 0xB SLOAD DUP4 PUSH2 0xBBF SWAP2 SWAP1 PUSH2 0x32B4 JUMP JUMPDEST GT ISZERO PUSH2 0xC29 JUMPI PUSH1 0x40 MLOAD PUSH3 0x461BCD PUSH1 0xE5 SHL DUP2 MSTORE PUSH1 0x20 PUSH1 0x4 DUP3 ADD MSTORE PUSH1 0x33 PUSH1 0x24 DUP3 ADD MSTORE PUSH32 0xD09CD0B0D0BAD181D0B8D0BCD0B0D0BBD18CD0BDD0BED0B520D0BAD0BED0BB2D PUSH1 0x44 DUP3 ADD MSTORE PUSH19 0x6859685F101690189818171818181021A6A7A7 PUSH1 0x69 SHL PUSH1 0x64 DUP3 ADD MSTORE PUSH1 0x84 ADD PUSH2 0x84A JUMP JUMPDEST DUP1 PUSH1 0xB SLOAD DUP4 PUSH2 0xC38 SWAP2 SWAP1 PUSH2 0x32B4 JUMP JUMPDEST PUSH2 0xC42 SWAP2 SWAP1 PUSH2 0x32D6 JUMP JUMPDEST CALLVALUE LT ISZERO PUSH2 0xC91 JUMPI PUSH1 0x40 MLOAD PUSH3 0x461BCD PUSH1 0xE5 SHL DUP2 MSTORE PUSH1 0x20 PUSH1 0x4 DUP3 ADD MSTORE PUSH1 0x1C PUSH1 0x24 DUP3 ADD MSTORE PUSH32 0xD09DD0B5D0B4D0BED181D182D0B0D182D0BED187D0BDD0BE2045544800000000 PUSH1 0x44 DUP3 ADD MSTORE PUSH1 0x64 ADD PUSH2 0x84A JUMP JUMPDEST PUSH1 0x10 SLOAD PUSH1 0x40 MLOAD PUSH1 0x1 PUSH1 0x1 PUSH1 0xA0 SHL SUB SWAP1 SWAP2 AND SWAP1 CALLVALUE DUP1 ISZERO PUSH2 0x8FC MUL SWAP2 PUSH1 0x0 DUP2 DUP2 DUP2 DUP6 DUP9 DUP9 CALL SWAP4 POP POP POP POP ISZERO DUP1 ISZERO PUSH2 0xCCA JUMPI RETURNDATASIZE PUSH1 0x0 DUP1 RETURNDATACOPY RETURNDATASIZE PUSH1 0x0 REVERT JUMPDEST POP PUSH1 0x11 SLOAD PUSH2 0xCE2 SWAP1 PUSH1 0x1 PUSH1 0x1 PUSH1 0xA0 SHL SUB AND CALLER DUP5 PUSH2 0x2AE7 JUMP JUMPDEST CALLER PUSH1 0x0 SWAP1 DUP2 MSTORE PUSH1 0x17 PUSH1 0x20 MSTORE PUSH1 0x40 DUP2 KECCAK256 PUSH1 0x3 ADD DUP1 SLOAD DUP5 SWAP3 SWAP1 PUSH2 0xD04 SWAP1 DUP5 SWAP1 PUSH2 0x32ED JUMP JUMPDEST SWAP1 SWAP2 SSTORE POP POP PUSH1 0x11 SLOAD PUSH1 0x1 PUSH1 0x1 PUSH1 0xA0 SHL SUB AND PUSH1 0x0 SWAP1 DUP2 MSTORE PUSH1 0x17 PUSH1 0x20 MSTORE PUSH1 0x40 DUP2 KECCAK256 PUSH1 0x3 ADD DUP1 SLOAD DUP5 SWAP3 SWAP1 PUSH2 0xB3F SWAP1 DUP5 SWAP1 PUSH2 0x3300 JUMP JUMPDEST PUSH1 0x40 MLOAD PUSH3 0x461BCD PUSH1 0xE5 SHL DUP2 MSTORE PUSH1 0x20 PUSH1 0x4 DUP3 ADD MSTORE PUSH1 0x5C PUSH1 0x24 DUP3 ADD MSTORE PUSH32 0xD092D0BE20D0B2D180D0B5D0BCD18F20D0BFD0BED0B4D0B3D0BED182D0BED0B2 PUSH1 0x44 DUP3 ADD MSTORE PUSH32 0xD0B8D182D0B5D0BBD18CD0BDD0BED0B920D184D0B0D0B7D18B20D0BDD0B5D0BB PUSH1 0x64 DUP3 ADD MSTORE PUSH32 0xD18CD0B7D18F20D0BFD0BED0BAD183D0BFD0B0D182D18C20434D4F4E00000000 PUSH1 0x84 DUP3 ADD MSTORE PUSH1 0xA4 ADD PUSH2 0x84A JUMP JUMPDEST POP POP JUMP JUMPDEST PUSH1 0x10 SLOAD PUSH1 0x1 PUSH1 0x1 PUSH1 0xA0 SHL SUB AND CALLER SUB PUSH2 0xE8E JUMPI DUP2 PUSH1 0xF SLOAD LT ISZERO PUSH2 0xE8E JUMPI PUSH1 0x40 MLOAD PUSH3 0x461BCD PUSH1 0xE5 SHL DUP2 MSTORE PUSH1 0x20 PUSH1 0x4 DUP3 ADD MSTORE PUSH1 0x67 PUSH1 0x24 DUP3 ADD MSTORE PUSH32 0xD092D18B20D0BDD0B520D0BCD0BED0B6D0B5D182D0B520D0B8D181D0BFD0BED0 PUSH1 0x44 DUP3 ADD MSTORE PUSH32 0xBBD18CD0B7D0BED0B2D0B0D182D18C20D182D0BED0BAD0B5D0BDD18B20D0B4D0 PUSH1 0x64 DUP3 ADD MSTORE PUSH32 0xBBD18F20D0B4D0B0D0BBD18CD0BDD0B5D0B9D188D0B5D0B920D0BFD180D0BED0 PUSH1 0x84 DUP3 ADD MSTORE PUSH7 0x169A161A16DA17 PUSH1 0xCB SHL PUSH1 0xA4 DUP3 ADD MSTORE PUSH1 0xC4 ADD PUSH2 0x84A JUMP JUMPDEST DUP1 PUSH1 0x1 SUB PUSH2 0xF6B JUMPI CALLER PUSH1 0x0 SWAP1 DUP2 MSTORE PUSH1 0x17 PUSH1 0x20 MSTORE PUSH1 0x40 SWAP1 KECCAK256 PUSH1 0x2 ADD SLOAD DUP3 GT ISZERO PUSH2 0xF03 JUMPI PUSH1 0x40 MLOAD PUSH3 0x461BCD PUSH1 0xE5 SHL DUP2 MSTORE PUSH1 0x20 PUSH1 0x4 DUP3 ADD MSTORE PUSH1 0x22 PUSH1 0x24 DUP3 ADD MSTORE PUSH32 0xD09DD0B5D0B4D0BED181D182D0B0D182D0BED187D0BDD0BE207365656420434D PUSH1 0x44 DUP3 ADD MSTORE PUSH2 0x27A7 PUSH1 0xF1 SHL PUSH1 0x64 DUP3 ADD MSTORE PUSH1 0x84 ADD PUSH2 0x84A JUMP JUMPDEST PUSH2 0xF0E CALLER DUP5 DUP5 PUSH2 0x2AE7 JUMP JUMPDEST CALLER PUSH1 0x0 SWAP1 DUP2 MSTORE PUSH1 0x17 PUSH1 0x20 MSTORE PUSH1 0x40 DUP2 KECCAK256 PUSH1 0x2 ADD DUP1 SLOAD DUP5 SWAP3 SWAP1 PUSH2 0xF30 SWAP1 DUP5 SWAP1 PUSH2 0x3300 JUMP JUMPDEST SWAP1 SWAP2 SSTORE POP POP PUSH1 0x1 PUSH1 0x1 PUSH1 0xA0 SHL SUB DUP4 AND PUSH1 0x0 SWAP1 DUP2 MSTORE PUSH1 0x17 PUSH1 0x20 MSTORE PUSH1 0x40 DUP2 KECCAK256 PUSH1 0x2 ADD DUP1 SLOAD DUP5 SWAP3 SWAP1 PUSH2 0xF60 SWAP1 DUP5 SWAP1 PUSH2 0x32ED JUMP JUMPDEST SWAP1 SWAP2 SSTORE POP PUSH2 0x10DD SWAP1 POP JUMP JUMPDEST DUP1 PUSH1 0x2 SUB PUSH2 0x1040 JUMPI CALLER PUSH1 0x0 SWAP1 DUP2 MSTORE PUSH1 0x17 PUSH1 0x20 MSTORE PUSH1 0x40 SWAP1 KECCAK256 PUSH1 0x3 ADD SLOAD DUP3 GT ISZERO PUSH2 0xFE3 JUMPI PUSH1 0x40 MLOAD PUSH3 0x461BCD PUSH1 0xE5 SHL DUP2 MSTORE PUSH1 0x20 PUSH1 0x4 DUP3 ADD MSTORE PUSH1 0x25 PUSH1 0x24 DUP3 ADD MSTORE PUSH32 0xD09DD0B5D0B4D0BED181D182D0B0D182D0BED187D0BDD0BE2070726976617465 PUSH1 0x44 DUP3 ADD MSTORE PUSH5 0x1021A6A7A7 PUSH1 0xD9 SHL PUSH1 0x64 DUP3 ADD MSTORE PUSH1 0x84 ADD PUSH2 0x84A JUMP JUMPDEST PUSH2 0xFEE CALLER DUP5 DUP5 PUSH2 0x2AE7 JUMP JUMPDEST CALLER PUSH1 0x0 SWAP1 DUP2 MSTORE PUSH1 0x17 PUSH1 0x20 MSTORE PUSH1 0x40 DUP2 KECCAK256 PUSH1 0x3 ADD DUP1 SLOAD DUP5 SWAP3 SWAP1 PUSH2 0x1010 SWAP1 DUP5 SWAP1 PUSH2 0x3300 JUMP JUMPDEST SWAP1 SWAP2 SSTORE POP POP PUSH1 0x1 PUSH1 0x1 PUSH1 0xA0 SHL SUB DUP4 AND PUSH1 0x0 SWAP1 DUP2 MSTORE PUSH1 0x17 PUSH1 0x20 MSTORE PUSH1 0x40 DUP2 KECCAK256 PUSH1 0x3 ADD DUP1 SLOAD DUP5 SWAP3 SWAP1 PUSH2 0xF60 SWAP1 DUP5 SWAP1 PUSH2 0x32ED JUMP JUMPDEST DUP1 PUSH1 0x3 SUB PUSH2 0x10DD JUMPI CALLER PUSH1 0x0 SWAP1 DUP2 MSTORE PUSH1 0x17 PUSH1 0x20 MSTORE PUSH1 0x40 SWAP1 KECCAK256 PUSH1 0x4 ADD SLOAD DUP3 GT ISZERO PUSH2 0x107A JUMPI PUSH1 0x40 MLOAD PUSH3 0x461BCD PUSH1 0xE5 SHL DUP2 MSTORE PUSH1 0x4 ADD PUSH2 0x84A SWAP1 PUSH2 0x3313 JUMP JUMPDEST PUSH2 0x1085 CALLER DUP5 DUP5 PUSH2 0x2AE7 JUMP JUMPDEST CALLER PUSH1 0x0 SWAP1 DUP2 MSTORE PUSH1 0x17 PUSH1 0x20 MSTORE PUSH1 0x40 DUP2 KECCAK256 PUSH1 0x4 ADD DUP1 SLOAD DUP5 SWAP3 SWAP1 PUSH2 0x10A7 SWAP1 DUP5 SWAP1 PUSH2 0x3300 JUMP JUMPDEST SWAP1 SWAP2 SSTORE POP POP PUSH1 0x1 PUSH1 0x1 PUSH1 0xA0 SHL SUB DUP4 AND PUSH1 0x0 SWAP1 DUP2 MSTORE PUSH1 0x17 PUSH1 0x20 MSTORE PUSH1 0x40 DUP2 KECCAK256 PUSH1 0x4 ADD DUP1 SLOAD DUP5 SWAP3 SWAP1 PUSH2 0x10D7 SWAP1 DUP5 SWAP1 PUSH2 0x32ED JUMP JUMPDEST SWAP1 SWAP2 SSTORE POP POP JUMPDEST PUSH1 0x10 SLOAD PUSH1 0x1 PUSH1 0x1 PUSH1 0xA0 SHL SUB SWAP1 DUP2 AND SWAP1 DUP5 AND SUB PUSH2 0x110B JUMPI DUP2 PUSH1 0xF PUSH1 0x0 DUP3 DUP3 SLOAD PUSH2 0x1105 SWAP2 SWAP1 PUSH2 0x32ED JUMP JUMPDEST SWAP1 SWAP2 SSTORE POP POP JUMPDEST POP POP POP JUMP JUMPDEST PUSH1 0x7 SLOAD PUSH1 0x8 SLOAD PUSH1 0x0 SWAP2 DUP3 SWAP2 PUSH2 0x1125 SWAP2 SWAP1 PUSH2 0x32ED JUMP JUMPDEST PUSH2 0x112D PUSH2 0x17FE JUMP JUMPDEST GT ISZERO PUSH2 0x113B JUMPI POP POP PUSH1 0xA SLOAD SWAP1 JUMP JUMPDEST PUSH1 0x8 SLOAD PUSH2 0x1146 PUSH2 0x17FE JUMP JUMPDEST GT ISZERO PUSH2 0x1151 JUMPI POP PUSH1 0x9 SLOAD JUMPDEST SWAP2 SWAP1 POP JUMP JUMPDEST PUSH1 0x2 DUP1 CALLER PUSH1 0x0 SWAP1 DUP2 MSTORE PUSH1 0x17 PUSH1 0x20 MSTORE PUSH1 0x40 SWAP1 KECCAK256 PUSH1 0x5 ADD SLOAD PUSH2 0x100 SWAP1 DIV PUSH1 0xFF AND PUSH1 0x3 DUP2 GT ISZERO PUSH2 0x1185 JUMPI PUSH2 0x1185 PUSH2 0x304D JUMP JUMPDEST EQ PUSH2 0x11A2 JUMPI PUSH1 0x40 MLOAD PUSH3 0x461BCD PUSH1 0xE5 SHL DUP2 MSTORE PUSH1 0x4 ADD PUSH2 0x84A SWAP1 PUSH2 0x3357 JUMP JUMPDEST DUP2 ISZERO PUSH2 0x139C JUMPI PUSH1 0x1 PUSH1 0x19 DUP5 DUP2 SLOAD DUP2 LT PUSH2 0x11BD JUMPI PUSH2 0x11BD PUSH2 0x338E JUMP JUMPDEST SWAP1 PUSH1 0x0 MSTORE PUSH1 0x20 PUSH1 0x0 KECCAK256 SWAP1 PUSH1 0x2 MUL ADD PUSH1 0x1 ADD PUSH1 0x14 PUSH2 0x100 EXP DUP2 SLOAD DUP2 PUSH1 0xFF MUL NOT AND SWAP1 DUP4 ISZERO ISZERO MUL OR SWAP1 SSTORE POP PUSH1 0x1A PUSH1 0x40 MLOAD DUP1 PUSH1 0x60 ADD PUSH1 0x40 MSTORE DUP1 PUSH1 0x19 DUP7 DUP2 SLOAD DUP2 LT PUSH2 0x1205 JUMPI PUSH2 0x1205 PUSH2 0x338E JUMP JUMPDEST SWAP1 PUSH1 0x0 MSTORE PUSH1 0x20 PUSH1 0x0 KECCAK256 SWAP1 PUSH1 0x2 MUL ADD PUSH1 0x0 ADD DUP1 SLOAD PUSH2 0x1221 SWAP1 PUSH2 0x324E JUMP JUMPDEST DUP1 PUSH1 0x1F ADD PUSH1 0x20 DUP1 SWAP2 DIV MUL PUSH1 0x20 ADD PUSH1 0x40 MLOAD SWAP1 DUP2 ADD PUSH1 0x40 MSTORE DUP1 SWAP3 SWAP2 SWAP1 DUP2 DUP2 MSTORE PUSH1 0x20 ADD DUP3 DUP1 SLOAD PUSH2 0x124D SWAP1 PUSH2 0x324E JUMP JUMPDEST DUP1 ISZERO PUSH2 0x129A JUMPI DUP1 PUSH1 0x1F LT PUSH2 0x126F JUMPI PUSH2 0x100 DUP1 DUP4 SLOAD DIV MUL DUP4 MSTORE SWAP2 PUSH1 0x20 ADD SWAP2 PUSH2 0x129A JUMP JUMPDEST DUP3 ADD SWAP2 SWAP1 PUSH1 0x0 MSTORE PUSH1 0x20 PUSH1 0x0 KECCAK256 SWAP1 JUMPDEST DUP2 SLOAD DUP2 MSTORE SWAP1 PUSH1 0x1 ADD SWAP1 PUSH1 0x20 ADD DUP1 DUP4 GT PUSH2 0x127D JUMPI DUP3 SWAP1 SUB PUSH1 0x1F AND DUP3 ADD SWAP2 JUMPDEST POP POP POP POP POP DUP2 MSTORE PUSH1 0x20 ADD PUSH1 0x19 DUP7 DUP2 SLOAD DUP2 LT PUSH2 0x12B7 JUMPI PUSH2 0x12B7 PUSH2 0x338E JUMP JUMPDEST PUSH1 0x0 SWAP2 DUP3 MSTORE PUSH1 0x20 DUP1 DUP4 KECCAK256 PUSH1 0x2 SWAP3 DUP4 MUL ADD PUSH1 0x1 SWAP1 DUP2 ADD SLOAD PUSH1 0x1 PUSH1 0x1 PUSH1 0xA0 SHL SUB AND DUP6 MSTORE SWAP4 DUP2 ADD DUP5 SWAP1 MSTORE DUP6 SLOAD SWAP4 DUP5 ADD DUP7 SSTORE SWAP5 DUP3 MSTORE SWAP4 SWAP1 KECCAK256 DUP3 MLOAD SWAP3 SWAP4 SWAP2 SWAP1 SWAP2 MUL ADD SWAP1 DUP2 SWAP1 PUSH2 0x1301 SWAP1 DUP3 PUSH2 0x33F4 JUMP JUMPDEST POP PUSH1 0x20 DUP3 ADD MLOAD PUSH1 0x1 SWAP2 DUP3 ADD DUP1 SLOAD PUSH1 0x40 SWAP1 SWAP5 ADD MLOAD ISZERO ISZERO PUSH1 0x1 PUSH1 0xA0 SHL MUL PUSH1 0x1 PUSH1 0x1 PUSH1 0xA8 SHL SUB NOT SWAP1 SWAP5 AND PUSH1 0x1 PUSH1 0x1 PUSH1 0xA0 SHL SUB SWAP1 SWAP3 AND SWAP2 SWAP1 SWAP2 OR SWAP3 SWAP1 SWAP3 OR SWAP1 SWAP2 SSTORE PUSH1 0x19 DUP1 SLOAD PUSH1 0x17 SWAP2 PUSH1 0x0 SWAP2 DUP8 SWAP1 DUP2 LT PUSH2 0x1358 JUMPI PUSH2 0x1358 PUSH2 0x338E JUMP JUMPDEST PUSH1 0x0 SWAP2 DUP3 MSTORE PUSH1 0x20 DUP1 DUP4 KECCAK256 PUSH1 0x2 SWAP3 SWAP1 SWAP3 MUL SWAP1 SWAP2 ADD PUSH1 0x1 ADD SLOAD PUSH1 0x1 PUSH1 0x1 PUSH1 0xA0 SHL SUB AND DUP4 MSTORE DUP3 ADD SWAP3 SWAP1 SWAP3 MSTORE PUSH1 0x40 ADD SWAP1 KECCAK256 PUSH1 0x5 ADD DUP1 SLOAD PUSH1 0xFF NOT AND SWAP2 ISZERO ISZERO SWAP2 SWAP1 SWAP2 OR SWAP1 SSTORE POP POP POP JUMP JUMPDEST PUSH1 0x19 DUP4 DUP2 SLOAD DUP2 LT PUSH2 0x13AF JUMPI PUSH2 0x13AF PUSH2 0x338E JUMP JUMPDEST PUSH1 0x0 SWAP2 DUP3 MSTORE PUSH1 0x20 DUP3 KECCAK256 PUSH1 0x2 SWAP1 SWAP2 MUL ADD SWAP1 PUSH2 0x13C9 DUP3 DUP3 PUSH2 0x2D9D JUMP JUMPDEST POP PUSH1 0x1 ADD DUP1 SLOAD PUSH1 0x1 PUSH1 0x1 PUSH1 0xA8 SHL SUB NOT AND SWAP1 SSTORE POP POP POP JUMP JUMPDEST PUSH1 0x0 PUSH1 0x2 DUP1 CALLER PUSH1 0x0 SWAP1 DUP2 MSTORE PUSH1 0x17 PUSH1 0x20 MSTORE PUSH1 0x40 SWAP1 KECCAK256 PUSH1 0x5 ADD SLOAD PUSH2 0x100 SWAP1 DIV PUSH1 0xFF AND PUSH1 0x3 DUP2 GT ISZERO PUSH2 0x1411 JUMPI PUSH2 0x1411 PUSH2 0x304D JUMP JUMPDEST EQ PUSH2 0x142E JUMPI PUSH1 0x40 MLOAD PUSH3 0x461BCD PUSH1 0xE5 SHL DUP2 MSTORE PUSH1 0x4 ADD PUSH2 0x84A SWAP1 PUSH2 0x3357 JUMP JUMPDEST PUSH1 0x1 PUSH1 0x1 PUSH1 0xA0 SHL SUB DUP4 AND PUSH1 0x0 SWAP1 DUP2 MSTORE PUSH1 0x17 PUSH1 0x20 MSTORE PUSH1 0x40 SWAP1 KECCAK256 PUSH1 0x3 ADD SLOAD SWAP2 POP JUMPDEST POP SWAP2 SWAP1 POP JUMP JUMPDEST PUSH1 0x3 DUP1 CALLER PUSH1 0x0 SWAP1 DUP2 MSTORE PUSH1 0x17 PUSH1 0x20 MSTORE PUSH1 0x40 SWAP1 KECCAK256 PUSH1 0x5 ADD SLOAD PUSH2 0x100 SWAP1 DIV PUSH1 0xFF AND PUSH1 0x3 DUP2 GT ISZERO PUSH2 0x1482 JUMPI PUSH2 0x1482 PUSH2 0x304D JUMP JUMPDEST EQ PUSH2 0x149F JUMPI PUSH1 0x40 MLOAD PUSH3 0x461BCD PUSH1 0xE5 SHL DUP2 MSTORE PUSH1 0x4 ADD PUSH2 0x84A SWAP1 PUSH2 0x3357 JUMP JUMPDEST DUP2 PUSH1 0x2 SUB PUSH2 0x1549 JUMPI PUSH1 0x11 SLOAD PUSH1 0xC SLOAD PUSH2 0x14C4 SWAP2 CALLER SWAP2 PUSH1 0x1 PUSH1 0x1 PUSH1 0xA0 SHL SUB SWAP1 SWAP2 AND SWAP1 PUSH2 0x2AE7 JUMP JUMPDEST PUSH1 0xC SLOAD CALLER PUSH1 0x0 SWAP1 DUP2 MSTORE PUSH1 0x17 PUSH1 0x20 MSTORE PUSH1 0x40 DUP2 KECCAK256 PUSH1 0x3 ADD DUP1 SLOAD SWAP1 SWAP2 SWAP1 PUSH2 0x14E9 SWAP1 DUP5 SWAP1 PUSH2 0x3300 JUMP JUMPDEST SWAP1 SWAP2 SSTORE POP POP PUSH1 0xC SLOAD PUSH1 0x11 SLOAD PUSH1 0x1 PUSH1 0x1 PUSH1 0xA0 SHL SUB AND PUSH1 0x0 SWAP1 DUP2 MSTORE PUSH1 0x17 PUSH1 0x20 MSTORE PUSH1 0x40 DUP2 KECCAK256 PUSH1 0x3 ADD DUP1 SLOAD SWAP1 SWAP2 SWAP1 PUSH2 0x151E SWAP1 DUP5 SWAP1 PUSH2 0x32ED JUMP JUMPDEST SWAP1 SWAP2 SSTORE POP POP PUSH1 0x1 PUSH1 0xE SSTORE PUSH1 0xB SLOAD PUSH2 0x1538 SWAP1 PUSH3 0x186A0 PUSH2 0x32D6 JUMP JUMPDEST PUSH1 0xF PUSH1 0x0 DUP3 DUP3 SLOAD PUSH2 0xB3F SWAP2 SWAP1 PUSH2 0x32ED JUMP JUMPDEST DUP2 PUSH1 0x3 SUB PUSH2 0xDCA JUMPI PUSH1 0x12 SLOAD PUSH1 0xD SLOAD PUSH2 0x156E SWAP2 CALLER SWAP2 PUSH1 0x1 PUSH1 0x1 PUSH1 0xA0 SHL SUB SWAP1 SWAP2 AND SWAP1 PUSH2 0x2AE7 JUMP JUMPDEST PUSH1 0xD SLOAD CALLER PUSH1 0x0 SWAP1 DUP2 MSTORE PUSH1 0x17 PUSH1 0x20 MSTORE PUSH1 0x40 DUP2 KECCAK256 PUSH1 0x4 ADD DUP1 SLOAD SWAP1 SWAP2 SWAP1 PUSH2 0x1593 SWAP1 DUP5 SWAP1 PUSH2 0x3300 JUMP JUMPDEST SWAP1 SWAP2 SSTORE POP POP PUSH1 0xD SLOAD PUSH1 0x12 SLOAD PUSH1 0x1 PUSH1 0x1 PUSH1 0xA0 SHL SUB AND PUSH1 0x0 SWAP1 DUP2 MSTORE PUSH1 0x17 PUSH1 0x20 MSTORE PUSH1 0x40 DUP2 KECCAK256 PUSH1 0x4 ADD DUP1 SLOAD SWAP1 SWAP2 SWAP1 PUSH2 0x15C8 SWAP1 DUP5 SWAP1 PUSH2 0x32ED JUMP JUMPDEST SWAP1 SWAP2 SSTORE POP POP PUSH1 0x2 PUSH1 0xE SSTORE PUSH1 0x11 SLOAD PUSH1 0x1 PUSH1 0x1 PUSH1 0xA0 SHL SUB AND PUSH1 0x0 DUP2 DUP2 MSTORE PUSH1 0x17 PUSH1 0x20 MSTORE PUSH1 0x40 SWAP1 KECCAK256 PUSH1 0x3 ADD SLOAD PUSH2 0x15FC SWAP2 SWAP1 CALLER SWAP1 PUSH2 0x2AE7 JUMP JUMPDEST PUSH1 0x11 SLOAD PUSH1 0x1 PUSH1 0x1 PUSH1 0xA0 SHL SUB AND PUSH1 0x0 SWAP1 DUP2 MSTORE PUSH1 0x17 PUSH1 0x20 MSTORE PUSH1 0x40 DUP1 DUP3 KECCAK256 PUSH1 0x3 SWAP1 DUP2 ADD SLOAD CALLER DUP5 MSTORE SWAP2 DUP4 KECCAK256 ADD DUP1 SLOAD SWAP2 SWAP3 SWAP1 SWAP2 PUSH2 0x1635 SWAP1 DUP5 SWAP1 PUSH2 0x32ED JUMP JUMPDEST SWAP1 SWAP2 SSTORE POP POP PUSH1 0x11 SLOAD PUSH1 0x1 PUSH1 0x1 PUSH1 0xA0 SHL SUB AND PUSH1 0x0 SWAP1 DUP2 MSTORE PUSH1 0x17 PUSH1 0x20 MSTORE PUSH1 0x40 DUP2 KECCAK256 PUSH1 0x3 ADD SLOAD PUSH1 0xF DUP1 SLOAD SWAP2 SWAP3 SWAP1 SWAP2 PUSH2 0x166B SWAP1 DUP5 SWAP1 PUSH2 0x32ED JUMP JUMPDEST SWAP1 SWAP2 SSTORE POP POP PUSH1 0x11 SLOAD PUSH1 0x1 PUSH1 0x1 PUSH1 0xA0 SHL SUB AND PUSH1 0x0 SWAP1 DUP2 MSTORE PUSH1 0x17 PUSH1 0x20 MSTORE PUSH1 0x40 DUP2 KECCAK256 PUSH1 0x3 ADD SSTORE POP POP JUMP JUMPDEST PUSH1 0x60 PUSH1 0x4 DUP1 SLOAD PUSH2 0x650 SWAP1 PUSH2 0x324E JUMP JUMPDEST PUSH1 0x3 DUP1 CALLER PUSH1 0x0 SWAP1 DUP2 MSTORE PUSH1 0x17 PUSH1 0x20 MSTORE PUSH1 0x40 SWAP1 KECCAK256 PUSH1 0x5 ADD SLOAD PUSH2 0x100 SWAP1 DIV PUSH1 0xFF AND PUSH1 0x3 DUP2 GT ISZERO PUSH2 0x16D0 JUMPI PUSH2 0x16D0 PUSH2 0x304D JUMP JUMPDEST EQ PUSH2 0x16ED JUMPI PUSH1 0x40 MLOAD PUSH3 0x461BCD PUSH1 0xE5 SHL DUP2 MSTORE PUSH1 0x4 ADD PUSH2 0x84A SWAP1 PUSH2 0x3357 JUMP JUMPDEST PUSH1 0x12 SLOAD PUSH1 0x1 PUSH1 0x1 PUSH1 0xA0 SHL SUB AND PUSH1 0x0 DUP2 DUP2 MSTORE PUSH1 0x17 PUSH1 0x20 MSTORE PUSH1 0x40 SWAP1 KECCAK256 PUSH1 0x4 ADD SLOAD PUSH2 0x1717 SWAP2 SWAP1 CALLER SWAP1 PUSH2 0x2AE7 JUMP JUMPDEST PUSH1 0x12 SLOAD PUSH1 0x1 PUSH1 0x1 PUSH1 0xA0 SHL SUB AND PUSH1 0x0 SWAP1 DUP2 MSTORE PUSH1 0x17 PUSH1 0x20 MSTORE PUSH1 0x40 DUP1 DUP3 KECCAK256 PUSH1 0x4 SWAP1 DUP2 ADD SLOAD CALLER DUP5 MSTORE SWAP2 DUP4 KECCAK256 ADD DUP1 SLOAD SWAP2 SWAP3 SWAP1 SWAP2 PUSH2 0x1750 SWAP1 DUP5 SWAP1 PUSH2 0x32ED JUMP JUMPDEST SWAP1 SWAP2 SSTORE POP POP PUSH1 0x12 SLOAD PUSH1 0x1 PUSH1 0x1 PUSH1 0xA0 SHL SUB AND PUSH1 0x0 SWAP1 DUP2 MSTORE PUSH1 0x17 PUSH1 0x20 MSTORE PUSH1 0x40 DUP2 KECCAK256 PUSH1 0x4 ADD SLOAD PUSH1 0xF DUP1 SLOAD SWAP2 SWAP3 SWAP1 SWAP2 PUSH2 0x1786 SWAP1 DUP5 SWAP1 PUSH2 0x32ED JUMP JUMPDEST SWAP1 SWAP2 SSTORE POP POP PUSH1 0x12 SLOAD PUSH1 0x1 PUSH1 0x1 PUSH1 0xA0 SHL SUB AND PUSH1 0x0 SWAP1 DUP2 MSTORE PUSH1 0x17 PUSH1 0x20 MSTORE PUSH1 0x40 DUP2 KECCAK256 PUSH1 0x4 ADD SSTORE POP JUMP JUMPDEST PUSH1 0x1 DUP1 CALLER PUSH1 0x0 SWAP1 DUP2 MSTORE PUSH1 0x17 PUSH1 0x20 MSTORE PUSH1 0x40 SWAP1 KECCAK256 PUSH1 0x5 ADD SLOAD PUSH2 0x100 SWAP1 DIV PUSH1 0xFF AND PUSH1 0x3 DUP2 GT ISZERO PUSH2 0x17DB JUMPI PUSH2 0x17DB PUSH2 0x304D JUMP JUMPDEST EQ PUSH2 0x17F8 JUMPI PUSH1 0x40 MLOAD PUSH3 0x461BCD PUSH1 0xE5 SHL DUP2 MSTORE PUSH1 0x4 ADD PUSH2 0x84A SWAP1 PUSH2 0x3357 JUMP JUMPDEST POP PUSH1 0xA SSTORE JUMP JUMPDEST PUSH1 0x0 PUSH1 0x5 SLOAD PUSH1 0x6 SLOAD TIMESTAMP PUSH2 0x1811 SWAP2 SWAP1 PUSH2 0x32ED JUMP JUMPDEST PUSH2 0x181B SWAP2 SWAP1 PUSH2 0x3300 JUMP JUMPDEST SWAP1 POP SWAP1 JUMP JUMPDEST PUSH1 0x0 PUSH1 0x1 PUSH1 0x1 PUSH1 0xA0 SHL SUB AND PUSH1 0x16 DUP4 PUSH1 0x40 MLOAD PUSH2 0x183B SWAP2 SWAP1 PUSH2 0x3282 JUMP JUMPDEST SWAP1 DUP2 MSTORE PUSH1 0x40 MLOAD SWAP1 DUP2 SWAP1 SUB PUSH1 0x20 ADD SWAP1 KECCAK256 SLOAD PUSH1 0x1 PUSH1 0x1 PUSH1 0xA0 SHL SUB AND EQ PUSH2 0x18E1 JUMPI PUSH1 0x40 MLOAD PUSH3 0x461BCD PUSH1 0xE5 SHL DUP2 MSTORE PUSH1 0x20 PUSH1 0x4 DUP3 ADD MSTORE PUSH1 0x51 PUSH1 0x24 DUP3 ADD MSTORE PUSH32 0xD09FD0BED0BBD18CD0B7D0BED0B2D0B0D182D0B5D0BBD18C20D18120D182D0B0 PUSH1 0x44 DUP3 ADD MSTORE PUSH32 0xD0BAD0B8D0BC20D0BBD0BED0B3D0B8D0BDD0BED0BC20D183D0B6D0B520D181D1 PUSH1 0x64 DUP3 ADD MSTORE PUSH17 0x41E8C4E85AE8C0E8C1685968C1E85AE8C1 PUSH1 0x79 SHL PUSH1 0x84 DUP3 ADD MSTORE PUSH1 0xA4 ADD PUSH2 0x84A JUMP JUMPDEST CALLER PUSH1 0x0 SWAP1 DUP2 MSTORE PUSH1 0x17 PUSH1 0x20 MSTORE PUSH1 0x40 SWAP1 KECCAK256 PUSH1 0x1 ADD SLOAD PUSH1 0x1 PUSH1 0x1 PUSH1 0xA0 SHL SUB AND ISZERO PUSH2 0x198A JUMPI PUSH1 0x40 MLOAD PUSH3 0x461BCD PUSH1 0xE5 SHL DUP2 MSTORE PUSH1 0x20 PUSH1 0x4 DUP3 ADD MSTORE PUSH1 0x51 PUSH1 0x24 DUP3 ADD MSTORE PUSH32 0xD09FD0BED0BBD18CD0B7D0BED0B2D0B0D182D0B5D0BBD18C20D18120D182D0B0 PUSH1 0x44 DUP3 ADD MSTORE PUSH32 0xD0BAD0B8D0BC20D0B0D0B4D180D0B5D181D0BED0BC20D183D0B6D0B520D181D1 PUSH1 0x64 DUP3 ADD MSTORE PUSH17 0x41E8C4E85AE8C0E8C1685968C1E85AE8C1 PUSH1 0x79 SHL PUSH1 0x84 DUP3 ADD MSTORE PUSH1 0xA4 ADD PUSH2 0x84A JUMP JUMPDEST PUSH1 0x40 DUP1 MLOAD PUSH1 0xE0 DUP2 ADD DUP3 MSTORE DUP4 DUP2 MSTORE CALLER PUSH1 0x20 DUP3 ADD MSTORE PUSH1 0x0 SWAP2 DUP2 ADD DUP3 SWAP1 MSTORE PUSH1 0x60 DUP2 ADD DUP3 SWAP1 MSTORE PUSH1 0x80 DUP2 ADD DUP3 SWAP1 MSTORE PUSH1 0xA0 DUP2 ADD DUP3 SWAP1 MSTORE SWAP1 PUSH1 0xC0 DUP3 ADD MSTORE CALLER PUSH1 0x0 SWAP1 DUP2 MSTORE PUSH1 0x17 PUSH1 0x20 MSTORE PUSH1 0x40 SWAP1 KECCAK256 DUP2 MLOAD DUP2 SWAP1 PUSH2 0x19DD SWAP1 DUP3 PUSH2 0x33F4 JUMP JUMPDEST POP PUSH1 0x20 DUP3 ADD MLOAD PUSH1 0x1 DUP3 ADD DUP1 SLOAD PUSH1 0x1 PUSH1 0x1 PUSH1 0xA0 SHL SUB NOT AND PUSH1 0x1 PUSH1 0x1 PUSH1 0xA0 SHL SUB SWAP1 SWAP3 AND SWAP2 SWAP1 SWAP2 OR SWAP1 SSTORE PUSH1 0x40 DUP3 ADD MLOAD PUSH1 0x2 DUP3 ADD SSTORE PUSH1 0x60 DUP3 ADD MLOAD PUSH1 0x3 DUP1 DUP4 ADD SWAP2 SWAP1 SWAP2 SSTORE PUSH1 0x80 DUP4 ADD MLOAD PUSH1 0x4 DUP4 ADD SSTORE PUSH1 0xA0 DUP4 ADD MLOAD PUSH1 0x5 DUP4 ADD DUP1 SLOAD PUSH1 0xFF NOT DUP2 AND SWAP3 ISZERO ISZERO SWAP3 DUP4 OR DUP3 SSTORE PUSH1 0xC0 DUP7 ADD MLOAD SWAP4 SWAP2 SWAP3 PUSH2 0xFFFF NOT SWAP1 SWAP2 AND PUSH2 0xFF00 NOT SWAP1 SWAP2 AND OR SWAP1 PUSH2 0x100 SWAP1 DUP5 SWAP1 DUP2 GT ISZERO PUSH2 0x1A6B JUMPI PUSH2 0x1A6B PUSH2 0x304D JUMP JUMPDEST MUL OR SWAP1 SSTORE POP SWAP1 POP POP CALLER PUSH1 0x16 DUP4 PUSH1 0x40 MLOAD PUSH2 0x1A84 SWAP2 SWAP1 PUSH2 0x3282 JUMP JUMPDEST SWAP1 DUP2 MSTORE PUSH1 0x40 MLOAD PUSH1 0x20 SWAP2 DUP2 SWAP1 SUB DUP3 ADD DUP2 KECCAK256 DUP1 SLOAD PUSH1 0x1 PUSH1 0x1 PUSH1 0xA0 SHL SUB NOT AND PUSH1 0x1 PUSH1 0x1 PUSH1 0xA0 SHL SUB SWAP5 SWAP1 SWAP5 AND SWAP4 SWAP1 SWAP4 OR SWAP1 SWAP3 SSTORE PUSH2 0x1ABF SWAP2 DUP4 SWAP2 ADD PUSH2 0x2E3F JUMP JUMPDEST PUSH1 0x40 MLOAD PUSH1 0x20 DUP2 DUP4 SUB SUB DUP2 MSTORE SWAP1 PUSH1 0x40 MSTORE DUP1 MLOAD SWAP1 PUSH1 0x20 ADD KECCAK256 PUSH1 0x18 DUP4 PUSH1 0x40 MLOAD PUSH2 0x1AE5 SWAP2 SWAP1 PUSH2 0x3282 JUMP JUMPDEST SWAP1 DUP2 MSTORE PUSH1 0x40 MLOAD SWAP1 DUP2 SWAP1 SUB PUSH1 0x20 ADD SWAP1 KECCAK256 SSTORE POP POP JUMP JUMPDEST PUSH1 0x0 CALLER PUSH2 0x6E1 DUP2 DUP6 DUP6 PUSH2 0x2AE7 JUMP JUMPDEST PUSH1 0x1 DUP1 CALLER PUSH1 0x0 SWAP1 DUP2 MSTORE PUSH1 0x17 PUSH1 0x20 MSTORE PUSH1 0x40 SWAP1 KECCAK256 PUSH1 0x5 ADD SLOAD PUSH2 0x100 SWAP1 DIV PUSH1 0xFF AND PUSH1 0x3 DUP2 GT ISZERO PUSH2 0x1B36 JUMPI PUSH2 0x1B36 PUSH2 0x304D JUMP JUMPDEST EQ PUSH2 0x1B53 JUMPI PUSH1 0x40 MLOAD PUSH3 0x461BCD PUSH1 0xE5 SHL DUP2 MSTORE PUSH1 0x4 ADD PUSH2 0x84A SWAP1 PUSH2 0x3357 JUMP JUMPDEST PUSH1 0x12 SLOAD PUSH1 0x1 PUSH1 0x1 PUSH1 0xA0 SHL SUB AND PUSH1 0x0 SWAP1 DUP2 MSTORE PUSH1 0x17 PUSH1 0x20 MSTORE PUSH1 0x40 SWAP1 KECCAK256 PUSH1 0x4 ADD SLOAD DUP3 GT ISZERO PUSH2 0x1B90 JUMPI PUSH1 0x40 MLOAD PUSH3 0x461BCD PUSH1 0xE5 SHL DUP2 MSTORE PUSH1 0x4 ADD PUSH2 0x84A SWAP1 PUSH2 0x3313 JUMP JUMPDEST PUSH2 0x1B9A DUP4 DUP4 PUSH2 0x1AF9 JUMP JUMPDEST POP CALLER PUSH1 0x0 SWAP1 DUP2 MSTORE PUSH1 0x17 PUSH1 0x20 MSTORE PUSH1 0x40 DUP2 KECCAK256 PUSH1 0x4 ADD DUP1 SLOAD DUP5 SWAP3 SWAP1 PUSH2 0x1BBD SWAP1 DUP5 SWAP1 PUSH2 0x3300 JUMP JUMPDEST SWAP1 SWAP2 SSTORE POP POP PUSH1 0x1 PUSH1 0x1 PUSH1 0xA0 SHL SUB DUP4 AND PUSH1 0x0 SWAP1 DUP2 MSTORE PUSH1 0x17 PUSH1 0x20 MSTORE PUSH1 0x40 DUP2 KECCAK256 PUSH1 0x4 ADD DUP1 SLOAD DUP5 SWAP3 SWAP1 PUSH2 0x1105 SWAP1 DUP5 SWAP1 PUSH2 0x32ED JUMP JUMPDEST PUSH1 0x60 PUSH1 0x2 DUP1 CALLER PUSH1 0x0 SWAP1 DUP2 MSTORE PUSH1 0x17 PUSH1 0x20 MSTORE PUSH1 0x40 SWAP1 KECCAK256 PUSH1 0x5 ADD SLOAD PUSH2 0x100 SWAP1 DIV PUSH1 0xFF AND PUSH1 0x3 DUP2 GT ISZERO PUSH2 0x1C1E JUMPI PUSH2 0x1C1E PUSH2 0x304D JUMP JUMPDEST EQ PUSH2 0x1C3B JUMPI PUSH1 0x40 MLOAD PUSH3 0x461BCD PUSH1 0xE5 SHL DUP2 MSTORE PUSH1 0x4 ADD PUSH2 0x84A SWAP1 PUSH2 0x3357 JUMP JUMPDEST PUSH1 0x1A DUP1 SLOAD DUP1 PUSH1 0x20 MUL PUSH1 0x20 ADD PUSH1 0x40 MLOAD SWAP1 DUP2 ADD PUSH1 0x40 MSTORE DUP1 SWAP3 SWAP2 SWAP1 DUP2 DUP2 MSTORE PUSH1 0x20 ADD PUSH1 0x0 SWAP1 JUMPDEST DUP3 DUP3 LT ISZERO PUSH2 0x1D4E JUMPI DUP4 DUP3 SWAP1 PUSH1 0x0 MSTORE PUSH1 0x20 PUSH1 0x0 KECCAK256 SWAP1 PUSH1 0x2 MUL ADD PUSH1 0x40 MLOAD DUP1 PUSH1 0x60 ADD PUSH1 0x40 MSTORE SWAP1 DUP2 PUSH1 0x0 DUP3 ADD DUP1 SLOAD PUSH2 0x1C90 SWAP1 PUSH2 0x324E JUMP JUMPDEST DUP1 PUSH1 0x1F ADD PUSH1 0x20 DUP1 SWAP2 DIV MUL PUSH1 0x20 ADD PUSH1 0x40 MLOAD SWAP1 DUP2 ADD PUSH1 0x40 MSTORE DUP1 SWAP3 SWAP2 SWAP1 DUP2 DUP2 MSTORE PUSH1 0x20 ADD DUP3 DUP1 SLOAD PUSH2 0x1CBC SWAP1 PUSH2 0x324E JUMP JUMPDEST DUP1 ISZERO PUSH2 0x1D09 JUMPI DUP1 PUSH1 0x1F LT PUSH2 0x1CDE JUMPI PUSH2 0x100 DUP1 DUP4 SLOAD DIV MUL DUP4 MSTORE SWAP2 PUSH1 0x20 ADD SWAP2 PUSH2 0x1D09 JUMP JUMPDEST DUP3 ADD SWAP2 SWAP1 PUSH1 0x0 MSTORE PUSH1 0x20 PUSH1 0x0 KECCAK256 SWAP1 JUMPDEST DUP2 SLOAD DUP2 MSTORE SWAP1 PUSH1 0x1 ADD SWAP1 PUSH1 0x20 ADD DUP1 DUP4 GT PUSH2 0x1CEC JUMPI DUP3 SWAP1 SUB PUSH1 0x1F AND DUP3 ADD SWAP2 JUMPDEST POP POP POP SWAP2 DUP4 MSTORE POP POP PUSH1 0x1 SWAP2 DUP3 ADD SLOAD PUSH1 0x1 PUSH1 0x1 PUSH1 0xA0 SHL SUB DUP2 AND PUSH1 0x20 DUP1 DUP5 ADD SWAP2 SWAP1 SWAP2 MSTORE PUSH1 0x1 PUSH1 0xA0 SHL SWAP1 SWAP2 DIV PUSH1 0xFF AND ISZERO ISZERO PUSH1 0x40 SWAP1 SWAP3 ADD SWAP2 SWAP1 SWAP2 MSTORE SWAP2 DUP4 MSTORE SWAP3 SWAP1 SWAP3 ADD SWAP2 ADD PUSH2 0x1C5D JUMP JUMPDEST POP POP POP POP SWAP2 POP JUMPDEST POP SWAP1 JUMP JUMPDEST CALLER PUSH1 0x1 PUSH1 0x1 PUSH1 0xA0 SHL SUB AND PUSH1 0x1B DUP3 DUP2 SLOAD DUP2 LT PUSH2 0x1D76 JUMPI PUSH2 0x1D76 PUSH2 0x338E JUMP JUMPDEST PUSH1 0x0 SWAP2 DUP3 MSTORE PUSH1 0x20 SWAP1 SWAP2 KECCAK256 PUSH1 0x1 PUSH1 0x4 SWAP1 SWAP3 MUL ADD ADD SLOAD PUSH1 0x1 PUSH1 0x1 PUSH1 0xA0 SHL SUB AND EQ PUSH2 0x1DEA JUMPI PUSH1 0x40 MLOAD PUSH3 0x461BCD PUSH1 0xE5 SHL DUP2 MSTORE PUSH1 0x20 PUSH1 0x4 DUP3 ADD MSTORE PUSH1 0x21 PUSH1 0x24 DUP3 ADD MSTORE PUSH32 0xD0ADD182D0BE20D0BDD0B520D0B2D0B0D188D0B820D182D0BED0BAD0B5D0BDD1 PUSH1 0x44 DUP3 ADD MSTORE PUSH1 0x8B PUSH1 0xF8 SHL PUSH1 0x64 DUP3 ADD MSTORE PUSH1 0x84 ADD PUSH2 0x84A JUMP JUMPDEST PUSH2 0x1E80 PUSH1 0x1B DUP3 DUP2 SLOAD DUP2 LT PUSH2 0x1E00 JUMPI PUSH2 0x1E00 PUSH2 0x338E JUMP JUMPDEST PUSH1 0x0 SWAP2 DUP3 MSTORE PUSH1 0x20 SWAP1 SWAP2 KECCAK256 PUSH1 0x4 SWAP1 SWAP2 MUL ADD SLOAD PUSH1 0x1B DUP1 SLOAD PUSH1 0x1 PUSH1 0x1 PUSH1 0xA0 SHL SUB SWAP1 SWAP3 AND SWAP2 DUP5 SWAP1 DUP2 LT PUSH2 0x1E31 JUMPI PUSH2 0x1E31 PUSH2 0x338E JUMP JUMPDEST SWAP1 PUSH1 0x0 MSTORE PUSH1 0x20 PUSH1 0x0 KECCAK256 SWAP1 PUSH1 0x4 MUL ADD PUSH1 0x1 ADD PUSH1 0x0 SWAP1 SLOAD SWAP1 PUSH2 0x100 EXP SWAP1 DIV PUSH1 0x1 PUSH1 0x1 PUSH1 0xA0 SHL SUB AND PUSH1 0x1B DUP5 DUP2 SLOAD DUP2 LT PUSH2 0x1E69 JUMPI PUSH2 0x1E69 PUSH2 0x338E JUMP JUMPDEST SWAP1 PUSH1 0x0 MSTORE PUSH1 0x20 PUSH1 0x0 KECCAK256 SWAP1 PUSH1 0x4 MUL ADD PUSH1 0x2 ADD SLOAD PUSH2 0x77C JUMP JUMPDEST POP PUSH1 0x1B DUP2 DUP2 SLOAD DUP2 LT PUSH2 0x1E94 JUMPI PUSH2 0x1E94 PUSH2 0x338E JUMP JUMPDEST SWAP1 PUSH1 0x0 MSTORE PUSH1 0x20 PUSH1 0x0 KECCAK256 SWAP1 PUSH1 0x4 MUL ADD PUSH1 0x3 ADD SLOAD PUSH1 0x1 SUB PUSH2 0x1FB2 JUMPI PUSH1 0x1B DUP2 DUP2 SLOAD DUP2 LT PUSH2 0x1EC0 JUMPI PUSH2 0x1EC0 PUSH2 0x338E JUMP JUMPDEST SWAP1 PUSH1 0x0 MSTORE PUSH1 0x20 PUSH1 0x0 KECCAK256 SWAP1 PUSH1 0x4 MUL ADD PUSH1 0x2 ADD SLOAD PUSH1 0x17 PUSH1 0x0 PUSH1 0x1B DUP5 DUP2 SLOAD DUP2 LT PUSH2 0x1EE9 JUMPI PUSH2 0x1EE9 PUSH2 0x338E JUMP JUMPDEST PUSH1 0x0 SWAP2 DUP3 MSTORE PUSH1 0x20 DUP1 DUP4 KECCAK256 PUSH1 0x4 SWAP1 SWAP3 MUL SWAP1 SWAP2 ADD SLOAD PUSH1 0x1 PUSH1 0x1 PUSH1 0xA0 SHL SUB AND DUP4 MSTORE DUP3 ADD SWAP3 SWAP1 SWAP3 MSTORE PUSH1 0x40 ADD DUP2 KECCAK256 PUSH1 0x2 ADD DUP1 SLOAD SWAP1 SWAP2 SWAP1 PUSH2 0x1F25 SWAP1 DUP5 SWAP1 PUSH2 0x3300 JUMP JUMPDEST SWAP1 SWAP2 SSTORE POP POP PUSH1 0x1B DUP1 SLOAD DUP3 SWAP1 DUP2 LT PUSH2 0x1F3E JUMPI PUSH2 0x1F3E PUSH2 0x338E JUMP JUMPDEST SWAP1 PUSH1 0x0 MSTORE PUSH1 0x20 PUSH1 0x0 KECCAK256 SWAP1 PUSH1 0x4 MUL ADD PUSH1 0x2 ADD SLOAD PUSH1 0x17 PUSH1 0x0 PUSH1 0x1B DUP5 DUP2 SLOAD DUP2 LT PUSH2 0x1F67 JUMPI PUSH2 0x1F67 PUSH2 0x338E JUMP JUMPDEST PUSH1 0x0 SWAP2 DUP3 MSTORE PUSH1 0x20 DUP1 DUP4 KECCAK256 PUSH1 0x1 PUSH1 0x4 SWAP1 SWAP4 MUL ADD SWAP2 SWAP1 SWAP2 ADD SLOAD PUSH1 0x1 PUSH1 0x1 PUSH1 0xA0 SHL SUB AND DUP4 MSTORE DUP3 ADD SWAP3 SWAP1 SWAP3 MSTORE PUSH1 0x40 ADD DUP2 KECCAK256 PUSH1 0x2 ADD DUP1 SLOAD SWAP1 SWAP2 SWAP1 PUSH2 0x1FA7 SWAP1 DUP5 SWAP1 PUSH2 0x32ED JUMP JUMPDEST SWAP1 SWAP2 SSTORE POP PUSH2 0x221B SWAP1 POP JUMP JUMPDEST PUSH1 0x1B DUP2 DUP2 SLOAD DUP2 LT PUSH2 0x1FC5 JUMPI PUSH2 0x1FC5 PUSH2 0x338E JUMP JUMPDEST SWAP1 PUSH1 0x0 MSTORE PUSH1 0x20 PUSH1 0x0 KECCAK256 SWAP1 PUSH1 0x4 MUL ADD PUSH1 0x3 ADD SLOAD PUSH1 0x2 SUB PUSH2 0x20D8 JUMPI PUSH1 0x1B DUP2 DUP2 SLOAD DUP2 LT PUSH2 0x1FF1 JUMPI PUSH2 0x1FF1 PUSH2 0x338E JUMP JUMPDEST SWAP1 PUSH1 0x0 MSTORE PUSH1 0x20 PUSH1 0x0 KECCAK256 SWAP1 PUSH1 0x4 MUL ADD PUSH1 0x2 ADD SLOAD PUSH1 0x17 PUSH1 0x0 PUSH1 0x1B DUP5 DUP2 SLOAD DUP2 LT PUSH2 0x201A JUMPI PUSH2 0x201A PUSH2 0x338E JUMP JUMPDEST PUSH1 0x0 SWAP2 DUP3 MSTORE PUSH1 0x20 DUP1 DUP4 KECCAK256 PUSH1 0x4 SWAP1 SWAP3 MUL SWAP1 SWAP2 ADD SLOAD PUSH1 0x1 PUSH1 0x1 PUSH1 0xA0 SHL SUB AND DUP4 MSTORE DUP3 ADD SWAP3 SWAP1 SWAP3 MSTORE PUSH1 0x40 ADD DUP2 KECCAK256 PUSH1 0x3 ADD DUP1 SLOAD SWAP1 SWAP2 SWAP1 PUSH2 0x2056 SWAP1 DUP5 SWAP1 PUSH2 0x3300 JUMP JUMPDEST SWAP1 SWAP2 SSTORE POP POP PUSH1 0x1B DUP1 SLOAD DUP3 SWAP1 DUP2 LT PUSH2 0x206F JUMPI PUSH2 0x206F PUSH2 0x338E JUMP JUMPDEST SWAP1 PUSH1 0x0 MSTORE PUSH1 0x20 PUSH1 0x0 KECCAK256 SWAP1 PUSH1 0x4 MUL ADD PUSH1 0x2 ADD SLOAD PUSH1 0x17 PUSH1 0x0 PUSH1 0x1B DUP5 DUP2 SLOAD DUP2 LT PUSH2 0x2098 JUMPI PUSH2 0x2098 PUSH2 0x338E JUMP JUMPDEST PUSH1 0x0 SWAP2 DUP3 MSTORE PUSH1 0x20 DUP1 DUP4 KECCAK256 PUSH1 0x1 PUSH1 0x4 SWAP1 SWAP4 MUL ADD SWAP2 SWAP1 SWAP2 ADD SLOAD PUSH1 0x1 PUSH1 0x1 PUSH1 0xA0 SHL SUB AND DUP4 MSTORE DUP3 ADD SWAP3 SWAP1 SWAP3 MSTORE PUSH1 0x40 ADD DUP2 KECCAK256 PUSH1 0x3 ADD DUP1 SLOAD SWAP1 SWAP2 SWAP1 PUSH2 0x1FA7 SWAP1 DUP5 SWAP1 PUSH2 0x32ED JUMP JUMPDEST PUSH1 0x1B DUP2 DUP2 SLOAD DUP2 LT PUSH2 0x20EB JUMPI PUSH2 0x20EB PUSH2 0x338E JUMP JUMPDEST SWAP1 PUSH1 0x0 MSTORE PUSH1 0x20 PUSH1 0x0 KECCAK256 SWAP1 PUSH1 0x4 MUL ADD PUSH1 0x3 ADD SLOAD PUSH1 0x3 SUB PUSH2 0x221B JUMPI PUSH1 0x1B DUP2 DUP2 SLOAD DUP2 LT PUSH2 0x2117 JUMPI PUSH2 0x2117 PUSH2 0x338E JUMP JUMPDEST SWAP1 PUSH1 0x0 MSTORE PUSH1 0x20 PUSH1 0x0 KECCAK256 SWAP1 PUSH1 0x4 MUL ADD PUSH1 0x2 ADD SLOAD PUSH1 0x17 PUSH1 0x0 PUSH1 0x1B DUP5 DUP2 SLOAD DUP2 LT PUSH2 0x2140 JUMPI PUSH2 0x2140 PUSH2 0x338E JUMP JUMPDEST PUSH1 0x0 SWAP2 DUP3 MSTORE PUSH1 0x20 DUP1 DUP4 KECCAK256 PUSH1 0x4 SWAP3 DUP4 MUL ADD SLOAD PUSH1 0x1 PUSH1 0x1 PUSH1 0xA0 SHL SUB AND DUP5 MSTORE DUP4 ADD SWAP4 SWAP1 SWAP4 MSTORE PUSH1 0x40 SWAP1 SWAP2 ADD DUP2 KECCAK256 SWAP1 SWAP2 ADD DUP1 SLOAD SWAP1 SWAP2 SWAP1 PUSH2 0x217C SWAP1 DUP5 SWAP1 PUSH2 0x3300 JUMP JUMPDEST SWAP1 SWAP2 SSTORE POP POP PUSH1 0x1B DUP1 SLOAD DUP3 SWAP1 DUP2 LT PUSH2 0x2195 JUMPI PUSH2 0x2195 PUSH2 0x338E JUMP JUMPDEST SWAP1 PUSH1 0x0 MSTORE PUSH1 0x20 PUSH1 0x0 KECCAK256 SWAP1 PUSH1 0x4 MUL ADD PUSH1 0x2 ADD SLOAD PUSH1 0x17 PUSH1 0x0 PUSH1 0x1B DUP5 DUP2 SLOAD DUP2 LT PUSH2 0x21BE JUMPI PUSH2 0x21BE PUSH2 0x338E JUMP JUMPDEST SWAP1 PUSH1 0x0 MSTORE PUSH1 0x20 PUSH1 0x0 KECCAK256 SWAP1 PUSH1 0x4 MUL ADD PUSH1 0x1 ADD PUSH1 0x0 SWAP1 SLOAD SWAP1 PUSH2 0x100 EXP SWAP1 DIV PUSH1 0x1 PUSH1 0x1 PUSH1 0xA0 SHL SUB AND PUSH1 0x1 PUSH1 0x1 PUSH1 0xA0 SHL SUB AND PUSH1 0x1 PUSH1 0x1 PUSH1 0xA0 SHL SUB AND DUP2 MSTORE PUSH1 0x20 ADD SWAP1 DUP2 MSTORE PUSH1 0x20 ADD PUSH1 0x0 KECCAK256 PUSH1 0x4 ADD PUSH1 0x0 DUP3 DUP3 SLOAD PUSH2 0x2215 SWAP2 SWAP1 PUSH2 0x32ED JUMP JUMPDEST SWAP1 SWAP2 SSTORE POP POP JUMPDEST PUSH1 0x1B DUP2 DUP2 SLOAD DUP2 LT PUSH2 0x222E JUMPI PUSH2 0x222E PUSH2 0x338E JUMP JUMPDEST PUSH1 0x0 SWAP2 DUP3 MSTORE PUSH1 0x20 DUP3 KECCAK256 PUSH1 0x4 SWAP1 SWAP2 MUL ADD DUP1 SLOAD PUSH1 0x1 PUSH1 0x1 PUSH1 0xA0 SHL SUB NOT SWAP1 DUP2 AND DUP3 SSTORE PUSH1 0x1 DUP3 ADD DUP1 SLOAD SWAP1 SWAP2 AND SWAP1 SSTORE PUSH1 0x2 DUP2 ADD DUP3 SWAP1 SSTORE PUSH1 0x3 ADD SSTORE POP JUMP JUMPDEST PUSH1 0x60 PUSH1 0x2 DUP1 CALLER PUSH1 0x0 SWAP1 DUP2 MSTORE PUSH1 0x17 PUSH1 0x20 MSTORE PUSH1 0x40 SWAP1 KECCAK256 PUSH1 0x5 ADD SLOAD PUSH2 0x100 SWAP1 DIV PUSH1 0xFF AND PUSH1 0x3 DUP2 GT ISZERO PUSH2 0x2297 JUMPI PUSH2 0x2297 PUSH2 0x304D JUMP JUMPDEST EQ PUSH2 0x22B4 JUMPI PUSH1 0x40 MLOAD PUSH3 0x461BCD PUSH1 0xE5 SHL DUP2 MSTORE PUSH1 0x4 ADD PUSH2 0x84A SWAP1 PUSH2 0x3357 JUMP JUMPDEST PUSH1 0x19 DUP1 SLOAD DUP1 PUSH1 0x20 MUL PUSH1 0x20 ADD PUSH1 0x40 MLOAD SWAP1 DUP2 ADD PUSH1 0x40 MSTORE DUP1 SWAP3 SWAP2 SWAP1 DUP2 DUP2 MSTORE PUSH1 0x20 ADD PUSH1 0x0 SWAP1 JUMPDEST DUP3 DUP3 LT ISZERO PUSH2 0x1D4E JUMPI DUP4 DUP3 SWAP1 PUSH1 0x0 MSTORE PUSH1 0x20 PUSH1 0x0 KECCAK256 SWAP1 PUSH1 0x2 MUL ADD PUSH1 0x40 MLOAD DUP1 PUSH1 0x60 ADD PUSH1 0x40 MSTORE SWAP1 DUP2 PUSH1 0x0 DUP3 ADD DUP1 SLOAD PUSH2 0x2309 SWAP1 PUSH2 0x324E JUMP JUMPDEST DUP1 PUSH1 0x1F ADD PUSH1 0x20 DUP1 SWAP2 DIV MUL PUSH1 0x20 ADD PUSH1 0x40 MLOAD SWAP1 DUP2 ADD PUSH1 0x40 MSTORE DUP1 SWAP3 SWAP2 SWAP1 DUP2 DUP2 MSTORE PUSH1 0x20 ADD DUP3 DUP1 SLOAD PUSH2 0x2335 SWAP1 PUSH2 0x324E JUMP JUMPDEST DUP1 ISZERO PUSH2 0x2382 JUMPI DUP1 PUSH1 0x1F LT PUSH2 0x2357 JUMPI PUSH2 0x100 DUP1 DUP4 SLOAD DIV MUL DUP4 MSTORE SWAP2 PUSH1 0x20 ADD SWAP2 PUSH2 0x2382 JUMP JUMPDEST DUP3 ADD SWAP2 SWAP1 PUSH1 0x0 MSTORE PUSH1 0x20 PUSH1 0x0 KECCAK256 SWAP1 JUMPDEST DUP2 SLOAD DUP2 MSTORE SWAP1 PUSH1 0x1 ADD SWAP1 PUSH1 0x20 ADD DUP1 DUP4 GT PUSH2 0x2365 JUMPI DUP3 SWAP1 SUB PUSH1 0x1F AND DUP3 ADD SWAP2 JUMPDEST POP POP POP SWAP2 DUP4 MSTORE POP POP PUSH1 0x1 SWAP2 DUP3 ADD SLOAD PUSH1 0x1 PUSH1 0x1 PUSH1 0xA0 SHL SUB DUP2 AND PUSH1 0x20 DUP1 DUP5 ADD SWAP2 SWAP1 SWAP2 MSTORE PUSH1 0x1 PUSH1 0xA0 SHL SWAP1 SWAP2 DIV PUSH1 0xFF AND ISZERO ISZERO PUSH1 0x40 SWAP1 SWAP3 ADD SWAP2 SWAP1 SWAP2 MSTORE SWAP2 DUP4 MSTORE SWAP3 SWAP1 SWAP3 ADD SWAP2 ADD PUSH2 0x22D6 JUMP JUMPDEST DUP1 PUSH1 0x1 SUB PUSH2 0x2544 JUMPI CALLER PUSH1 0x0 SWAP1 DUP2 MSTORE PUSH1 0x17 PUSH1 0x20 MSTORE PUSH1 0x40 SWAP1 KECCAK256 PUSH1 0x2 ADD SLOAD DUP3 GT ISZERO PUSH2 0x2446 JUMPI PUSH1 0x40 MLOAD PUSH3 0x461BCD PUSH1 0xE5 SHL DUP2 MSTORE PUSH1 0x20 PUSH1 0x4 DUP3 ADD MSTORE PUSH1 0x2C PUSH1 0x24 DUP3 ADD MSTORE PUSH32 0xD0A320D0B2D0B0D18120D0BDD0B5D0B4D0BED181D182D0B0D182D0BED187D0BD PUSH1 0x44 DUP3 ADD MSTORE PUSH12 0x685F1039B2B2B21021A6A7A7 PUSH1 0xA1 SHL PUSH1 0x64 DUP3 ADD MSTORE PUSH1 0x84 ADD PUSH2 0x84A JUMP JUMPDEST PUSH1 0x40 DUP1 MLOAD PUSH1 0x80 DUP2 ADD DUP3 MSTORE CALLER DUP2 MSTORE PUSH1 0x1 PUSH1 0x1 PUSH1 0xA0 SHL SUB DUP6 DUP2 AND PUSH1 0x20 DUP4 ADD SWAP1 DUP2 MSTORE SWAP3 DUP3 ADD DUP6 DUP2 MSTORE PUSH1 0x60 DUP4 ADD DUP6 DUP2 MSTORE PUSH1 0x1B DUP1 SLOAD PUSH1 0x1 DUP2 ADD DUP3 SSTORE PUSH1 0x0 SWAP2 SWAP1 SWAP2 MSTORE SWAP4 MLOAD PUSH1 0x4 SWAP1 SWAP5 MUL PUSH32 0x3AD8AA4F87544323A9D1E5DD902F40C356527A7955687113DB5F9A85AD579DC1 DUP2 ADD DUP1 SLOAD SWAP6 DUP6 AND PUSH1 0x1 PUSH1 0x1 PUSH1 0xA0 SHL SUB NOT SWAP7 DUP8 AND OR SWAP1 SSTORE SWAP5 MLOAD PUSH32 0x3AD8AA4F87544323A9D1E5DD902F40C356527A7955687113DB5F9A85AD579DC2 DUP7 ADD DUP1 SLOAD SWAP2 SWAP1 SWAP5 AND SWAP5 AND SWAP4 SWAP1 SWAP4 OR SWAP1 SWAP2 SSTORE MLOAD PUSH32 0x3AD8AA4F87544323A9D1E5DD902F40C356527A7955687113DB5F9A85AD579DC3 DUP4 ADD SSTORE MLOAD PUSH32 0x3AD8AA4F87544323A9D1E5DD902F40C356527A7955687113DB5F9A85AD579DC4 SWAP1 SWAP2 ADD SSTORE POP POP POP JUMP JUMPDEST DUP1 PUSH1 0x2 SUB PUSH2 0x25C6 JUMPI CALLER PUSH1 0x0 SWAP1 DUP2 MSTORE PUSH1 0x17 PUSH1 0x20 MSTORE PUSH1 0x40 SWAP1 KECCAK256 PUSH1 0x3 ADD SLOAD DUP3 GT ISZERO PUSH2 0x2446 JUMPI PUSH1 0x40 MLOAD PUSH3 0x461BCD PUSH1 0xE5 SHL DUP2 MSTORE PUSH1 0x20 PUSH1 0x4 DUP3 ADD MSTORE PUSH1 0x2F PUSH1 0x24 DUP3 ADD MSTORE PUSH32 0xD0A320D0B2D0B0D18120D0BDD0B5D0B4D0BED181D182D0B0D182D0BED187D0BD PUSH1 0x44 DUP3 ADD MSTORE PUSH15 0x685F10383934BB30BA329021A6A7A7 PUSH1 0x89 SHL PUSH1 0x64 DUP3 ADD MSTORE PUSH1 0x84 ADD PUSH2 0x84A JUMP JUMPDEST DUP1 PUSH1 0x3 SUB PUSH2 0x110B JUMPI CALLER PUSH1 0x0 SWAP1 DUP2 MSTORE PUSH1 0x17 PUSH1 0x20 MSTORE PUSH1 0x40 SWAP1 KECCAK256 PUSH1 0x4 ADD SLOAD DUP3 GT ISZERO PUSH2 0x2446 JUMPI PUSH1 0x40 MLOAD PUSH3 0x461BCD PUSH1 0xE5 SHL DUP2 MSTORE PUSH1 0x20 PUSH1 0x4 DUP3 ADD MSTORE PUSH1 0x2E PUSH1 0x24 DUP3 ADD MSTORE PUSH32 0xD0A320D0B2D0B0D18120D0BDD0B5D0B4D0BED181D182D0B0D182D0BED187D0BD PUSH1 0x44 DUP3 ADD MSTORE PUSH14 0x685F10383AB13634B19021A6A7A7 PUSH1 0x91 SHL PUSH1 0x64 DUP3 ADD MSTORE PUSH1 0x84 ADD PUSH2 0x84A JUMP JUMPDEST PUSH1 0x3C PUSH1 0x6 PUSH1 0x0 DUP3 DUP3 SLOAD PUSH2 0x265A SWAP2 SWAP1 PUSH2 0x32ED JUMP JUMPDEST SWAP1 SWAP2 SSTORE POP POP JUMP JUMPDEST PUSH1 0x8 SLOAD PUSH2 0x266C PUSH2 0x17FE JUMP JUMPDEST LT PUSH2 0x2719 JUMPI PUSH1 0x40 MLOAD PUSH3 0x461BCD PUSH1 0xE5 SHL DUP2 MSTORE PUSH1 0x20 PUSH1 0x4 DUP3 ADD MSTORE PUSH1 0x6B PUSH1 0x24 DUP3 ADD MSTORE PUSH32 0xD097D0B0D18FD0B2D0BAD18320D0BCD0BED0B6D0BDD0BE20D0BFD0BED0B4D0B0 PUSH1 0x44 DUP3 ADD MSTORE PUSH32 0xD182D18C20D182D0BED0BBD18CD0BAD0BE20D0B2D0BE20D0B2D180D0B5D0BCD1 PUSH1 0x64 DUP3 ADD MSTORE PUSH32 0x8F20D0BFD0BED0B4D0B3D0BED182D0BED0B2D0B8D182D0B5D0BBD18CD0BDD0BE PUSH1 0x84 DUP3 ADD MSTORE PUSH11 0xD0B920D184D0B0D0B7D18B PUSH1 0xA8 SHL PUSH1 0xA4 DUP3 ADD MSTORE PUSH1 0xC4 ADD PUSH2 0x84A JUMP JUMPDEST CALLER PUSH1 0x0 SWAP1 DUP2 MSTORE PUSH1 0x17 PUSH1 0x20 MSTORE PUSH1 0x40 SWAP1 KECCAK256 PUSH1 0x5 ADD SLOAD PUSH1 0xFF AND ISZERO PUSH2 0x2786 JUMPI PUSH1 0x40 MLOAD PUSH3 0x461BCD PUSH1 0xE5 SHL DUP2 MSTORE PUSH1 0x20 PUSH1 0x4 DUP3 ADD MSTORE PUSH1 0x21 PUSH1 0x24 DUP3 ADD MSTORE PUSH32 0xD092D18B20D183D0B6D0B520D0B220D0B2D0B0D0B9D182D0BBD0B8D181D182D0 PUSH1 0x44 DUP3 ADD MSTORE PUSH1 0xB5 PUSH1 0xF8 SHL PUSH1 0x64 DUP3 ADD MSTORE PUSH1 0x84 ADD PUSH2 0x84A JUMP JUMPDEST PUSH1 0x0 JUMPDEST PUSH1 0x19 SLOAD DUP2 LT ISZERO PUSH2 0x2848 JUMPI CALLER PUSH1 0x1 PUSH1 0x1 PUSH1 0xA0 SHL SUB AND PUSH1 0x19 DUP3 DUP2 SLOAD DUP2 LT PUSH2 0x27B0 JUMPI PUSH2 0x27B0 PUSH2 0x338E JUMP JUMPDEST PUSH1 0x0 SWAP2 DUP3 MSTORE PUSH1 0x20 SWAP1 SWAP2 KECCAK256 PUSH1 0x1 PUSH1 0x2 SWAP1 SWAP3 MUL ADD ADD SLOAD PUSH1 0x1 PUSH1 0x1 PUSH1 0xA0 SHL SUB AND SUB PUSH2 0x2840 JUMPI PUSH1 0x40 MLOAD PUSH3 0x461BCD PUSH1 0xE5 SHL DUP2 MSTORE PUSH1 0x20 PUSH1 0x4 DUP3 ADD MSTORE PUSH1 0x39 PUSH1 0x24 DUP3 ADD MSTORE PUSH32 0xD092D18B20D183D0B6D0B520D0BFD0BED0B4D0B0D0BBD0B820D0B7D0B0D18FD0 PUSH1 0x44 DUP3 ADD MSTORE PUSH32 0xB2D0BAD18320D0B220D0B2D0B0D0B9D182D0BBD0B8D181D18200000000000000 PUSH1 0x64 DUP3 ADD MSTORE PUSH1 0x84 ADD PUSH2 0x84A JUMP JUMPDEST PUSH1 0x1 ADD PUSH2 0x2789 JUMP JUMPDEST POP PUSH1 0x40 DUP1 MLOAD PUSH1 0x60 DUP2 ADD DUP3 MSTORE CALLER PUSH1 0x0 SWAP1 DUP2 MSTORE PUSH1 0x17 PUSH1 0x20 MSTORE SWAP2 SWAP1 SWAP2 KECCAK256 DUP1 SLOAD PUSH1 0x19 SWAP3 SWAP2 DUP3 SWAP2 PUSH2 0x2873 SWAP1 PUSH2 0x324E JUMP JUMPDEST DUP1 PUSH1 0x1F ADD PUSH1 0x20 DUP1 SWAP2 DIV MUL PUSH1 0x20 ADD PUSH1 0x40 MLOAD SWAP1 DUP2 ADD PUSH1 0x40 MSTORE DUP1 SWAP3 SWAP2 SWAP1 DUP2 DUP2 MSTORE PUSH1 0x20 ADD DUP3 DUP1 SLOAD PUSH2 0x289F SWAP1 PUSH2 0x324E JUMP JUMPDEST DUP1 ISZERO PUSH2 0x28EC JUMPI DUP1 PUSH1 0x1F LT PUSH2 0x28C1 JUMPI PUSH2 0x100 DUP1 DUP4 SLOAD DIV MUL DUP4 MSTORE SWAP2 PUSH1 0x20 ADD SWAP2 PUSH2 0x28EC JUMP JUMPDEST DUP3 ADD SWAP2 SWAP1 PUSH1 0x0 MSTORE PUSH1 0x20 PUSH1 0x0 KECCAK256 SWAP1 JUMPDEST DUP2 SLOAD DUP2 MSTORE SWAP1 PUSH1 0x1 ADD SWAP1 PUSH1 0x20 ADD DUP1 DUP4 GT PUSH2 0x28CF JUMPI DUP3 SWAP1 SUB PUSH1 0x1F AND DUP3 ADD SWAP2 JUMPDEST POP POP POP SWAP2 DUP4 MSTORE POP POP CALLER PUSH1 0x20 DUP1 DUP4 ADD SWAP2 SWAP1 SWAP2 MSTORE PUSH1 0x0 PUSH1 0x40 SWAP1 SWAP3 ADD DUP3 SWAP1 MSTORE DUP4 SLOAD PUSH1 0x1 DUP2 ADD DUP6 SSTORE SWAP4 DUP3 MSTORE SWAP1 KECCAK256 DUP2 MLOAD SWAP2 SWAP3 PUSH1 0x2 MUL ADD SWAP1 DUP2 SWAP1 PUSH2 0x292A SWAP1 DUP3 PUSH2 0x33F4 JUMP JUMPDEST POP PUSH1 0x20 DUP3 ADD MLOAD PUSH1 0x1 SWAP1 SWAP2 ADD DUP1 SLOAD PUSH1 0x40 SWAP1 SWAP4 ADD MLOAD ISZERO ISZERO PUSH1 0x1 PUSH1 0xA0 SHL MUL PUSH1 0x1 PUSH1 0x1 PUSH1 0xA8 SHL SUB NOT SWAP1 SWAP4 AND PUSH1 0x1 PUSH1 0x1 PUSH1 0xA0 SHL SUB SWAP1 SWAP3 AND SWAP2 SWAP1 SWAP2 OR SWAP2 SWAP1 SWAP2 OR SWAP1 SSTORE JUMP JUMPDEST PUSH1 0x0 PUSH1 0x1 DUP1 CALLER PUSH1 0x0 SWAP1 DUP2 MSTORE PUSH1 0x17 PUSH1 0x20 MSTORE PUSH1 0x40 SWAP1 KECCAK256 PUSH1 0x5 ADD SLOAD PUSH2 0x100 SWAP1 DIV PUSH1 0xFF AND PUSH1 0x3 DUP2 GT ISZERO PUSH2 0x2999 JUMPI PUSH2 0x2999 PUSH2 0x304D JUMP JUMPDEST EQ PUSH2 0x29B6 JUMPI PUSH1 0x40 MLOAD PUSH3 0x461BCD PUSH1 0xE5 SHL DUP2 MSTORE PUSH1 0x4 ADD PUSH2 0x84A SWAP1 PUSH2 0x3357 JUMP JUMPDEST POP POP PUSH1 0x1 PUSH1 0x1 PUSH1 0xA0 SHL SUB AND PUSH1 0x0 SWAP1 DUP2 MSTORE PUSH1 0x17 PUSH1 0x20 MSTORE PUSH1 0x40 SWAP1 KECCAK256 PUSH1 0x4 ADD SLOAD SWAP1 JUMP JUMPDEST PUSH2 0x29DE PUSH2 0x2D45 JUMP JUMPDEST PUSH1 0x3 DUP1 CALLER PUSH1 0x0 SWAP1 DUP2 MSTORE PUSH1 0x17 PUSH1 0x20 MSTORE PUSH1 0x40 SWAP1 KECCAK256 PUSH1 0x5 ADD SLOAD PUSH2 0x100 SWAP1 DIV PUSH1 0xFF AND PUSH1 0x3 DUP2 GT ISZERO PUSH2 0x2A0D JUMPI PUSH2 0x2A0D PUSH2 0x304D JUMP JUMPDEST EQ PUSH2 0x2A2A JUMPI PUSH1 0x40 MLOAD PUSH3 0x461BCD PUSH1 0xE5 SHL DUP2 MSTORE PUSH1 0x4 ADD PUSH2 0x84A SWAP1 PUSH2 0x3357 JUMP JUMPDEST PUSH1 0x1 PUSH1 0x1 PUSH1 0xA0 SHL SUB DUP4 AND PUSH1 0x0 SWAP1 DUP2 MSTORE PUSH1 0x17 PUSH1 0x20 MSTORE PUSH1 0x40 SWAP1 DUP2 SWAP1 KECCAK256 DUP2 MLOAD PUSH1 0xE0 DUP2 ADD SWAP1 SWAP3 MSTORE DUP1 SLOAD DUP3 SWAP1 DUP3 SWAP1 PUSH2 0x8A8 SWAP1 PUSH2 0x324E JUMP JUMPDEST PUSH2 0x110B DUP4 DUP4 DUP4 PUSH1 0x1 PUSH2 0x2B46 JUMP JUMPDEST PUSH1 0x1 PUSH1 0x1 PUSH1 0xA0 SHL SUB DUP4 DUP2 AND PUSH1 0x0 SWAP1 DUP2 MSTORE PUSH1 0x1 PUSH1 0x20 SWAP1 DUP2 MSTORE PUSH1 0x40 DUP1 DUP4 KECCAK256 SWAP4 DUP7 AND DUP4 MSTORE SWAP3 SWAP1 MSTORE KECCAK256 SLOAD PUSH1 0x0 NOT DUP2 EQ PUSH2 0x2AE1 JUMPI DUP2 DUP2 LT ISZERO PUSH2 0x2AD2 JUMPI PUSH1 0x40 MLOAD PUSH4 0x7DC7A0D9 PUSH1 0xE1 SHL DUP2 MSTORE PUSH1 0x1 PUSH1 0x1 PUSH1 0xA0 SHL SUB DUP5 AND PUSH1 0x4 DUP3 ADD MSTORE PUSH1 0x24 DUP2 ADD DUP3 SWAP1 MSTORE PUSH1 0x44 DUP2 ADD DUP4 SWAP1 MSTORE PUSH1 0x64 ADD PUSH2 0x84A JUMP JUMPDEST PUSH2 0x2AE1 DUP5 DUP5 DUP5 DUP5 SUB PUSH1 0x0 PUSH2 0x2B46 JUMP JUMPDEST POP POP POP POP JUMP JUMPDEST PUSH1 0x1 PUSH1 0x1 PUSH1 0xA0 SHL SUB DUP4 AND PUSH2 0x2B11 JUMPI PUSH1 0x40 MLOAD PUSH4 0x4B637E8F PUSH1 0xE1 SHL DUP2 MSTORE PUSH1 0x0 PUSH1 0x4 DUP3 ADD MSTORE PUSH1 0x24 ADD PUSH2 0x84A JUMP JUMPDEST PUSH1 0x1 PUSH1 0x1 PUSH1 0xA0 SHL SUB DUP3 AND PUSH2 0x2B3B JUMPI PUSH1 0x40 MLOAD PUSH4 0xEC442F05 PUSH1 0xE0 SHL DUP2 MSTORE PUSH1 0x0 PUSH1 0x4 DUP3 ADD MSTORE PUSH1 0x24 ADD PUSH2 0x84A JUMP JUMPDEST PUSH2 0x110B DUP4 DUP4 DUP4 PUSH2 0x2C1B JUMP JUMPDEST PUSH1 0x1 PUSH1 0x1 PUSH1 0xA0 SHL SUB DUP5 AND PUSH2 0x2B70 JUMPI PUSH1 0x40 MLOAD PUSH4 0xE602DF05 PUSH1 0xE0 SHL DUP2 MSTORE PUSH1 0x0 PUSH1 0x4 DUP3 ADD MSTORE PUSH1 0x24 ADD PUSH2 0x84A JUMP JUMPDEST PUSH1 0x1 PUSH1 0x1 PUSH1 0xA0 SHL SUB DUP4 AND PUSH2 0x2B9A JUMPI PUSH1 0x40 MLOAD PUSH4 0x4A1406B1 PUSH1 0xE1 SHL DUP2 MSTORE PUSH1 0x0 PUSH1 0x4 DUP3 ADD MSTORE PUSH1 0x24 ADD PUSH2 0x84A JUMP JUMPDEST PUSH1 0x1 PUSH1 0x1 PUSH1 0xA0 SHL SUB DUP1 DUP6 AND PUSH1 0x0 SWAP1 DUP2 MSTORE PUSH1 0x1 PUSH1 0x20 SWAP1 DUP2 MSTORE PUSH1 0x40 DUP1 DUP4 KECCAK256 SWAP4 DUP8 AND DUP4 MSTORE SWAP3 SWAP1 MSTORE KECCAK256 DUP3 SWAP1 SSTORE DUP1 ISZERO PUSH2 0x2AE1 JUMPI DUP3 PUSH1 0x1 PUSH1 0x1 PUSH1 0xA0 SHL SUB AND DUP5 PUSH1 0x1 PUSH1 0x1 PUSH1 0xA0 SHL SUB AND PUSH32 0x8C5BE1E5EBEC7D5BD14F71427D1E84F3DD0314C0F7B2291E5B200AC8C7C3B925 DUP5 PUSH1 0x40 MLOAD PUSH2 0x2C0D SWAP2 DUP2 MSTORE PUSH1 0x20 ADD SWAP1 JUMP JUMPDEST PUSH1 0x40 MLOAD DUP1 SWAP2 SUB SWAP1 LOG3 POP POP POP POP JUMP JUMPDEST PUSH1 0x1 PUSH1 0x1 PUSH1 0xA0 SHL SUB DUP4 AND PUSH2 0x2C46 JUMPI DUP1 PUSH1 0x2 PUSH1 0x0 DUP3 DUP3 SLOAD PUSH2 0x2C3B SWAP2 SWAP1 PUSH2 0x32ED JUMP JUMPDEST SWAP1 SWAP2 SSTORE POP PUSH2 0x2CB8 SWAP1 POP JUMP JUMPDEST PUSH1 0x1 PUSH1 0x1 PUSH1 0xA0 SHL SUB DUP4 AND PUSH1 0x0 SWAP1 DUP2 MSTORE PUSH1 0x20 DUP2 SWAP1 MSTORE PUSH1 0x40 SWAP1 KECCAK256 SLOAD DUP2 DUP2 LT ISZERO PUSH2 0x2C99 JUMPI PUSH1 0x40 MLOAD PUSH4 0x391434E3 PUSH1 0xE2 SHL DUP2 MSTORE PUSH1 0x1 PUSH1 0x1 PUSH1 0xA0 SHL SUB DUP6 AND PUSH1 0x4 DUP3 ADD MSTORE PUSH1 0x24 DUP2 ADD DUP3 SWAP1 MSTORE PUSH1 0x44 DUP2 ADD DUP4 SWAP1 MSTORE PUSH1 0x64 ADD PUSH2 0x84A JUMP JUMPDEST PUSH1 0x1 PUSH1 0x1 PUSH1 0xA0 SHL SUB DUP5 AND PUSH1 0x0 SWAP1 DUP2 MSTORE PUSH1 0x20 DUP2 SWAP1 MSTORE PUSH1 0x40 SWAP1 KECCAK256 SWAP1 DUP3 SWAP1 SUB SWAP1 SSTORE JUMPDEST PUSH1 0x1 PUSH1 0x1 PUSH1 0xA0 SHL SUB DUP3 AND PUSH2 0x2CD4 JUMPI PUSH1 0x2 DUP1 SLOAD DUP3 SWAP1 SUB SWAP1 SSTORE PUSH2 0x2CF3 JUMP JUMPDEST PUSH1 0x1 PUSH1 0x1 PUSH1 0xA0 SHL SUB DUP3 AND PUSH1 0x0 SWAP1 DUP2 MSTORE PUSH1 0x20 DUP2 SWAP1 MSTORE PUSH1 0x40 SWAP1 KECCAK256 DUP1 SLOAD DUP3 ADD SWAP1 SSTORE JUMPDEST DUP2 PUSH1 0x1 PUSH1 0x1 PUSH1 0xA0 SHL SUB AND DUP4 PUSH1 0x1 PUSH1 0x1 PUSH1 0xA0 SHL SUB AND PUSH32 0xDDF252AD1BE2C89B69C2B068FC378DAA952BA7F163C4A11628F55A4DF523B3EF DUP4 PUSH1 0x40 MLOAD PUSH2 0x2D38 SWAP2 DUP2 MSTORE PUSH1 0x20 ADD SWAP1 JUMP JUMPDEST PUSH1 0x40 MLOAD DUP1 SWAP2 SUB SWAP1 LOG3 POP POP POP JUMP JUMPDEST PUSH1 0x40 MLOAD DUP1 PUSH1 0xE0 ADD PUSH1 0x40 MSTORE DUP1 PUSH1 0x60 DUP2 MSTORE PUSH1 0x20 ADD PUSH1 0x0 PUSH1 0x1 PUSH1 0x1 PUSH1 0xA0 SHL SUB AND DUP2 MSTORE PUSH1 0x20 ADD PUSH1 0x0 DUP2 MSTORE PUSH1 0x20 ADD PUSH1 0x0 DUP2 MSTORE PUSH1 0x20 ADD PUSH1 0x0 DUP2 MSTORE PUSH1 0x20 ADD PUSH1 0x0 ISZERO ISZERO DUP2 MSTORE PUSH1 0x20 ADD PUSH1 0x0 PUSH1 0x3 DUP2 GT ISZERO PUSH2 0x2D98 JUMPI PUSH2 0x2D98 PUSH2 0x304D JUMP JUMPDEST SWAP1 MSTORE SWAP1 JUMP JUMPDEST POP DUP1 SLOAD PUSH2 0x2DA9 SWAP1 PUSH2 0x324E JUMP JUMPDEST PUSH1 0x0 DUP3 SSTORE DUP1 PUSH1 0x1F LT PUSH2 0x2DB9 JUMPI POP POP JUMP JUMPDEST PUSH1 0x1F ADD PUSH1 0x20 SWAP1 DIV SWAP1 PUSH1 0x0 MSTORE PUSH1 0x20 PUSH1 0x0 KECCAK256 SWAP1 DUP2 ADD SWAP1 PUSH2 0x2DD7 SWAP2 SWAP1 PUSH2 0x2DDA JUMP JUMPDEST POP JUMP JUMPDEST JUMPDEST DUP1 DUP3 GT ISZERO PUSH2 0x1D55 JUMPI PUSH1 0x0 DUP2 SSTORE PUSH1 0x1 ADD PUSH2 0x2DDB JUMP JUMPDEST PUSH1 0x0 JUMPDEST DUP4 DUP2 LT ISZERO PUSH2 0x2E0A JUMPI DUP2 DUP2 ADD MLOAD DUP4 DUP3 ADD MSTORE PUSH1 0x20 ADD PUSH2 0x2DF2 JUMP JUMPDEST POP POP PUSH1 0x0 SWAP2 ADD MSTORE JUMP JUMPDEST PUSH1 0x0 DUP2 MLOAD DUP1 DUP5 MSTORE PUSH2 0x2E2B DUP2 PUSH1 0x20 DUP7 ADD PUSH1 0x20 DUP7 ADD PUSH2 0x2DEF JUMP JUMPDEST PUSH1 0x1F ADD PUSH1 0x1F NOT AND SWAP3 SWAP1 SWAP3 ADD PUSH1 0x20 ADD SWAP3 SWAP2 POP POP JUMP JUMPDEST PUSH1 0x20 DUP2 MSTORE PUSH1 0x0 PUSH2 0x2E52 PUSH1 0x20 DUP4 ADD DUP5 PUSH2 0x2E13 JUMP JUMPDEST SWAP4 SWAP3 POP POP POP JUMP JUMPDEST DUP1 CALLDATALOAD PUSH1 0x1 PUSH1 0x1 PUSH1 0xA0 SHL SUB DUP2 AND DUP2 EQ PUSH2 0x1151 JUMPI PUSH1 0x0 DUP1 REVERT JUMPDEST PUSH1 0x0 DUP1 PUSH1 0x40 DUP4 DUP6 SUB SLT ISZERO PUSH2 0x2E83 JUMPI PUSH1 0x0 DUP1 REVERT JUMPDEST PUSH2 0x2E8C DUP4 PUSH2 0x2E59 JUMP JUMPDEST SWAP5 PUSH1 0x20 SWAP4 SWAP1 SWAP4 ADD CALLDATALOAD SWAP4 POP POP POP JUMP JUMPDEST PUSH1 0x20 DUP1 DUP3 MSTORE DUP3 MLOAD DUP3 DUP3 ADD DUP2 SWAP1 MSTORE PUSH1 0x0 SWAP2 SWAP1 PUSH1 0x40 SWAP1 DUP2 DUP6 ADD SWAP1 DUP7 DUP5 ADD DUP6 JUMPDEST DUP3 DUP2 LT ISZERO PUSH2 0x2EFD JUMPI DUP2 MLOAD DUP1 MLOAD PUSH1 0x1 PUSH1 0x1 PUSH1 0xA0 SHL SUB SWAP1 DUP2 AND DUP7 MSTORE DUP8 DUP3 ADD MLOAD AND DUP8 DUP7 ADD MSTORE DUP6 DUP2 ADD MLOAD DUP7 DUP7 ADD MSTORE PUSH1 0x60 SWAP1 DUP2 ADD MLOAD SWAP1 DUP6 ADD MSTORE PUSH1 0x80 SWAP1 SWAP4 ADD SWAP3 SWAP1 DUP6 ADD SWAP1 PUSH1 0x1 ADD PUSH2 0x2EB7 JUMP JUMPDEST POP SWAP2 SWAP8 SWAP7 POP POP POP POP POP POP POP JUMP JUMPDEST PUSH1 0x0 DUP1 PUSH1 0x0 PUSH1 0x60 DUP5 DUP7 SUB SLT ISZERO PUSH2 0x2F1F JUMPI PUSH1 0x0 DUP1 REVERT JUMPDEST PUSH2 0x2F28 DUP5 PUSH2 0x2E59 JUMP JUMPDEST SWAP3 POP PUSH2 0x2F36 PUSH1 0x20 DUP6 ADD PUSH2 0x2E59 JUMP JUMPDEST SWAP2 POP PUSH1 0x40 DUP5 ADD CALLDATALOAD SWAP1 POP SWAP3 POP SWAP3 POP SWAP3 JUMP JUMPDEST PUSH4 0x4E487B71 PUSH1 0xE0 SHL PUSH1 0x0 MSTORE PUSH1 0x41 PUSH1 0x4 MSTORE PUSH1 0x24 PUSH1 0x0 REVERT JUMPDEST PUSH1 0x0 DUP3 PUSH1 0x1F DUP4 ADD SLT PUSH2 0x2F6D JUMPI PUSH1 0x0 DUP1 REVERT JUMPDEST DUP2 CALLDATALOAD PUSH8 0xFFFFFFFFFFFFFFFF DUP1 DUP3 GT ISZERO PUSH2 0x2F88 JUMPI PUSH2 0x2F88 PUSH2 0x2F46 JUMP JUMPDEST PUSH1 0x40 MLOAD PUSH1 0x1F DUP4 ADD PUSH1 0x1F NOT SWAP1 DUP2 AND PUSH1 0x3F ADD AND DUP2 ADD SWAP1 DUP3 DUP3 GT DUP2 DUP4 LT OR ISZERO PUSH2 0x2FB0 JUMPI PUSH2 0x2FB0 PUSH2 0x2F46 JUMP JUMPDEST DUP2 PUSH1 0x40 MSTORE DUP4 DUP2 MSTORE DUP7 PUSH1 0x20 DUP6 DUP9 ADD ADD GT ISZERO PUSH2 0x2FC9 JUMPI PUSH1 0x0 DUP1 REVERT JUMPDEST DUP4 PUSH1 0x20 DUP8 ADD PUSH1 0x20 DUP4 ADD CALLDATACOPY PUSH1 0x0 PUSH1 0x20 DUP6 DUP4 ADD ADD MSTORE DUP1 SWAP5 POP POP POP POP POP SWAP3 SWAP2 POP POP JUMP JUMPDEST PUSH1 0x0 DUP1 PUSH1 0x40 DUP4 DUP6 SUB SLT ISZERO PUSH2 0x2FFC JUMPI PUSH1 0x0 DUP1 REVERT JUMPDEST DUP3 CALLDATALOAD PUSH8 0xFFFFFFFFFFFFFFFF DUP1 DUP3 GT ISZERO PUSH2 0x3014 JUMPI PUSH1 0x0 DUP1 REVERT JUMPDEST PUSH2 0x3020 DUP7 DUP4 DUP8 ADD PUSH2 0x2F5C JUMP JUMPDEST SWAP4 POP PUSH1 0x20 DUP6 ADD CALLDATALOAD SWAP2 POP DUP1 DUP3 GT ISZERO PUSH2 0x3036 JUMPI PUSH1 0x0 DUP1 REVERT JUMPDEST POP PUSH2 0x3043 DUP6 DUP3 DUP7 ADD PUSH2 0x2F5C JUMP JUMPDEST SWAP2 POP POP SWAP3 POP SWAP3 SWAP1 POP JUMP JUMPDEST PUSH4 0x4E487B71 PUSH1 0xE0 SHL PUSH1 0x0 MSTORE PUSH1 0x21 PUSH1 0x4 MSTORE PUSH1 0x24 PUSH1 0x0 REVERT JUMPDEST PUSH1 0x20 DUP2 MSTORE PUSH1 0x0 DUP3 MLOAD PUSH1 0xE0 PUSH1 0x20 DUP5 ADD MSTORE PUSH2 0x3080 PUSH2 0x100 DUP5 ADD DUP3 PUSH2 0x2E13 JUMP JUMPDEST SWAP1 POP PUSH1 0x1 DUP1 PUSH1 0xA0 SHL SUB PUSH1 0x20 DUP6 ADD MLOAD AND PUSH1 0x40 DUP5 ADD MSTORE PUSH1 0x40 DUP5 ADD MLOAD PUSH1 0x60 DUP5 ADD MSTORE PUSH1 0x60 DUP5 ADD MLOAD PUSH1 0x80 DUP5 ADD MSTORE PUSH1 0x80 DUP5 ADD MLOAD PUSH1 0xA0 DUP5 ADD MSTORE PUSH1 0xA0 DUP5 ADD MLOAD ISZERO ISZERO PUSH1 0xC0 DUP5 ADD MSTORE PUSH1 0xC0 DUP5 ADD MLOAD PUSH1 0x4 DUP2 LT PUSH2 0x30E1 JUMPI PUSH4 0x4E487B71 PUSH1 0xE0 SHL PUSH1 0x0 MSTORE PUSH1 0x21 PUSH1 0x4 MSTORE PUSH1 0x24 PUSH1 0x0 REVERT JUMPDEST PUSH1 0xE0 SWAP4 SWAP1 SWAP4 ADD SWAP3 SWAP1 SWAP3 MSTORE POP SWAP2 SWAP1 POP JUMP JUMPDEST PUSH1 0x0 PUSH1 0x20 DUP3 DUP5 SUB SLT ISZERO PUSH2 0x3103 JUMPI PUSH1 0x0 DUP1 REVERT JUMPDEST POP CALLDATALOAD SWAP2 SWAP1 POP JUMP JUMPDEST PUSH1 0x0 DUP1 PUSH1 0x0 PUSH1 0x60 DUP5 DUP7 SUB SLT ISZERO PUSH2 0x311F JUMPI PUSH1 0x0 DUP1 REVERT JUMPDEST PUSH2 0x3128 DUP5 PUSH2 0x2E59 JUMP JUMPDEST SWAP6 PUSH1 0x20 DUP6 ADD CALLDATALOAD SWAP6 POP PUSH1 0x40 SWAP1 SWAP5 ADD CALLDATALOAD SWAP4 SWAP3 POP POP POP JUMP JUMPDEST PUSH1 0x0 DUP1 PUSH1 0x40 DUP4 DUP6 SUB SLT ISZERO PUSH2 0x3150 JUMPI PUSH1 0x0 DUP1 REVERT JUMPDEST DUP3 CALLDATALOAD SWAP2 POP PUSH1 0x20 DUP4 ADD CALLDATALOAD DUP1 ISZERO ISZERO DUP2 EQ PUSH2 0x3167 JUMPI PUSH1 0x0 DUP1 REVERT JUMPDEST DUP1 SWAP2 POP POP SWAP3 POP SWAP3 SWAP1 POP JUMP JUMPDEST PUSH1 0x0 PUSH1 0x20 DUP3 DUP5 SUB SLT ISZERO PUSH2 0x3184 JUMPI PUSH1 0x0 DUP1 REVERT JUMPDEST PUSH2 0x2E52 DUP3 PUSH2 0x2E59 JUMP JUMPDEST PUSH1 0x0 PUSH1 0x20 DUP1 DUP4 ADD DUP2 DUP5 MSTORE DUP1 DUP6 MLOAD DUP1 DUP4 MSTORE PUSH1 0x40 SWAP3 POP PUSH1 0x40 DUP7 ADD SWAP2 POP PUSH1 0x40 DUP2 PUSH1 0x5 SHL DUP8 ADD ADD DUP5 DUP9 ADD PUSH1 0x0 JUMPDEST DUP4 DUP2 LT ISZERO PUSH2 0x320D JUMPI PUSH1 0x3F NOT DUP10 DUP5 SUB ADD DUP6 MSTORE DUP2 MLOAD PUSH1 0x60 DUP2 MLOAD DUP2 DUP7 MSTORE PUSH2 0x31DC DUP3 DUP8 ADD DUP3 PUSH2 0x2E13 JUMP JUMPDEST DUP4 DUP12 ADD MLOAD PUSH1 0x1 PUSH1 0x1 PUSH1 0xA0 SHL SUB AND DUP8 DUP13 ADD MSTORE SWAP3 DUP10 ADD MLOAD ISZERO ISZERO SWAP6 DUP10 ADD SWAP6 SWAP1 SWAP6 MSTORE POP SWAP5 DUP8 ADD SWAP5 SWAP3 POP SWAP1 DUP7 ADD SWAP1 PUSH1 0x1 ADD PUSH2 0x31B6 JUMP JUMPDEST POP SWAP1 SWAP9 SWAP8 POP POP POP POP POP POP POP POP JUMP JUMPDEST PUSH1 0x0 DUP1 PUSH1 0x40 DUP4 DUP6 SUB SLT ISZERO PUSH2 0x322E JUMPI PUSH1 0x0 DUP1 REVERT JUMPDEST PUSH2 0x3237 DUP4 PUSH2 0x2E59 JUMP JUMPDEST SWAP2 POP PUSH2 0x3245 PUSH1 0x20 DUP5 ADD PUSH2 0x2E59 JUMP JUMPDEST SWAP1 POP SWAP3 POP SWAP3 SWAP1 POP JUMP JUMPDEST PUSH1 0x1 DUP2 DUP2 SHR SWAP1 DUP3 AND DUP1 PUSH2 0x3262 JUMPI PUSH1 0x7F DUP3 AND SWAP2 POP JUMPDEST PUSH1 0x20 DUP3 LT DUP2 SUB PUSH2 0x144D JUMPI PUSH4 0x4E487B71 PUSH1 0xE0 SHL PUSH1 0x0 MSTORE PUSH1 0x22 PUSH1 0x4 MSTORE PUSH1 0x24 PUSH1 0x0 REVERT JUMPDEST PUSH1 0x0 DUP3 MLOAD PUSH2 0x3294 DUP2 DUP5 PUSH1 0x20 DUP8 ADD PUSH2 0x2DEF JUMP JUMPDEST SWAP2 SWAP1 SWAP2 ADD SWAP3 SWAP2 POP POP JUMP JUMPDEST PUSH4 0x4E487B71 PUSH1 0xE0 SHL PUSH1 0x0 MSTORE PUSH1 0x11 PUSH1 0x4 MSTORE PUSH1 0x24 PUSH1 0x0 REVERT JUMPDEST PUSH1 0x0 DUP3 PUSH2 0x32D1 JUMPI PUSH4 0x4E487B71 PUSH1 0xE0 SHL PUSH1 0x0 MSTORE PUSH1 0x12 PUSH1 0x4 MSTORE PUSH1 0x24 PUSH1 0x0 REVERT JUMPDEST POP DIV SWAP1 JUMP JUMPDEST DUP1 DUP3 MUL DUP2 ISZERO DUP3 DUP3 DIV DUP5 EQ OR PUSH2 0x6E7 JUMPI PUSH2 0x6E7 PUSH2 0x329E JUMP JUMPDEST DUP1 DUP3 ADD DUP1 DUP3 GT ISZERO PUSH2 0x6E7 JUMPI PUSH2 0x6E7 PUSH2 0x329E JUMP JUMPDEST DUP2 DUP2 SUB DUP2 DUP2 GT ISZERO PUSH2 0x6E7 JUMPI PUSH2 0x6E7 PUSH2 0x329E JUMP JUMPDEST PUSH1 0x20 DUP1 DUP3 MSTORE PUSH1 0x24 SWAP1 DUP3 ADD MSTORE PUSH32 0xD09DD0B5D0B4D0BED181D182D0B0D182D0BED187D0BDD0BE207075626C696320 PUSH1 0x40 DUP3 ADD MSTORE PUSH4 0x21A6A7A7 PUSH1 0xE1 SHL PUSH1 0x60 DUP3 ADD MSTORE PUSH1 0x80 ADD SWAP1 JUMP JUMPDEST PUSH1 0x20 DUP1 DUP3 MSTORE PUSH1 0x1F SWAP1 DUP3 ADD MSTORE PUSH32 0xD0A320D0B2D0B0D18120D0BDD0B5D18220D0B4D0BED181D182D183D0BFD0B000 PUSH1 0x40 DUP3 ADD MSTORE PUSH1 0x60 ADD SWAP1 JUMP JUMPDEST PUSH4 0x4E487B71 PUSH1 0xE0 SHL PUSH1 0x0 MSTORE PUSH1 0x32 PUSH1 0x4 MSTORE PUSH1 0x24 PUSH1 0x0 REVERT JUMPDEST PUSH1 0x1F DUP3 GT ISZERO PUSH2 0x110B JUMPI PUSH1 0x0 DUP2 PUSH1 0x0 MSTORE PUSH1 0x20 PUSH1 0x0 KECCAK256 PUSH1 0x1F DUP6 ADD PUSH1 0x5 SHR DUP2 ADD PUSH1 0x20 DUP7 LT ISZERO PUSH2 0x33CD JUMPI POP DUP1 JUMPDEST PUSH1 0x1F DUP6 ADD PUSH1 0x5 SHR DUP3 ADD SWAP2 POP JUMPDEST DUP2 DUP2 LT ISZERO PUSH2 0x33EC JUMPI DUP3 DUP2 SSTORE PUSH1 0x1 ADD PUSH2 0x33D9 JUMP JUMPDEST POP POP POP POP POP POP JUMP JUMPDEST DUP2 MLOAD PUSH8 0xFFFFFFFFFFFFFFFF DUP2 GT ISZERO PUSH2 0x340E JUMPI PUSH2 0x340E PUSH2 0x2F46 JUMP JUMPDEST PUSH2 0x3422 DUP2 PUSH2 0x341C DUP5 SLOAD PUSH2 0x324E JUMP JUMPDEST DUP5 PUSH2 0x33A4 JUMP JUMPDEST PUSH1 0x20 DUP1 PUSH1 0x1F DUP4 GT PUSH1 0x1 DUP2 EQ PUSH2 0x3457 JUMPI PUSH1 0x0 DUP5 ISZERO PUSH2 0x343F JUMPI POP DUP6 DUP4 ADD MLOAD JUMPDEST PUSH1 0x0 NOT PUSH1 0x3 DUP7 SWAP1 SHL SHR NOT AND PUSH1 0x1 DUP6 SWAP1 SHL OR DUP6 SSTORE PUSH2 0x33EC JUMP JUMPDEST PUSH1 0x0 DUP6 DUP2 MSTORE PUSH1 0x20 DUP2 KECCAK256 PUSH1 0x1F NOT DUP7 AND SWAP2 JUMPDEST DUP3 DUP2 LT ISZERO PUSH2 0x3486 JUMPI DUP9 DUP7 ADD MLOAD DUP3 SSTORE SWAP5 DUP5 ADD SWAP5 PUSH1 0x1 SWAP1 SWAP2 ADD SWAP1 DUP5 ADD PUSH2 0x3467 JUMP JUMPDEST POP DUP6 DUP3 LT ISZERO PUSH2 0x34A4 JUMPI DUP8 DUP6 ADD MLOAD PUSH1 0x0 NOT PUSH1 0x3 DUP9 SWAP1 SHL PUSH1 0xF8 AND SHR NOT AND DUP2 SSTORE JUMPDEST POP POP POP POP POP PUSH1 0x1 SWAP1 DUP2 SHL ADD SWAP1 SSTORE POP JUMP INVALID LOG2 PUSH5 0x6970667358 0x22 SLT KECCAK256 BALANCE SWAP14 RETURNDATASIZE SWAP4 PUSH14 0xE395A959D0B3F66D982C76DF32DE 0x25 RETURNDATACOPY SWAP1 0xA9 0x23 ADDRESS EXP 0xE3 PUSH5 0x2CBA334D64 PUSH20 0x6F6C634300081600330000000000000000000000 "
		},
		"gasEstimates": {
			"creation": {
				"codeDepositCost": "2709200",
				"executionCost": "infinite",
				"totalCost": "infinite"
			},
			"external": {
				"addMinute()": "24510",
				"allowance(address,address)": "infinite",
				"approve(address,uint256)": "24785",
				"approveToken(address,uint256,uint256)": "119774",
				"balanceOf(address)": "2629",
				"buyToken(uint256)": "infinite",
				"changePublicPrice(uint256)": "24659",
				"counterToProvider()": "2384",
				"decimals()": "245",
				"getApproveList()": "infinite",
				"getBalance()": "9375",
				"getLifeTime()": "infinite",
				"getTokenPrice()": "infinite",
				"getUserData(address)": "infinite",
				"getUserPrivateTokens(address)": "4862",
				"getUserPublicTokens(address)": "4915",
				"getWhitelist()": "infinite",
				"getWhitelistRequests()": "infinite",
				"giveReward(address,uint256)": "infinite",
				"name()": "infinite",
				"sendRequestToWhitelist()": "infinite",
				"signIn(string,string)": "infinite",
				"signUp(string,string)": "infinite",
				"startTime()": "2406",
				"stopPublicPhase()": "infinite",
				"symbol()": "infinite",
				"takeMyAllowance(uint256)": "infinite",
				"takeWhitelistRequest(uint256,bool)": "infinite",
				"totalSupply()": "2327",
				"transfer(address,uint256)": "51289",
				"transferFrom(address,address,uint256)": "infinite",
				"transferToProvider(uint256)": "infinite",
				"transferToken(address,uint256,uint256)": "infinite"
			}
		},
		"methodIdentifiers": {
			"addMinute()": "e4d69fbd",
			"allowance(address,address)": "dd62ed3e",
			"approve(address,uint256)": "095ea7b3",
			"approveToken(address,uint256,uint256)": "e33dc59b",
			"balanceOf(address)": "70a08231",
			"buyToken(uint256)": "2d296bf1",
			"changePublicPrice(uint256)": "9d7e8d5f",
			"counterToProvider()": "ca44a81e",
			"decimals()": "313ce567",
			"getApproveList()": "11c43b19",
			"getBalance()": "12065fe0",
			"getLifeTime()": "a37337b3",
			"getTokenPrice()": "4b94f50e",
			"getUserData(address)": "ffc9896b",
			"getUserPrivateTokens(address)": "65a1456d",
			"getUserPublicTokens(address)": "eef616e3",
			"getWhitelist()": "d01f63f5",
			"getWhitelistRequests()": "e0af444c",
			"giveReward(address,uint256)": "ce8ae9f3",
			"name()": "06fdde03",
			"sendRequestToWhitelist()": "eef0a913",
			"signIn(string,string)": "2c162dbc",
			"signUp(string,string)": "a469a332",
			"startTime()": "78e97925",
			"stopPublicPhase()": "9afaf794",
			"symbol()": "95d89b41",
			"takeMyAllowance(uint256)": "d0521743",
			"takeWhitelistRequest(uint256,bool)": "532970b1",
			"totalSupply()": "18160ddd",
			"transfer(address,uint256)": "a9059cbb",
			"transferFrom(address,address,uint256)": "23b872dd",
			"transferToProvider(uint256)": "6c834e9e",
			"transferToken(address,uint256,uint256)": "2e1faf75"
		}
	},
	"abi": [
		{
			"inputs": [],
			"stateMutability": "nonpayable",
			"type": "constructor"
		},
		{
			"inputs": [
				{
					"internalType": "address",
					"name": "spender",
					"type": "address"
				},
				{
					"internalType": "uint256",
					"name": "allowance",
					"type": "uint256"
				},
				{
					"internalType": "uint256",
					"name": "needed",
					"type": "uint256"
				}
			],
			"name": "ERC20InsufficientAllowance",
			"type": "error"
		},
		{
			"inputs": [
				{
					"internalType": "address",
					"name": "sender",
					"type": "address"
				},
				{
					"internalType": "uint256",
					"name": "balance",
					"type": "uint256"
				},
				{
					"internalType": "uint256",
					"name": "needed",
					"type": "uint256"
				}
			],
			"name": "ERC20InsufficientBalance",
			"type": "error"
		},
		{
			"inputs": [
				{
					"internalType": "address",
					"name": "approver",
					"type": "address"
				}
			],
			"name": "ERC20InvalidApprover",
			"type": "error"
		},
		{
			"inputs": [
				{
					"internalType": "address",
					"name": "receiver",
					"type": "address"
				}
			],
			"name": "ERC20InvalidReceiver",
			"type": "error"
		},
		{
			"inputs": [
				{
					"internalType": "address",
					"name": "sender",
					"type": "address"
				}
			],
			"name": "ERC20InvalidSender",
			"type": "error"
		},
		{
			"inputs": [
				{
					"internalType": "address",
					"name": "spender",
					"type": "address"
				}
			],
			"name": "ERC20InvalidSpender",
			"type": "error"
		},
		{
			"anonymous": false,
			"inputs": [
				{
					"indexed": true,
					"internalType": "address",
					"name": "owner",
					"type": "address"
				},
				{
					"indexed": true,
					"internalType": "address",
					"name": "spender",
					"type": "address"
				},
				{
					"indexed": false,
					"internalType": "uint256",
					"name": "value",
					"type": "uint256"
				}
			],
			"name": "Approval",
			"type": "event"
		},
		{
			"anonymous": false,
			"inputs": [
				{
					"indexed": true,
					"internalType": "address",
					"name": "from",
					"type": "address"
				},
				{
					"indexed": true,
					"internalType": "address",
					"name": "to",
					"type": "address"
				},
				{
					"indexed": false,
					"internalType": "uint256",
					"name": "value",
					"type": "uint256"
				}
			],
			"name": "Transfer",
			"type": "event"
		},
		{
			"inputs": [],
			"name": "addMinute",
			"outputs": [],
			"stateMutability": "nonpayable",
			"type": "function"
		},
		{
			"inputs": [
				{
					"internalType": "address",
					"name": "owner",
					"type": "address"
				},
				{
					"internalType": "address",
					"name": "spender",
					"type": "address"
				}
			],
			"name": "allowance",
			"outputs": [
				{
					"internalType": "uint256",
					"name": "",
					"type": "uint256"
				}
			],
			"stateMutability": "view",
			"type": "function"
		},
		{
			"inputs": [
				{
					"internalType": "address",
					"name": "spender",
					"type": "address"
				},
				{
					"internalType": "uint256",
					"name": "value",
					"type": "uint256"
				}
			],
			"name": "approve",
			"outputs": [
				{
					"internalType": "bool",
					"name": "",
					"type": "bool"
				}
			],
			"stateMutability": "nonpayable",
			"type": "function"
		},
		{
			"inputs": [
				{
					"internalType": "address",
					"name": "spender",
					"type": "address"
				},
				{
					"internalType": "uint256",
					"name": "amount",
					"type": "uint256"
				},
				{
					"internalType": "uint256",
					"name": "_type",
					"type": "uint256"
				}
			],
			"name": "approveToken",
			"outputs": [],
			"stateMutability": "nonpayable",
			"type": "function"
		},
		{
			"inputs": [
				{
					"internalType": "address",
					"name": "account",
					"type": "address"
				}
			],
			"name": "balanceOf",
			"outputs": [
				{
					"internalType": "uint256",
					"name": "",
					"type": "uint256"
				}
			],
			"stateMutability": "view",
			"type": "function"
		},
		{
			"inputs": [
				{
					"internalType": "uint256",
					"name": "_amount",
					"type": "uint256"
				}
			],
			"name": "buyToken",
			"outputs": [],
			"stateMutability": "payable",
			"type": "function"
		},
		{
			"inputs": [
				{
					"internalType": "uint256",
					"name": "_price",
					"type": "uint256"
				}
			],
			"name": "changePublicPrice",
			"outputs": [],
			"stateMutability": "nonpayable",
			"type": "function"
		},
		{
			"inputs": [],
			"name": "counterToProvider",
			"outputs": [
				{
					"internalType": "uint256",
					"name": "",
					"type": "uint256"
				}
			],
			"stateMutability": "view",
			"type": "function"
		},
		{
			"inputs": [],
			"name": "decimals",
			"outputs": [
				{
					"internalType": "uint8",
					"name": "",
					"type": "uint8"
				}
			],
			"stateMutability": "view",
			"type": "function"
		},
		{
			"inputs": [],
			"name": "getApproveList",
			"outputs": [
				{
					"components": [
						{
							"internalType": "address",
							"name": "owner",
							"type": "address"
						},
						{
							"internalType": "address",
							"name": "spender",
							"type": "address"
						},
						{
							"internalType": "uint256",
							"name": "amount",
							"type": "uint256"
						},
						{
							"internalType": "uint256",
							"name": "tokenType",
							"type": "uint256"
						}
					],
					"internalType": "struct Token.Approve[]",
					"name": "",
					"type": "tuple[]"
				}
			],
			"stateMutability": "view",
			"type": "function"
		},
		{
			"inputs": [],
			"name": "getBalance",
			"outputs": [
				{
					"internalType": "uint256",
					"name": "",
					"type": "uint256"
				},
				{
					"internalType": "uint256",
					"name": "",
					"type": "uint256"
				},
				{
					"internalType": "uint256",
					"name": "",
					"type": "uint256"
				},
				{
					"internalType": "uint256",
					"name": "",
					"type": "uint256"
				}
			],
			"stateMutability": "view",
			"type": "function"
		},
		{
			"inputs": [],
			"name": "getLifeTime",
			"outputs": [
				{
					"internalType": "uint256",
					"name": "",
					"type": "uint256"
				}
			],
			"stateMutability": "view",
			"type": "function"
		},
		{
			"inputs": [],
			"name": "getTokenPrice",
			"outputs": [
				{
					"internalType": "uint256",
					"name": "",
					"type": "uint256"
				}
			],
			"stateMutability": "view",
			"type": "function"
		},
		{
			"inputs": [
				{
					"internalType": "address",
					"name": "_wallet",
					"type": "address"
				}
			],
			"name": "getUserData",
			"outputs": [
				{
					"components": [
						{
							"internalType": "string",
							"name": "login",
							"type": "string"
						},
						{
							"internalType": "address",
							"name": "wallet",
							"type": "address"
						},
						{
							"internalType": "uint256",
							"name": "seedTokens",
							"type": "uint256"
						},
						{
							"internalType": "uint256",
							"name": "privateTokens",
							"type": "uint256"
						},
						{
							"internalType": "uint256",
							"name": "publicTokens",
							"type": "uint256"
						},
						{
							"internalType": "bool",
							"name": "whitelist",
							"type": "bool"
						},
						{
							"internalType": "enum Token.Role",
							"name": "role",
							"type": "uint8"
						}
					],
					"internalType": "struct Token.User",
					"name": "",
					"type": "tuple"
				}
			],
			"stateMutability": "view",
			"type": "function"
		},
		{
			"inputs": [
				{
					"internalType": "address",
					"name": "_wallet",
					"type": "address"
				}
			],
			"name": "getUserPrivateTokens",
			"outputs": [
				{
					"internalType": "uint256",
					"name": "",
					"type": "uint256"
				}
			],
			"stateMutability": "view",
			"type": "function"
		},
		{
			"inputs": [
				{
					"internalType": "address",
					"name": "_wallet",
					"type": "address"
				}
			],
			"name": "getUserPublicTokens",
			"outputs": [
				{
					"internalType": "uint256",
					"name": "",
					"type": "uint256"
				}
			],
			"stateMutability": "view",
			"type": "function"
		},
		{
			"inputs": [],
			"name": "getWhitelist",
			"outputs": [
				{
					"components": [
						{
							"internalType": "string",
							"name": "login",
							"type": "string"
						},
						{
							"internalType": "address",
							"name": "wallet",
							"type": "address"
						},
						{
							"internalType": "bool",
							"name": "status",
							"type": "bool"
						}
					],
					"internalType": "struct Token.Whitelist[]",
					"name": "",
					"type": "tuple[]"
				}
			],
			"stateMutability": "view",
			"type": "function"
		},
		{
			"inputs": [],
			"name": "getWhitelistRequests",
			"outputs": [
				{
					"components": [
						{
							"internalType": "string",
							"name": "login",
							"type": "string"
						},
						{
							"internalType": "address",
							"name": "wallet",
							"type": "address"
						},
						{
							"internalType": "bool",
							"name": "status",
							"type": "bool"
						}
					],
					"internalType": "struct Token.Whitelist[]",
					"name": "",
					"type": "tuple[]"
				}
			],
			"stateMutability": "view",
			"type": "function"
		},
		{
			"inputs": [
				{
					"internalType": "address",
					"name": "_receiver",
					"type": "address"
				},
				{
					"internalType": "uint256",
					"name": "_amount",
					"type": "uint256"
				}
			],
			"name": "giveReward",
			"outputs": [],
			"stateMutability": "nonpayable",
			"type": "function"
		},
		{
			"inputs": [],
			"name": "name",
			"outputs": [
				{
					"internalType": "string",
					"name": "",
					"type": "string"
				}
			],
			"stateMutability": "view",
			"type": "function"
		},
		{
			"inputs": [],
			"name": "sendRequestToWhitelist",
			"outputs": [],
			"stateMutability": "nonpayable",
			"type": "function"
		},
		{
			"inputs": [
				{
					"internalType": "string",
					"name": "_login",
					"type": "string"
				},
				{
					"internalType": "string",
					"name": "_password",
					"type": "string"
				}
			],
			"name": "signIn",
			"outputs": [
				{
					"components": [
						{
							"internalType": "string",
							"name": "login",
							"type": "string"
						},
						{
							"internalType": "address",
							"name": "wallet",
							"type": "address"
						},
						{
							"internalType": "uint256",
							"name": "seedTokens",
							"type": "uint256"
						},
						{
							"internalType": "uint256",
							"name": "privateTokens",
							"type": "uint256"
						},
						{
							"internalType": "uint256",
							"name": "publicTokens",
							"type": "uint256"
						},
						{
							"internalType": "bool",
							"name": "whitelist",
							"type": "bool"
						},
						{
							"internalType": "enum Token.Role",
							"name": "role",
							"type": "uint8"
						}
					],
					"internalType": "struct Token.User",
					"name": "",
					"type": "tuple"
				}
			],
			"stateMutability": "view",
			"type": "function"
		},
		{
			"inputs": [
				{
					"internalType": "string",
					"name": "_login",
					"type": "string"
				},
				{
					"internalType": "string",
					"name": "_password",
					"type": "string"
				}
			],
			"name": "signUp",
			"outputs": [],
			"stateMutability": "nonpayable",
			"type": "function"
		},
		{
			"inputs": [],
			"name": "startTime",
			"outputs": [
				{
					"internalType": "uint256",
					"name": "",
					"type": "uint256"
				}
			],
			"stateMutability": "view",
			"type": "function"
		},
		{
			"inputs": [],
			"name": "stopPublicPhase",
			"outputs": [],
			"stateMutability": "nonpayable",
			"type": "function"
		},
		{
			"inputs": [],
			"name": "symbol",
			"outputs": [
				{
					"internalType": "string",
					"name": "",
					"type": "string"
				}
			],
			"stateMutability": "view",
			"type": "function"
		},
		{
			"inputs": [
				{
					"internalType": "uint256",
					"name": "_index",
					"type": "uint256"
				}
			],
			"name": "takeMyAllowance",
			"outputs": [],
			"stateMutability": "nonpayable",
			"type": "function"
		},
		{
			"inputs": [
				{
					"internalType": "uint256",
					"name": "_index",
					"type": "uint256"
				},
				{
					"internalType": "bool",
					"name": "_solution",
					"type": "bool"
				}
			],
			"name": "takeWhitelistRequest",
			"outputs": [],
			"stateMutability": "nonpayable",
			"type": "function"
		},
		{
			"inputs": [],
			"name": "totalSupply",
			"outputs": [
				{
					"internalType": "uint256",
					"name": "",
					"type": "uint256"
				}
			],
			"stateMutability": "view",
			"type": "function"
		},
		{
			"inputs": [
				{
					"internalType": "address",
					"name": "to",
					"type": "address"
				},
				{
					"internalType": "uint256",
					"name": "value",
					"type": "uint256"
				}
			],
			"name": "transfer",
			"outputs": [
				{
					"internalType": "bool",
					"name": "",
					"type": "bool"
				}
			],
			"stateMutability": "nonpayable",
			"type": "function"
		},
		{
			"inputs": [
				{
					"internalType": "address",
					"name": "from",
					"type": "address"
				},
				{
					"internalType": "address",
					"name": "to",
					"type": "address"
				},
				{
					"internalType": "uint256",
					"name": "value",
					"type": "uint256"
				}
			],
			"name": "transferFrom",
			"outputs": [
				{
					"internalType": "bool",
					"name": "",
					"type": "bool"
				}
			],
			"stateMutability": "nonpayable",
			"type": "function"
		},
		{
			"inputs": [
				{
					"internalType": "uint256",
					"name": "_phase",
					"type": "uint256"
				}
			],
			"name": "transferToProvider",
			"outputs": [],
			"stateMutability": "nonpayable",
			"type": "function"
		},
		{
			"inputs": [
				{
					"internalType": "address",
					"name": "_receiver",
					"type": "address"
				},
				{
					"internalType": "uint256",
					"name": "_amount",
					"type": "uint256"
				},
				{
					"internalType": "uint256",
					"name": "_type",
					"type": "uint256"
				}
			],
			"name": "transferToken",
			"outputs": [],
			"stateMutability": "nonpayable",
			"type": "function"
		}
	]
}